:100000000C9487000C94A6000C94A6000C94A600F7
:100010000C94A6000C94A6000C94A6000C94A600C8
:100020000C94A6000C94A6000C94A6000C94A600B8
:100030000C94A3040C94A6000C94A6000C94A600A7
:100040000C94A6000C94A6000C94A6000C94A60098
:100050000C94A6000C94A6000C94A6000C94A60088
:100060000C94A6000C94A6000C94A6000C94A60078
:100070000C94A6000C94A6000C94A6000C94A60068
:100080000C94A6000C94A6000C94A60007634236BC
:10009000B79BD8A71A39685618AEBAAB558C1D3C19
:1000A000B7CC5763BD6DEDFD753EF6177231BF00DD
:1000B0000000803F08000000BE922449123EABAA17
:1000C000AA2ABECDCCCC4C3E00000080BEABAAAA72
:1000D000AA3E00000000BF000000803F00000000BA
:1000E00000084178D3BB4387D1133D190E3CC3BDF3
:1000F0004282AD2B3E68EC8276BED98FE1A93E4CA0
:1001000080EFFFBE01C4FF7F3F000000000011240C
:100110001FBECFEFD0E1DEBFCDBF11E0A0E0B1E068
:10012000E0E2F3E200E00BBF02C007900D92AE32B6
:10013000B107D9F721E0AEE2B1E001C01D92AA33C8
:10014000B207E1F70E94430C0C948E110C9400004E
:10015000CF92DF92EF92FF920F931F93CF93DF9393
:1001600000D000D000D0CDB7DEB76C01F62E84E110
:10017000E82E28E131E044E151E060E171E0C601A0
:100180000E94140C20912E0130912F0140913001DA
:1001900050913101609118017091190180911A01FB
:1001A00090911B010E94D10D8B018E839D83AB0129
:1001B000BC0140932E0150932F0160933001709346
:1001C0003101EA94E110D5CF8F2D90E0B0E0A0E0AE
:1001D00089839A83AB83BC83BC01CD010E94EC0E62
:1001E0009B01AC0109831A839E819B83AD81AC8303
:1001F00069817A818B819C810E94420E60932E01DD
:1002000070932F01809330019093310126960FB6A1
:10021000F894DEBF0FBECDBFDF91CF911F910F913C
:10022000FF90EF90DF90CF9008950F931F93FC0104
:1002300042835383648375830683178320873187C2
:1002400080E28093700010927100A4E7B0E08C917E
:1002500084608C9381E080831F910F910895FC014D
:1002600080810895FC0184EA809374008091740079
:1002700087FFFCCF81E08183089524E920937400F7
:10028000FC01118281E00895DC01E4E7F0E0908157
:100290009B7F90831C9281E008956093730084E8B3
:1002A000809374008091740087FFFCCF809171006F
:1002B000887F883169F080917100887F883241F0B1
:1002C00090917100987F81E0903419F080E008955A
:1002D00081E00895FB01809174004423C9F080649B
:1002E0008093740084E8809374008091740087FF89
:1002F000FCCF80917100887F883529F08091710052
:10030000887F803539F480917300808381E008957F
:100310008F7BE6CF80E00895FF920F931F93CF93DA
:10032000DF93EC01162FF42E022F0E943201612F71
:10033000660FCE010E944D016F2DCE010E944D012E
:10034000602FCE010E944D0184E9809374001982D0
:10035000DF91CF911F910F91FF900895BF92CF929F
:10036000DF92EF92FF920F931F93CF93DF93EC01F5
:10037000F62EB42EE22E68010E943201FF0C6F2D82
:10038000CE010E944D016B2DCE010E944D01CE0188
:100390000E94320161E06F0DCE010E944D01E00E1E
:1003A000F12EF11CCE14DF0451F4DF91CF911F9197
:1003B0000F91FF90EF90DF90CF90BF90089541E0B4
:1003C000B601CE010E946A018FEFC81AD80AEACF9F
:1003D00080E4689FB0011124646860937400809188
:1003E000740087FFFCCF8091730008955F926F9235
:1003F0007F928F929F92AF92BF92CF92DF92EF92B5
:10040000FF920F931F93CF93DF93EC01162FF42EDF
:10041000022F0E943201612F660FCE010E944D0112
:100420006F2DCE010E944D0184E9809374001982E2
:10043000CE010E943201612F660F6160CE010E94E1
:100440004D01512CA12CB12CC12CD12CE12CF12C23
:10045000612C712C0150110B852C912C801691066A
:10046000B4F160E0CE010E94E80194E99093740039
:10047000198290E023E0000F111F2A95E1F702C0D6
:10048000880F991F0A95E2F7E92FEE0FEE0B2A2D40
:10049000282B3B2D392B4E2F4C295E2F5D296E2F9B
:1004A0006E297E2F7F298E2F86299E2F9729DF91F7
:1004B000CF911F910F91FF90EF90DF90CF90BF9061
:1004C000AF909F908F907F906F905F90089561E0C4
:1004D000CE010E94E80190E033E0880C991C3A9527
:1004E000E1F702C0880F991F8A94E2F7292F220FA3
:1004F000220BA82AB92AC22AD22AE22AF22A622A7E
:10050000722A5394A9CF8F9A089597988F9A8FEB58
:1005100093E00197F1F700C000008F9890EA9A9558
:10052000F1F780B3E7E4F3E03197F1F700C00000A2
:100530008078089597988F9A82E08A95F1F700C0A5
:100540008F9895E29A95F1F7000080B398E79A9515
:10055000F1F7881F8827881F089597988F9A82E05F
:100560008A95F1F700C061118F9880EA8A95F1F7BA
:100570008F9808950F931F93CF93DF93182F092F10
:10058000D9E080E0D15029F4DF91CF911F910F91F4
:100590000895C82FC695812F902F0E949A0220E8B7
:1005A000829FC00111248C2BEDCF0F931F93CF930B
:1005B000DF93182F092FC62FD9E0D15029F4DF91EE
:1005C000CF911F910F9108956C2F6170812F902F03
:1005D0000E94AD02C695F1CF611109C089B9109290
:1005E000900086E08093950088E98AB9089510927A
:1005F00098008093990088E980939A008EE0809318
:100600009D0008955D9B03C090E080E008958CB943
:10061000F9CF5F9BFECF8CB190E0089590919B0045
:1006200095FF21C0F89480916500886080936500F3
:100630002FEF80E792E0215080409040E1F700C02A
:10064000000080916500877F809365002FEF80E731
:1006500092E0215080409040E1F700C00000789483
:1006600090E080E0089580939C00D8CF80919B001B
:1006700087FFFCCF80919C0090E00895FC0197B328
:10068000976197BB98B39F6098BB81E58DB91EB801
:1006900081E080830895FC01808108956FB9779B84
:1006A000FECF08958FEF8FB9779BFECF8FB108955E
:1006B0006FB9779BFECF8FB108950F931F93CF93A0
:1006C000DF930F92CDB7DEB78C010E943E03CE01BF
:1006D00001960E943E038981F80180830F90DF918B
:1006E000CF911F910F9108951F93CF93DF93D82F30
:1006F000C92F142FC09860620E945803612F8D2F5C
:100700009C2F0E945803C09ADF91CF911F910895AA
:10071000FF920F931F93CF93DF93082FF92E142F7F
:10072000D52FC22FC09860620E945803312F8D2FA1
:100730001C2F130F131307C0C09ADF91CF911F9185
:100740000F91FF900895C32FD82F6991802F9F2D6F
:100750000E9458033C2F8D2FEDCFCF93DF93D82FDE
:10076000C92FC0986F710E9458036FEF8D2F9C2F77
:100770000E945803C09ADF91CF910895C09861EE0E
:100780000E945803C09A0895EF92FF920F931F930F
:10079000CF93DF938C01EB010E94BE0340E367E03F
:1007A000C8010E947403C09860EAC8010E945803FF
:1007B0007E0180E2E80EF11CFE0121966081C801F5
:1007C0000E945803CE15DF05B9F7C09AC49A8FE18D
:1007D0009EE40197F1F700C00000C498DF91CF912B
:1007E0001F910F91FF90EF900895EF92FF920F935A
:1007F0001F93CF93DF93CDB7DEB728970FB6F8944A
:10080000DEBF0FBECDBF7C0109831A832B833C83DF
:100810004D835E836F83788725E0AE014F5F5F4F26
:100820006AE00E94880325E0AE014F5F5F4F60E100
:10083000C7010E94880328960FB6F894DEBF0FBE4A
:10084000CDBFDF91CF911F910F91FF90EF90089551
:100850000F931F93CF93DF93D82FC92F4EE060E003
:100860000E9474034FE361E08D2F9C2F0E9474035C
:1008700040E062E08D2F9C2F0E94740343E063E010
:100880008D2F9C2F0E9474034FEF64E08D2F9C2FBF
:100890000E9474034CE565E08D2F9C2F0E94740329
:1008A00042E066E08D2F9C2F0E94740340E767E0D2
:1008B0008D2F9C2F0E94740344E161E18D2F9C2FAA
:1008C0000E94740344E162E18D2F9C2F0E94740307
:1008D00044E163E18D2F9C2F0E94740344E164E1A5
:1008E0008D2F9C2F0E94740344E165E18D2F9C2F76
:1008F0000E94740344E166E18D2F9C2F0E947403D3
:1009000040E067E18D2F9C2F0E94740340E06CE172
:100910008D2F9C2F0E94740343E06DE18D2F9C2F3F
:100920000E94740308E718E728E738E748E750E033
:1009300060E070E08D2F9C2F0E94F503DF91CF9136
:100940001F910F9108951F921FB61F9211248F932C
:100950009F93AF93BF938091360190913701A091FF
:100960003801B09139010196A11DB11D8093360166
:1009700090933701A0933801B0933901BF91AF91A3
:100980009F918F911F901FBE1F901895CF93DF935B
:1009900000D000D0CDB7DEB769837A838B839C8388
:1009A00020E43FE140E050E00E94AE0D8EB58A6049
:1009B0008EBDBB27A52F942F832F8BBD2ABD87B754
:1009C000806187BF0F900F900F900F90DF91CF91B4
:1009D0000895CF93DF9300D000D0CDB7DEB7F89461
:1009E0008091360190913701A0913801B091390181
:1009F00089839A83AB83BC83789469817A818B8164
:100A00009C810F900F900F900F90DF91CF910895E0
:100A1000FC0131968AE0DF011D928A95E9F708957D
:100A20000F931F93CF93DF930F92CDB7DEB7198249
:100A3000FC018E010F5F1F4F21E040E06191CF016B
:100A40000E94AE0181E09981953E09F080E00F900F
:100A5000DF91CF911F910F910895FC012BE041E3AD
:100A60006191CF010C948C01FC0128E04DE2619171
:100A7000CF010C948C01CF93DF93EC0168830E942B
:100A80001005882371F028E04CE2FE016191CF014E
:100A90000E948C01CE010E942D05CE010E943405DA
:100AA00081E0DF91CF9108958F929F92AF92BF9294
:100AB000CF92DF92EF92FF920F931F93CF93DF932A
:100AC00000D000D000D0CDB7DEB74B015A0169018C
:100AD0007C012FEFE21AF20A8E010B5F1F4F22E01A
:100AE00042E36DE1C7010E94AE010250110922E00C
:100AF00044E36DE1C7010E94AE010250110922E0FA
:100B000046E36DE1C7010E94AE018D819E81F40133
:100B1000918380838B819C81F5019183808389817E
:100B20009A81F6019183808326960FB6F894DEBFF2
:100B30000FBECDBFDF91CF911F910F91FF90EF902E
:100B4000DF90CF90BF90AF909F908F900895AF921D
:100B5000BF92CF92DF92EF92FF920F931F93CF93AA
:100B6000DF93CDB7DEB72A970FB6F894DEBF0FBE7E
:100B7000CDBF8C015B016A0179019E012F5F3F4F60
:100B8000AE014D5F5F4FBE016B5F7F4F0E9454050A
:100B90008D819E819C01990F440B550B2F833887C3
:100BA00049875A87CA01B9010E94EC0E2DEC3CEC32
:100BB0004CE15DE36F83788789879A876F817885B9
:100BC00089859A850E949C0FD5016D937D938D93A5
:100BD0009C9313978B819C819C01990F440B550B1F
:100BE0002F83388749875A87CA01B9010E94EC0EC2
:100BF0002DEC3CEC4CE15DE36F83788789879A8725
:100C00006F81788589859A850E949C0FD6016D93A6
:100C10007D938D939C93139789819A819C01990F61
:100C2000440B550B2F83388749875A87CA01B9016E
:100C30000E94EC0E2DEC3CEC4CE15DE36F83788779
:100C400089879A876F81788589859A850E949C0F0C
:100C5000D7016D937D938D939C93139728E04DE27C
:100C60006DE1C80101962A960FB6F894DEBF0FBE5B
:100C7000CDBFDF91CF911F910F91FF90EF90DF904B
:100C8000CF90BF90AF900C948C010C9483020F9383
:100C90001F93CF93DF93D82FC92F8B010E9485021A
:100CA0006CEC8D2F9C2F0E94D50264E48D2F9C2F1D
:100CB0000E94D5028D2F9C2F0E949A028823D1F387
:100CC0008D2F9C2F0E9485026CEC8D2F9C2F0E94F3
:100CD000D5026EEB8D2F9C2F0E94D5028D2F9C2F5D
:100CE0000E94BA02F80180838D2F9C2F0E94BA02C5
:100CF000F80181838D2F9C2FDF91CF911F910F9150
:100D00000C9485020F931F93CF93DF9300D000D0F4
:100D100000D0CDB7DEB78B01BE016F5F7F4F0E9461
:100D2000470689819A819C01990F440B550B2B83AF
:100D30003C834D835E83CA01B9010E94EC0E20E022
:100D400030E040E85DE36B837C838D839E836B8121
:100D50007C818D819E810E949C0F20E030E040E0EC
:100D60005DE36B837C838D839E836B817C818D812E
:100D70009E810E94D10DD8016D937D938D939C939C
:100D8000139726960FB6F894DEBF0FBECDBFDF9146
:100D9000CF911F910F910895FC0114821382108E40
:100DA000178A7D968AE0DF011D928A95E9F70895FA
:100DB000FC01242F462F60814D960C948C010F93DB
:100DC0001F93CF93DF930F92CDB7DEB7FC01462F71
:100DD0008E010F5F1F4F21E060814D960E94AE0192
:100DE00089810F90DF91CF911F910F9108950F93FB
:100DF0001F93CF93DF9300D000D000D00F92CDB7D8
:100E0000DEB7FC01462F8E010F5F1F4F23E060818C
:100E10004D960E94AE0189819A819827892798274B
:100E2000B0E0A0E0BA2FA92F982F88272B81AC0122
:100E3000422BCD01BA0127960FB6F894DEBF0FBE44
:100E4000CDBFDF91CF911F910F9108950F931F9305
:100E5000CF93DF93EC018C01035E1F4F22E048E843
:100E600067E7C8010E94F60129833A8322E04AE835
:100E700067E7C8010E94F6012D833E8322E04CE81B
:100E800067E7C8010E94F6012F83388722E04EE809
:100E900067E7C8010E94F6012B833C8322E040E90A
:100EA00067E7C8010E94F60129873A8722E042E9F4
:100EB00067E7C8010E94F6012B873C8722E044E9DE
:100EC00067E7C8010E94F6012D873E8722E046E9C8
:100ED00067E7C8010E94F6012F87388B22E048E9B6
:100EE00067E7C8010E94F601298B3A8B22E04AE9A4
:100EF00067E7C8010E94F6012B8B3C8B22E04CE98E
:100F000067E7C8010E94F6012D8B3E8B22E04EE977
:100F100067E7C8010E94F6012F8B388FDF91CF91D0
:100F20001F910F910895CF93DF93EC01688360EDDB
:100F30000E94DF06883599F4CE010E94260748E614
:100F400065EFCE010E94D8062DEF44EF67E7CE0192
:100F50004D960E948C0181E0DF91CF91089580E051
:100F6000FBCF6F927F928F929F92AF92BF92CF9260
:100F7000DF92EF92FF920F931F93CF93DF93CDB742
:100F8000DEB72A970FB6F894DEBF0FBECDBF8D83B4
:100F90009E836AEF8D819E810E94F7069B01AC01C2
:100FA00084E055954795379527958A95D1F72983FC
:100FB0003A834B835C83CA01B9010E94EC0E5B014A
:100FC0006C01AD81BE8111968D919C919C0150E088
:100FD00040E029833A834B835C83CA01B9010E94B4
:100FE000EA0E7B018C0120E030E040E057E3A9826B
:100FF000BA82CB82DC8269817A818B819C810E945A
:101000009C0F3B014C0120E030E040E059E3E982D5
:10101000FA820B831C8369817A818B819C810E9477
:101020009C0F9B01AC0169827A828B829C826981D0
:101030007A818B819C810E94D00D3B014C0120E084
:1010400030E040E858E3A982BA82CB82DC82698131
:101050007A818B819C810E949C0F5B016C0120E056
:1010600030E040E85AE3E982FA820B831C8369810D
:101070007A818B819C810E949C0F9B01AC01A9828B
:10108000BA82CB82DC8269817A818B819C810E94C9
:10109000D00D7B018C01AD81BE8115968D919C9107
:1010A0009C01990F440B550B29833A834B835C8336
:1010B000CA01B9010E94EC0E9B01AC01E982FA82DF
:1010C0000B831C8369817A818B819C810E949C0F98
:1010D0007B018C01AD81BE8117968D919C919C0105
:1010E000990F440B550B29833A834B835C83CA01C8
:1010F000B9010E94EC0E5B016C019301A4016982AD
:101100007A828B829C8269817A818B819C810E9408
:101110009C0F9B01AC01A982BA82CB82DC826981DF
:101120007A818B819C810E949C0F9B01AC01E9829A
:10113000FA820B831C8369817A818B819C810E9456
:10114000D10D7B018C016983FA828B831C836981B9
:101150007A818B819C810E94B40E6F837887898706
:101160009A87AD81BE8159966D937D938D939C93A3
:101170005C9720E030E040EA55E469817A818B8118
:101180009C810E94420E69837A838B839C83698150
:101190007A818B819C812A960FB6F894DEBF0FBEB0
:1011A000CDBFDF91CF911F910F91FF90EF90DF9016
:1011B000CF90BF90AF909F908F907F906F90089549
:1011C0002F923F924F925F926F927F928F929F9257
:1011D000AF92BF92CF92DF92EF92FF920F931F9345
:1011E000CF93DF93CDB7DEB728970FB6F894DEBF65
:1011F0000FBECDBF8F8398878B016A018F81988541
:101200000E94B107D8016D937D938D939C931397A2
:1012100067EF8F8198850E94F7064B015C01EF8193
:10122000F885618D728D838D948D0E94EC0E20E087
:1012300030E040E05FE369837A838B839C8369813C
:101240007A818B819C810E949C0F20E030E04AE7EC
:1012500057E469837A838B839C8369817A818B814C
:101260009C810E94D00D7B018C01AF81B8851B96BB
:101270008D919C919C01990F440B550B29833A83C6
:101280004B835C83CA01B9010E94EC0E9701A8014F
:1012900069837A838B839C8369817A818B819C812A
:1012A0000E949C0F9701A80169837A838B839C839A
:1012B00069817A818B819C810E949C0F20E030E0C3
:1012C00040E056E369837A838B839C8369817A81CA
:1012D0008B819C810E949C0F2B013C01AF81B885C2
:1012E00019968D919C919C01990F440B550B298364
:1012F0003A834B835C83CA01B9010E94EC0E9701CB
:10130000A80169837A838B839C8369817A818B812D
:101310009C810E949C0F9B01AC0149825A826B8286
:101320007C8269817A818B819C810E94D10D20E031
:1013300030E040E056E369837A838B839C83698144
:101340007A818B819C810E949C0F20E030E040E0FC
:1013500058E369837A838B839C8369817A818B814B
:101360009C810E949C0F20E030E040E85FE36983AD
:101370007A838B839C8369817A818B819C810E9493
:10138000D10D2B013C01AF81B88513968D919C91B5
:101390009C0150E040E029833A834B835C83CA017F
:1013A000B9010E94EA0E9201A30169837A838B83BB
:1013B0009C8369817A818B819C810E949C0F562E2F
:1013C000672E782E492E20E030E0A90169837A83C8
:1013D0008B839C8369817A818B819C810E943D0EE5
:1013E000882309F4D2C1AF81B88551968D919C9123
:1013F0009C01990F440B550B29833A834B835C83E3
:10140000CA01B9010E94EC0E1B018D839E839701D6
:10141000A801E982FA820B831C8369817A818B811E
:101420009C810E949C0F9B01AC0129823A828D8194
:101430008B839E819C8369817A818B819C810E94B0
:101440009C0F20E030E040E058E369837A838B838F
:101450009C8369817A818B819C810E949C0F362EAE
:10146000272E8D839E83AF81B8851F968D919C9189
:101470009C01990F440B550B29833A834B835C8362
:10148000CA01B9010E94EC0E9701A80169837A8311
:101490008B839C8369817A818B819C810E949C0FC4
:1014A0009B01AC0169837A838B839C8369817A81F8
:1014B0008B819C810E94D10D232D322D4D815E8127
:1014C00069837A838B839C8369817A818B819C81F8
:1014D0000E94D10D20E030E040E85EE369837A832A
:1014E0008B839C8369817A818B819C810E949C0F74
:1014F0001B017C01D501C40124E0B595A795979502
:1015000087952A95D1F789839A83AB83BC83BC01E5
:10151000CD010E94EC0E9B01AC0160E070E080E820
:1015200099E40E94D00D5B018C01AF81B8851D96B6
:101530008D919C919C01990F440B550B29833A8303
:101540004B835C83CA01B9010E94EC0E20E030E0BD
:1015500040E857E469837A838B839C8369817A812D
:101560008B819C810E949C0F9101A70169837A83E2
:101570008B839C8369817A818B819C810E94D10DB0
:1015800020E030E040E859E369837A838B839C83D1
:1015900069817A818B819C810E949C0F9B01AC01A7
:1015A000A982BA820B831C8369817A818B819C8199
:1015B0000E94D00D20E030E543EC55E469837A8346
:1015C0008B839C8369817A818B819C810E949C0F93
:1015D000252D362D472D542D69837A838B839C834B
:1015E00069817A818B819C810E94420E7B018C01F2
:1015F000AF81B88557968D919C919C01990F440BB2
:10160000550B29833A834B835C83CA01B9010E943D
:10161000EC0E9701A80169837A838B839C8369818F
:101620007A818B819C810E949C0F9701A80169831C
:101630007A838B839C8369817A818B819C810E94D0
:101640009C0F20E030E040E050E369837A838B8395
:101650009C8369817A818B819C810E949C0F4B01C4
:101660005C01AF81B88555968D919C919C01990F35
:10167000440B550B29833A834B835C83CA01B90120
:101680000E94EC0E9701A80169837A838B839C8367
:1016900069817A818B819C810E949C0F20E030E0DF
:1016A00040E058E369837A838B839C8369817A81E4
:1016B0008B819C810E949C0F9B01AC0189829A8244
:1016C000AB82BC8269817A818B819C810E94D10D21
:1016D0004B015C01AF81B88553968D919C919C0123
:1016E000990F440B550B29833A834B835C83CA01C2
:1016F000B9010E94EC0E9B01AC0189829A82AB82F7
:10170000BC8269817A818B819C810E94D10D20E00D
:1017100030E040E85DE369837A838B839C83698151
:101720007A818B819C810E949C0F9701A80169831B
:101730007A838B839C8369817A818B819C810E94CF
:10174000D10D362F272F432F522FBC01D6014D9399
:101750005D936D937C93139728960FB6F894DEBF34
:101760000FBECDBFDF91CF911F910F91FF90EF90F2
:10177000DF90CF90BF90AF909F908F907F906F90B1
:101780005F904F903F902F90089530E020E080E0F0
:1017900090E0D9CFCF93DF93CDB7DEB72A970FB6BE
:1017A000F894DEBF0FBECDBF4D835E8320E836EEDA
:1017B00045EC57E4DB016D917D918D919C910E94E8
:1017C000420E22E63BED42E45EE369837A838B833B
:1017D0009C8369817A818B819C810E9409109B0185
:1017E000AC0160E070E080E89FE30E94D00D20E053
:1017F0003AE24DE257E469837A838B839C83698163
:101800007A818B819C810E949C0FED81FE81608397
:101810007183828393832A960FB6F894DEBF0FBE3E
:10182000CDBFDF91CF910895CF92DF92EF92FF92DB
:101830000F931F93CF93DF93EC016B018A01790122
:101840002DEF44EF68814D960E948C012FEF82E1CD
:1018500091E0215080409040E1F700C00000A801D5
:10186000B601CE010E94E008A701B801CE010E9496
:10187000CA0B81E0DF91CF911F910F91FF90EF9004
:10188000DF90CF900895CDB7DEB7C254D1090FB61F
:10189000F894DEBF0FBECDBFF894809164008860DD
:1018A000809364004E012EE3820E911CC4010E94BD
:1018B0005D03CE01C3962AE0DC011D922A95E9F76B
:1018C00000E81AE126E030E040E052E16AE770E02B
:1018D0000E9415017E01BDE3EB0EF11CC7010E94C1
:1018E00045068E01085D1F4FC8010E940805FE01D4
:1018F00031966F01CF010E94CC066DE1C8010E94B4
:101900003B05B82CA92C9E2C8F2C702E612EFC2C04
:10191000ED2C811108C063E5C8010E943B058111CF
:1019200002C010921D0167E78F2D9E2D0E94930724
:10193000811109C066E78F2D9E2D0E9493078111AA
:1019400002C010921C01892D982D0E9483028B2DBC
:101950009A2D0E9428046AE08F2D9E2D0E94A800D7
:1019600060E072E18AE790E00E94C6047894F894FF
:1019700080916500886080936500FFEF27E833E180
:10198000F15020403040E1F700C000008091650038
:10199000877F8093650078940E94E90423966CAF5A
:1019A0007DAF8EAF9FAF239780912A0190912B013D
:1019B000A0912C01B0912D0123962CAD3DAD4EADE3
:1019C0005FAD2397281B390B4A0B5B0BDA01C9016A
:1019D0008B359105A105B10580F060E071E08B2D9C
:1019E0009A2D0E94C4030E94E90460932A01709317
:1019F0002B0180932C0190932D010E94E9042396E2
:101A00006CAF7DAF8EAF9FAF2397809126019091F1
:101A10002701A0912801B091290123962CAD3DAD5D
:101A20004EAD5FAD2397281B390B4A0B5B0BDA01D8
:101A3000C9018F3E9240A105B10580F06CE071E0D4
:101A4000892D982D0E9482060E94E9046093260148
:101A50007093270180932801909329010E94E90443
:101A600023966CAF7DAF8EAF9FAF239780912201FD
:101A700090912301A0912401B091250123962CADD2
:101A80003DAD4EAD5FAD2397281B390B4A0B5B0B69
:101A9000DA01C901893C9105A105B105A0F028E151
:101AA00031E044E151E060E171E08F2D9E2D0E9414
:101AB000140C0E94E9046093220170932301809327
:101AC0002401909325010E94E90423966CAF7DAF19
:101AD0008EAF9FAF239780911E0190911F01A0911F
:101AE0002001B091210123962CAD3DAD4EAD5FADEF
:101AF0002397281B390B4A0B5B0BDA01C901853F81
:101B00009140A105B105A0F028E031E044E051E0AA
:101B100060E071E0872D962D0E94A7050E94E904E0
:101B200060931E0170931F01809320019093210107
:101B30008091320190913301A0913401B09135012F
:101B40000196A11DB11D8093320190933301A093A2
:101B50003401B09335010E94E9041ECFA1E21A2E90
:101B6000AA1BBB1BFD010DC0AA1FBB1FEE1FFF1F41
:101B7000A217B307E407F50720F0A21BB30BE40B91
:101B8000F50B661F771F881F991F1A9469F76095D8
:101B90007095809590959B01AC01BD01CF01089592
:101BA0005058BB27AA270E94E80D0C94620F0E9490
:101BB000540F38F00E945B0F20F039F49F3F19F466
:101BC00026F40C94510F0EF4E095E7FB0C944B0FA8
:101BD000E92F0E94730F58F3BA176207730784073F
:101BE000950720F079F4A6F50C94950F0EF4E09586
:101BF0000B2EBA2FA02D0B01B90190010C01CA01C7
:101C0000A0011124FF27591B99F0593F50F4503E71
:101C100068F11A16F040A22F232F342F4427585F63
:101C2000F3CF469537952795A795F0405395C9F77B
:101C30007EF41F16BA0B620B730B840BBAF0915033
:101C4000A1F0FF0FBB1F661F771F881FC2F70EC0D2
:101C5000BA0F621F731F841F48F4879577956795A5
:101C6000B795F7959E3F08F0B0CF9395880F08F091
:101C70009927EE0F9795879508950E94270F08F4EE
:101C800081E008950E94560E0C94620F0E945B0F33
:101C900058F00E94540F40F029F45F3F29F00C9453
:101CA0004B0F51110C94960F0C94510F0E94730F0F
:101CB00068F39923B1F3552391F3951B550BBB277B
:101CC000AA2762177307840738F09F5F5F4F220FC0
:101CD000331F441FAA1FA9F335D00E2E3AF0E0E8B7
:101CE00032D091505040E695001CCAF72BD0FE2F01
:101CF00029D0660F771F881FBB1F26173707480795
:101D0000AB07B0E809F0BB0B802DBF01FF2793584C
:101D10005F4F3AF09E3F510578F00C944B0F0C94B6
:101D2000960F5F3FE4F3983ED4F3869577956795D9
:101D3000B795F7959F5FC9F7880F911D9695879581
:101D400097F90895E1E0660F771F881FBB1F6217A0
:101D500073078407BA0720F0621B730B840BBA0B5E
:101D6000EE1F88F7E09508950E94BB0E6894B111AC
:101D70000C94960F08950E947B0F88F09F5798F05F
:101D8000B92F9927B751B0F0E1F0660F771F881F80
:101D9000991F1AF0BA95C9F714C0B13091F00E949A
:101DA000950FB1E008950C94950F672F782F882731
:101DB000B85F39F0B93FCCF3869577956795B395C1
:101DC000D9F73EF490958095709561957F4F8F4F30
:101DD0009F4F0895E89409C097FB3EF49095809535
:101DE000709561957F4F8F4F9F4F9923A9F0F92FE1
:101DF00096E9BB279395F695879577956795B7955F
:101E0000F111F8CFFAF4BB0F11F460FF1BC06F5F44
:101E10007F4F8F4F9F4F16C0882311F096E911C056
:101E2000772321F09EE8872F762F05C0662371F077
:101E300096E8862F70E060E02AF09A95660F771F8B
:101E4000881FDAF7880F9695879597F90895990F67
:101E50000008550FAA0BE0E8FEEF16161706E80774
:101E6000F907C0F012161306E407F50798F0621B95
:101E7000730B840B950B39F40A2661F0232B242B6A
:101E8000252B21F408950A2609F4A140A6958FEF89
:101E9000811D811D089597F99F6780E870E060E0DB
:101EA00008959FEF80EC089500240A9416161706F3
:101EB00018060906089500240A941216130614063B
:101EC00005060895092E0394000C11F4882352F09E
:101ED000BB0F40F4BF2B11F460FF04C06F5F7F4F56
:101EE0008F4F9F4F089557FD9058440F551F59F03D
:101EF0005F3F71F04795880F97FB991F61F09F3FF7
:101F000079F087950895121613061406551FF2CF1F
:101F10004695F1DF08C0161617061806991FF1CF6F
:101F200086957105610508940895E894BB27662796
:101F30007727CB0197F908950E94AF0F0C94620F99
:101F40000E94540F38F00E945B0F20F0952311F08F
:101F50000C944B0F0C94510F11240C94960F0E946B
:101F6000730F70F3959FC1F3950F50E0551F629F5B
:101F7000F001729FBB27F00DB11D639FAA27F00DE2
:101F8000B11DAA1F649F6627B00DA11D661F829F09
:101F90002227B00DA11D621F739FB00DA11D621FEE
:101FA000839FA00D611D221F749F3327A00D611D0B
:101FB000231F849F600D211D822F762F6A2F1124ED
:101FC0009F5750409AF0F1F088234AF0EE0FFF1F20
:101FD000BB1F661F771F881F91505040A9F79E3F77
:101FE000510580F00C944B0F0C94960F5F3FE4F377
:101FF000983ED4F3869577956795B795F795E795CD
:102000009F5FC1F7FE2B880F911D9695879597F9D5
:102010000895FA01EE0FFF1F309621053105A1F159
:102020006115710561F48038BFE39B0749F168943D
:102030009038810561F08038BFEF9B0741F099230C
:102040004AF5FF3FE1053105210519F1E8940894AF
:10205000E795D901AA2329F4AB2FBE2FF85FD0F35F
:1020600010C0FF5F70F4A695E0F7F73950F019F053
:10207000FF3A38F49F779F930DD00F9007FC90584C
:10208000089546F00C94510F60E070E080E89FE303
:1020900008954FE79F775F934F933F932F930E944D
:1020A00004112F913F914F915F910E949C0F0C94CE
:1020B000611029F416F00C944B0F0C94950F0C94AE
:1020C000510F0E947B0FA8F39638A0F707F80F92E4
:1020D000E8942BE33AEA48EB5FE70E94B20F0F92D5
:1020E0000F920F924DB75EB70F920E944C11ECE821
:1020F000F0E00E9493104F915F91EF91FF91E59571
:10210000EE1FFF1F49F0FE57E0684427EE0F441F03
:10211000FA95E1F74195550B0E94C6100F9007FE06
:102120000C94BA100895DF93CF931F930F93FF92EF
:10213000EF92DF927B018C01689406C0DA2EEF01EA
:102140000E94AF0FFE01E894A5912591359145912C
:102150005591A6F3EF010E94E80DFE019701A80139
:10216000DA9469F7DF90EF90FF900F911F91CF9174
:10217000DF9108959B01AC0160E070E080E89FE38F
:102180000C94420E0C944B0F0C9480110E947B0F08
:10219000D8F39923C9F3940F511DA3F391505040E4
:1021A00094F059F0882332F0660F771F881F915002
:1021B0005040C1F79E3F51052CF7880F911D969511
:1021C000879597F908955F3FACF0983E9CF0BB2748
:1021D000869577956795B79508F4B1609395C1F7A3
:1021E000BB0F58F711F460FFE8CF6F5F7F4F8F4F41
:1021F0009F4FE3CF0C94960F16F00C9480110C9423
:10220000510F68940C944B0F0E947B0FA8F39923F5
:10221000C1F3AEF3DF93CF931F930F93FF92C92FB8
:10222000DD2788232AF02197660F771F881FDAF7AA
:1022300020E030E040E85FEB9FE3883920F0803E0B
:1022400038F021968F770E94D10DE4EBF0E004C0C6
:102250000E94D10DE1EEF0E00E9493108B01BE01CF
:10226000EC01FB2E6F5771097595771F880B990B41
:102270000E94EC0E28E132E741E35FE30E94AF0FDA
:10228000AF2D9801AE01FF900F911F91CF91DF917B
:102290000E94E80D0C94620FFA01DC01AA0FBB1F2B
:1022A0009B01AC01BF5728F42227332744275078DD
:1022B00020C0B75190F4AB2F002446953795279551
:1022C000011CA395D2F3002071F0220F331F441F8D
:1022D000B395DAF30ED00C94D00D61307105A0E8FF
:1022E0008A07B94630F49B01AC0166277727882717
:1022F0009078309621F02083318342835383089570
:102300009F3F31F0915020F4879577956795B79569
:10231000880F911D9695879597F90895F894FFCFAA
:1023200000000000000000000000000000000000AD
:102330000000000000000000000000000101F401A6
:0E2340000000C8000000EE0200005A0000007D
:00000001FF
