:100000000C9488000C94B2000C94B2000C94B200D2
:100010000C94B2000C94B2000C94B2000C94B20098
:100020000C94B2000C94B2000C94B2000C94B20088
:100030000C9441070C94B2000C94B2000C94B200E2
:100040000C94B2000C94B2000C94B2000C94B20068
:100050000C94B2000C94B2000C94B2000C94B20058
:100060000C94B2000C94B2000C94B2000C94B20048
:100070000C94B2000C94B2000C94AB020C94B2003D
:100080000C94B2000C94B2000C94B2000763423698
:10009000B79BD8A71A39685618AEBAAB558C1D3C19
:1000A000B7CC5763BD6DEDFD753EF6177231BF00DD
:1000B0000000803F08000000BE922449123EABAA17
:1000C000AA2ABECDCCCC4C3E00000080BEABAAAA72
:1000D000AA3E00000000BF000000803F00000000BA
:1000E00000084178D3BB4387D1133D190E3CC3BDF3
:1000F0004282AD2B3E68EC8276BED98FE1A93E4CA0
:1001000080EFFFBE01C4FF7F3F00000000009904A4
:1001100011241FBECFEFD0E1DEBFCDBF11E0A0E0C4
:10012000B1E0EAE7F0E300E00BBF02C007900D92F8
:10013000A231B107D9F723E0A2E1B1E001C01D92DD
:10014000A53BB207E1F710E0C8E8D0E004C0219772
:10015000FE010E949414C738D107C9F70E94DA0241
:100160000C943B180C940000CF92DF92EF92FF9218
:100170000F931F93CF93DF9300D000D00F92CDB792
:10018000DEB7C82E84E189830AE411E022E631E07B
:100190004EE551E06AE571E08EE693E00E94AB1215
:1001A0002091AC033091AD034091AE035091AF0369
:1001B000D80158966D917D918D919C915B970E948D
:1001C0009E14D62EE72EF82E9D83462F572F682F8C
:1001D000792F4093AC035093AD036093AE037093BB
:1001E000AF03B981B150B983B111D0CF8C2D90E05C
:1001F000A0E0B0E089839A83AB83BC83BC01CD01CE
:100200000E94B415262F372F482F592FD982EA8202
:10021000FB829D819C8369817A818B819C810E9474
:100220000A156093AC037093AD038093AE03909373
:10023000AF030F900F900F900F900F90DF91CF9121
:100240001F910F91FF90EF90DF90CF90089584322F
:1002500019F1909100019F3F09F44DC0911149C0DF
:100260008C32D9F58091A703873491F48091A8034B
:100270008E3411F0803561F48091A903873441F404
:100280008091AA03873421F48091AB038134F9F083
:100290008FEF809300010895109200011092A60341
:1002A0001092A4031092A3031092A2031092A5032C
:1002B0008CE0E2E1F1E0DF01982F1D929A95E9F7D9
:1002C000EEE1F1E0DF011D928A95E9F7089581E002
:1002D000809300018093A6030895E7EAF3E09181FB
:1002E0009083928191839381928394819383848379
:1002F0000895913009F008958C3271F09091A50322
:100300009330D1F0983019F1913061F0993098F331
:1003100082E08093A603EFCF8091A5038F5F809347
:10032000A5030895E091A4039E0F9093A403F0E029
:10033000EE5EFE4F80830895E091A30391E09E0F4F
:100340009093A303F0E0EE5EFE4F84870895E09162
:10035000A20391E09E0F9093A203F0E0EE5EFE4FA9
:10036000808F08950F931F93CF93DF93CDB7DEB7A0
:100370002C970FB6F894DEBF0FBECDBF0AE411E094
:1003800020E030E048EC52E4D8016D917D918D91F0
:100390009C910E94401669837A838B839C83698138
:1003A0007A818B819C810E947C15862F972FE1E3B7
:1003B000F1E09183808320E030E048EC52E4D80102
:1003C00014966D917D918D919C9117970E94401686
:1003D00069837A838B839C8369817A818B819C81F9
:1003E0000E947C15862F972F9093340180933301C0
:1003F00020E030E048EC52E4F801608571858285A8
:1004000093850E94401669837A838B839C836981DC
:100410007A818B819C810E947C15862F972F9093E7
:1004200036018093350120E030E048EC52E4D801F9
:100430001C966D917D918D919C911F970E94401605
:1004400069837A838B839C8369817A818B819C8188
:100450000E947C15862F972F909338018093370147
:1004600020E030E048EC52E4F8016089718982892B
:1004700093890E94401669837A838B839C83698168
:100480007A818B819C810E947C15862F972F909377
:100490003A0180933901D80154966D917D918D91E7
:1004A0009C9157970E947C156D837E838F839887DC
:1004B00060933B0170933C0180933D0190933E011A
:1004C00020E030E048EC52E4F801608D718D828DBF
:1004D000938D0E94401669837A838B839C83698104
:1004E0007A818B819C810E947C15862F972F909317
:1004F000400180933F010E94870769877A878B8735
:100500009C876093450170934601809347019093C7
:1005100048018091B00380934901809141019091FD
:100520004201A0914301B09144010196A11DB11D6A
:100530008093410190934201A0934301B093440101
:100540002C960FB6F894DEBF0FBECDBFDF91CF91D2
:100550001F910F9108951F920F920FB60F921124C1
:100560000BB60F922F933F934F935F936F937F93AD
:100570008F939F93AF93BF93EF93FF9380919C00D2
:100580000E9427018091B00381608093B003FF91A6
:10059000EF91BF91AF919F918F917F916F915F91FB
:1005A0004F913F912F910F900BBE0F900FBE0F9068
:1005B0001F901895CDB7DEB72F970FB6F894DEBF12
:1005C0000FBECDBFF894E4E6F0E0808188608083C0
:1005D0008AB388638ABB61E083E390E00E94CE0621
:1005E0009E012F5F3F4F79018AE0D9011D928A95C4
:1005F000E9F71B86CE010B960E942507CE010B96CC
:100600000E94250700E81AE126E030E040E052E1D0
:100610006AE770E0C7010E94CB040E942C1460E0DE
:1006200072E18AE790E00E946407789468949924C4
:1006300093F80F2EF0E68F2EF02D6894AA24A4F8DC
:100640000F2EF4E6CF2ED12CF02D0F2EFAE0BF2E78
:10065000F02D21C063E585E993E00E94530B8111E1
:100660004DC08091B0038F7B8093B00347C066E795
:100670008EE693E00E94E20D811148C08091B003A4
:100680008F7B8093B00342C080EA93E00E946206B1
:100690008B2D0E94B4008091B003803609F44DC0C8
:1006A000ABBAD6018C9188608C938AB388638ABB7D
:1006B00061E083E390E00E94CE06F7012B2D1192BA
:1006C0002A95E9F71B86CE010B960E942507CE01DD
:1006D0000B960E94250700E81AE126E030E040E092
:1006E00052E16AE770E0C7010E94CB046DE185E941
:1006F00093E00E94530B882309F4ACCF67E78EE6A2
:1007000093E00E94E20D882309F4B1CF86E691E0E0
:100710000E943B0A811105C08091B0038F7D8093B8
:10072000B00381EA93E00E94A7138111ADCF8091BD
:10073000B0038F7D8093B003A7CF9BBA0E94870739
:100740006C877D878E879F8780910D0190910E0128
:10075000A0910F01B09110012C853D854E855F85DC
:10076000281B390B4A0B5B0B2B303105410551051A
:10077000C8F08091A603823009F48AC00E94B201B9
:1007800061E371E081EA93E00E9442130E948707CF
:1007900060930D0170930E0180930F0190931001EF
:1007A0008092B0030E9487076C877D878E879F8722
:1007B0008091090190910A01A0910B01B0910C0167
:1007C0002C853D854E855F85281B390B4A0B5B0BBD
:1007D000DA01C90183309340A105B10508F05FC07B
:1007E0000E9487076C877D878E879F878091050190
:1007F00090910601A0910701B09108012C853D85DB
:100800004E855F85281B390B4A0B5B0B2333310563
:100810004105510508F059C00E9487076C877D8704
:100820008E879F878091010190910201A091030121
:10083000B09104012C853D854E855F85281B390BC1
:100840004A0B5B0B2A3131054105510508F057C0B1
:100850000E9487076C877D878E879F87DC01CB018D
:1008600084569109A109B10985369105A105B10503
:1008700008F411CF49E150E061E371E086E691E0D0
:100880000E94B70A8091B00380618093B00303CFC8
:1008900062E171E081EA93E00E94421377CF66E55E
:1008A00071E080EA93E00E94980C0E9487076093B1
:1008B000090170930A0180930B0190930C018091C0
:1008C000B00382608093B0038BCF22E631E04EE527
:1008D00051E06AE571E08EE693E00E94AB120E945F
:1008E0008707609305017093060180930701909339
:1008F00008018091B00384608093B0038DCF22E51E
:1009000031E04EE451E06AE471E085E993E00E9451
:10091000AB0B0E94870760930101709302018093E3
:100920000301909304018091B00388608093B00329
:100930008FCF81EA93E00E94D01280EA93E00E9478
:100940004F0C85E993E00E941B0B8EE693E00E941A
:10095000ED0C1092660186E691E00E942507109248
:100960006803109267031092690310926A03109251
:100970006B0310926C038FEF80936D03E7E6F1E059
:1009800080E092E0DF019C011D9221503040E1F7B0
:100990001092300108950F931F93E82FF92F42838F
:1009A000538364837583068317832087318780E2AE
:1009B0008093700010927100A4E7B0E08C91846085
:1009C0008C9381E080831F910F910895A82FB92FF8
:1009D00084EA80937400E4E7F0E080818823ECF7F8
:1009E00081E011968C93089524E920937400FC0112
:1009F000118281E00895DC01E4E7F0E090819B7FC3
:100A000090831C9281E008956093730084E8809342
:100A10007400E4E7F0E080818823ECF780917100B6
:100A2000887F883169F080917100887F883251F029
:100A300090917100987F81E0903429F080E00895D2
:100A400081E0089581E00895A62FB72F4423C9F0CF
:100A5000E4E7F0E080818064808384E88093740020
:100A6000E4E7F0E080818823ECF780917100887FD3
:100A7000883569F080917100887F803541F080E091
:100A80000895E4E7F0E080818F7B8083E6CF80915A
:100A900073008C9381E0089580E4689FB001112475
:100AA000646860937400E4E7F0E080818823ECF7E9
:100AB0008091730008955F926F927F928F929F92C0
:100AC000AF92BF92CF92DF92EF92FF920F931F935C
:100AD000CF93DF93A82EB92EC62FD42FC22EC501D7
:100AE0000E94E6046C2F660FC5010E9404056D2F5D
:100AF000C5010E94040584E980937400F501118208
:100B0000C5010E94E6046C2F660F6160C5010E945A
:100B100004058C2D8150990B6C01181619060CF0E8
:100B200064C010E0712C812C912CE12CF12C00E0A0
:100B3000512C612CC0E0D0E061E0C5010E944C0561
:100B400090E0CC0FDD1FCC0FDD1FCC0FDD1F02C0EE
:100B5000880F991FCA95E2F7292F220F220B782AB6
:100B6000892A922AE22AF22A022B522A622A1F5F3B
:100B7000C12FD0E0CC15DD05FCF260E0C5010E947C
:100B80004C0594E990937400F501118290E0CC0C2F
:100B9000DD1CCC0CDD1CCC0CDD1C02C0880F991FA9
:100BA000CA94E2F7E92FEE0FEE0B272D282B382DF4
:100BB000392B4E2F49295E2F5E296E2F6F297E2FEC
:100BC000702B8E2F85299E2F9629DF91CF911F9113
:100BD0000F91FF90EF90DF90CF90BF90AF909F90DC
:100BE0008F907F906F905F900895712C812C912C45
:100BF000E12CF12C00E0512C612CBFCFBF92CF92A1
:100C0000DF92EF92FF920F931F93CF93DF93F82E13
:100C1000E92ED62EB42EC22EC02FD12F0E94E6046C
:100C2000DD0C6D2D8F2D9E2D0E9404056B2D8F2DBB
:100C30009E2D0E9404058F2D9E2D0E94E60461E0EA
:100C40006D0D8F2D9E2D0E940405CC2069F08E0124
:100C50000C0D111D41E0BE018F2D9E2D0E9424051B
:100C600021960C171D07B1F7DF91CF911F910F91BE
:100C7000FF90EF90DF90CF90BF900895FF920F9379
:100C80001F93CF93DF93C82FD92F162FF42E022F47
:100C9000CE010E94E604612F660FCE010E9404057A
:100CA0006F2DCE010E940405602FCE010E94040525
:100CB00084E9809374001982DF91CF911F910F9185
:100CC000FF9008958F9A21E0FC0120830895979862
:100CD0008F9A8FEB93E00197F1F700C000008F9897
:100CE00090EA9A95F1F780B3E7E4F3E03197F1F7F2
:100CF00000C000008078089597988F9A82E08A95C6
:100D0000F1F700C08F9895E29A95F1F7000080B353
:100D100098E79A95F1F7881F8827881F0895979874
:100D20008F9A82E08A95F1F700C061118F9880EA6E
:100D30008A95F1F78F9808950F931F93CF93DF93C0
:100D4000082F192FD8E0C0E0C695802F912F0E9460
:100D50007C0620E8829FC0011124C82BD150D111FC
:100D6000F3CF8C2FDF91CF911F910F9108950F93A7
:100D70001F93CF93DF93082F192FC62FD8E06C2F26
:100D80006170802F912F0E948F06C695D150D1118E
:100D9000F6CFDF91CF911F910F910895611109C096
:100DA00089B91092900086E08093950088E98AB90D
:100DB0000895909398008093990088E980939A0011
:100DC0008EE080939D0008955D9903C08CB95D9B72
:100DD000FDCF80E090E008955F9BFECF8CB190E066
:100DE000089590919B0095FD08C0ACE9B0E0EBE957
:100DF000F0E08C93908195FFFCCFF894E5E6F0E06D
:100E00008081886080832FEF80E792E021508040CE
:100E10009040E1F700C000008081877F80832FEF42
:100E200080E792E0215080409040E1F700C0000050
:100E3000789480E090E00895EBE9F0E080818823E9
:100E4000ECF780919C0090E00895FC0197B39760C7
:100E500097BB98B39F6098BB81E58DB91EB881E0C0
:100E6000808308956FB9779BFECF08958FEF8FB978
:100E7000779BFECF8FB108956FB9779BFECF8FB16F
:100E800008951F921FB61F9211248F939F93AF93C3
:100E9000BF938091B1039091B203A091B303B0913D
:100EA000B4030196A11DB11D8093B1039093B203C9
:100EB000A093B303B093B403BF91AF919F918F916F
:100EC0001F901FBE1F901895CF93DF9300D000D0C6
:100ED000CDB7DEB769837A838B839C8320E43FE1BF
:100EE00040E050E00E9472148EB58A608EBDBB2730
:100EF000A52F942F832F8BBD2ABD87B7806187BF15
:100F00000F900F900F900F90DF91CF910895CF9396
:100F1000DF9300D000D0CDB7DEB7F8948091B10355
:100F20009091B203A091B303B091B40389839A83E3
:100F3000AB83BC83789469817A818B819C810F908B
:100F40000F900F900F90DF91CF9108951F93CF9343
:100F5000DF93182FD92FA99A8FE19EE40197F1F71B
:100F600000C000006FEF812F9D2F0E943C07A99ABF
:100F7000C0E56FEF812F9D2F0E943C07C150C1112A
:100F8000F8CFDF91CF911F910895CF92DF92EF922A
:100F9000FF920F93CF93DF93D82FC92FC22ED32E5A
:100FA000E42EF52E60640E943C076F2D772788277A
:100FB00099278D2F9C2F0E943C07B70188279927DE
:100FC0008D2F9C2F0E943C0799278F2D7E2D6D2DF4
:100FD0008D2F9C2F0E943C076C2D8D2F9C2F0E94E3
:100FE0003C07602F61608D2F9C2F0E943C07DF9192
:100FF000CF910F91FF90EF90DF90CF9008951F93C6
:10100000CF93DF93182FD92FC9E06FEF812F9D2F3A
:101010000E943C078F3F19F4C150C111F6CFDF91F8
:10102000CF911F9108950F931F93CF93DF93082FB4
:10103000192FC62FD72F0E94FF0788836FEF802FAD
:10104000912F0E943C078983DF91CF911F910F91CF
:101050000895EF92FF920F931F93CF93DF93F82E93
:10106000E92EC62FD72F0FEF040F442381F010E095
:101070000F5F1F4F0C0F1D1F6FEF8F2D9E2D0E94B6
:101080003C07FE0121968083C017D107A9F7DF91A5
:10109000CF911F910F91FF90EF9008950F931F93A1
:1010A000CF93DF93082F192FC62FD72F0E94FF074A
:1010B0008883823028F0DF91CF911F910F9108959E
:1010C000BE016F5F7F4F44E0802F912F0E9429085F
:1010D000F2CF0F931F93CF93DF93082F192FC62FB3
:1010E000D72F0E94FF078883823028F0DF91CF91AD
:1010F0001F910F910895BE016F5F7F4F44E0802FD5
:10110000912F0E942908F2CF0F931F93CF93DF9363
:10111000D82FC92F6FEF0E943C07A9986FEF8D2F32
:101120009C2F0E943C0704E920E030E0A90160E028
:101130008D2F9C2F0E94C5078D2F9C2F0E94FF078B
:10114000182F6FEF8D2F9C2F0E943C07A99A6FEFED
:101150008D2F9C2F0E943C07812FDF91CF911F91F3
:101160000F910895FF920F931F93CF93DF93D82F82
:10117000C92FF62E172F6FEF0E943C07A9986FEF2B
:101180008D2F9C2F0E943C0706E82AEA31E040E0C0
:1011900050E068E08D2F9C2F0E94C5076F2D712FA6
:1011A0008D2F9C2F0E9469086FEF8D2F9C2F0E941E
:1011B0003C07A99A6FEF8D2F9C2F0E943C07DF916F
:1011C000CF911F910F91FF900895FF920F931F935E
:1011D000CF93DF93D82FC92FF62E172F6FEF0E94D2
:1011E0003C07A9986FEF8D2F9C2F0E943C0700E0D1
:1011F00020E030E0A9016DE08D2F9C2F0E94C507F3
:101200006F2D712F8D2F9C2F0E9413086FEF8D2F44
:101210009C2F0E943C07A99A6FEF8D2F9C2F0E9454
:101220003C07DF91CF911F910F91FF9008958F920E
:101230009F92AF92BF92CF92DF92EF92FF920F9365
:101240001F93CF93DF93E82EF92E842E952ED62F61
:10125000C72FC22ED32EA02EB12E8FEFF501808383
:101260006FEF8E2D0E943C07A9986FEF8E2D9F2D5A
:101270000E943C0700E0282D392D4D2F5C2F68E19E
:101280008E2D9F2D0E94C5078E2D9F2D0E94FF073A
:10129000182F8823C9F06FEF8E2D9F2D0E943C07D9
:1012A000A99A6FEF8E2D9F2D0E943C07812FDF9111
:1012B000CF911F910F91FF90EF90DF90CF90BF9053
:1012C000AF909F908F9008956EEF8E2D9F2D0E946E
:1012D0003C07E601C6019E5F6C0169918E2D9F2D32
:1012E0000E943C07CC15DD05C1F7C3E4DFE0219780
:1012F000209789F26FEF8E2D9F2D0E943C078F3F24
:10130000B1F38F71853021F08FEFF5018083C3CF6A
:1013100085E0F5018083C3E4DFE06FEF8E2D9F2D24
:101320000E943C078111B7CF21972097B1F7F501B3
:101330001082B1CFDF92EF92FF920F931F93CF9362
:10134000DF93F82E192FD62EE72E6FEF0E943C0761
:10135000A9986FEF8F2D912F0E943C07C2EDD7E027
:101360008F3F51F06FEF8F2D912F0E943C078F3FE1
:1013700019F021972097B1F700E020E030E0A901B3
:101380006AE38F2D912F0E94C5076D2D7E2D8F2D25
:10139000912F0E944E086FEF8F2D912F0E943C07D6
:1013A000A99A6FEF8F2D912F0E943C07DF91CF916B
:1013B0001F910F91FF90EF90DF9008950F931F936F
:1013C000CF93DF93D82FC92F6FEF0E943C07A998C6
:1013D0006FEF8D2F9C2F0E943C0700E020E030E053
:1013E000A90167E38D2F9C2F0E94C5078D2F9C2F8D
:1013F0000E94FF07182F6FEF8D2F9C2F0E943C0734
:10140000A99A6FEF8D2F9C2F0E943C07812FDF91AF
:10141000CF911F910F9108950F931F93CF93DF9357
:10142000D82FC92F6FEF0E943C07A9986FEF8D2F1F
:101430009C2F0E943C0700E020E030E040E050E4B8
:1014400069E28D2F9C2F0E94C5078D2F9C2F0E9433
:10145000FF07182F6FEF8D2F9C2F0E943C07A99A32
:101460006FEF8D2F9C2F0E943C07812FDF91CF9132
:101470001F910F910895EF92FF920F931F93CF93B7
:10148000DF9300D000D00F92CDB7DEB7F82EE92E53
:10149000A19A0E94A60710E08F2D9E2D0E9484081D
:1014A0008983813021F011501111F6CF3EC08FECAD
:1014B00097E00197F1F700C00000BE016F5F7F4F1A
:1014C0008F2D9E2D0E94B2081981113069F58D81F2
:1014D00000E08A3A71F010E028C08FEC97E00197A5
:1014E000F1F700C000000F5F8981882379F00F3F7A
:1014F00049F18F2D9E2D0E94DE098983823068F785
:101500008F2D9E2D0E940C0A8983E7CF8FEC97E0E8
:101510000197F1F700C00000BE016F5F7F4F8F2D74
:101520009E2D0E949A0901C010E0812F0F900F900C
:101530000F900F900F90DF91CF911F910F91FF901F
:10154000EF90089510E0F1CFFC01ED5FFD4F408377
:101550005183628373830895FC01319680E092E0A9
:10156000DF019C011D9221503040E1F708958F92D8
:101570009F92AF92BF92CF92DF92EF92FF920F9322
:101580001F93CF93DF93C82FD92FC62ED72EE42ECB
:10159000F52EFE01EF5FFD4F808191818E0D9F1D25
:1015A00081159240A8F4CE010196A7018E0D9F1DD2
:1015B0000E94321880E0DF91CF911F910F91FF9030
:1015C000EF90DF90CF90BF90AF909F908F90089555
:1015D0004E018FEF881A980A8E01095F1D4F5E0138
:1015E000EDEFAE1ABE0AF50140815181628173812F
:1015F0009401CE010E941709F50180819181A28199
:10160000B3810196A11DB11D80839183A283B38311
:101610003297F182E082CE010E94AC0AA7016C2DC4
:101620007D2DC4010E94321881E0C5CFFC01E95F25
:10163000FD4F80810895FC0131968AE0DF011D9203
:101640008A95E9F708950F931F93CF93DF930F9235
:10165000CDB7DEB71982E82FF92F8E010F5F1F4F2C
:1016600021E040E06191CF010E94FE0581E0998177
:10167000953E09F080E00F90DF91CF911F910F917F
:101680000895E82FF92F2BE041E36191CF010E94EB
:101690003E060895E82FF92F28E04DE26191CF0131
:1016A0000E943E060895CF93DF93C82FD92F6883F9
:1016B000CE010E94230B811103C0DF91CF910895C9
:1016C000CE0128E04CE2FC016191CF010E943E0670
:1016D000CE010E94410BCE010E944A0B81E0EDCF6A
:1016E000AF92BF92CF92DF92EF92FF920F931F9330
:1016F000CF93DF93082F192FA62EB72EC42ED52EE9
:10170000E22EF32EE80122E042E36991CE010E942D
:101710005B05F5012083318322E044E3F801608119
:10172000CE010E945B05F6012083318322E046E36F
:10173000F8016081CE010E945B05F70120833183AF
:10174000DF91CF911F910F91FF90EF90DF90CF909D
:10175000BF90AF900895AF92BF92CF92DF92EF9279
:10176000FF920F931F93CF93DF93CDB7DEB72A97E6
:101770000FB6F894DEBF0FBECDBF082F192FA62ECF
:10178000B72EC42ED52EE22EF32E9E012B5F3F4F97
:10179000AE014D5F5F4FBE016F5F7F4F0E94700BC8
:1017A00089819A819C01990F440B550B2F833887AF
:1017B00049875A87CA01B9010E94B4152DEC3CEC47
:1017C0004CE15DE36F83788789879A876F8178859D
:1017D00089859A850E944016D5016D937D938D93DE
:1017E0009C9313978B819C819C01990F440B550B03
:1017F0002F83388749875A87CA01B9010E94B415D7
:101800002DEC3CEC4CE15DE36F83788789879A8708
:101810006F81788589859A850E944016D6016D93DF
:101820007D938D939C9313978D819E819C01990F3D
:10183000440B550B2F83388749875A87CA01B90152
:101840000E94B4152DEC3CEC4CE15DE36F8378878E
:1018500089879A876F81788589859A850E94401645
:10186000D7016D937D938D939C931397E02FF12F68
:1018700028E04DE26191CF010E943E062A960FB604
:10188000F894DEBF0FBECDBFDF91CF911F910F91B6
:10189000FF90EF90DF90CF90BF90AF900895E82F2A
:1018A000F92F1082CF010E9462060895CF93DF9333
:1018B000D82FC92F0E9467066CEC8D2F9C2F0E9499
:1018C000B70664E48D2F9C2F0E94B706DF91CF915D
:1018D00008950F931F93CF93DF93082F192FC62FCF
:1018E000D72F802F912F0E947C068823D1F3802F41
:1018F000912F0E9467066CEC802F912F0E94B706F3
:101900006EEB802F912F0E94B706802F912F0E949F
:101910009C068883802F912F0E949C068983802FAC
:10192000912F0E946706DF91CF911F910F9108952B
:10193000EF92FF920F931F93CF93DF9300D000D0CD
:1019400000D0CDB7DEB7082F192FE62EF72EBE0137
:101950006F5F7F4F0E94690C9A8189819C01990F6A
:10196000440B550B2B833C834D835E83CA01B90125
:101970000E94B41520E030E040E85DE36B837C8397
:101980008D839E836B817C818D819E810E94401618
:1019900020E030E040E05DE36B837C838D839E83B9
:1019A0006B817C818D819E810E949E14D7016D93F5
:1019B0007D938D939C931397802F912F0E94560CAB
:1019C0000F900F900F900F900F900F90DF91CF918D
:1019D0001F910F91FF90EF900895E82FF92F148237
:1019E0001382108E178A7D968AE0DF011D928A95F8
:1019F000E9F70895E82FF92F242F462F6081CF01B2
:101A00004D960E943E0608950F931F93CF93DF9348
:101A10000F92CDB7DEB7E82FF92F462F8E010F5F5B
:101A20001F4F21E06081CF014D960E94FE05898104
:101A30000F90DF91CF911F910F9108950F931F93F6
:101A4000CF93DF9300D000D000D00F92CDB7DEB798
:101A5000E82FF92F462F8E010F5F1F4F23E0608183
:101A6000CF014D960E94FE05898190E0A0E0B0E094
:101A7000BA2FA92F982F88272A81822BBA2FA92F16
:101A8000982F88272B81AC01BD01422B4C835D83AD
:101A90006E837F83CB01BA0127960FB6F894DEBF21
:101AA0000FBECDBFDF91CF911F910F9108958F92FF
:101AB0009F92AF92BF92CF92DF92EF92FF92E82F68
:101AC000F92F462F22E06081CF014D960E945B05E1
:101AD000932E922F892DFF90EF90DF90CF90BF90A3
:101AE000AF909F908F9008950F931F93CF93DF93A4
:101AF000C82FD92F8E01035E1F4F22E048E867E709
:101B0000C8010E945B0529833A8322E04AE867E71F
:101B1000C8010E945B052D833E8322E04CE867E705
:101B2000C8010E945B052F83388722E04EE867E7F3
:101B3000C8010E945B052B833C8322E040E967E7F4
:101B4000C8010E945B0529873A8722E042E967E7DE
:101B5000C8010E945B052B873C8722E044E967E7C8
:101B6000C8010E945B052D873E8722E046E967E7B2
:101B7000C8010E945B052F87388B22E048E967E7A0
:101B8000C8010E945B05298B3A8B22E04AE967E78E
:101B9000C8010E945B052B8B3C8B22E04CE967E778
:101BA000C8010E945B052D8B3E8B22E04EE967E762
:101BB000C8010E945B052F8B388FDF91CF911F9159
:101BC0000F910895CF93DF93C82FD92F688360EDCD
:101BD000CE010E94040D883521F080E0DF91CF9185
:101BE0000895CE010E94740D48E665EFCE010E9473
:101BF000FA0C4DEF64EFCE010E94FA0C2FEF82E158
:101C000091E0215080409040E1F700C0000081E069
:101C1000E5CF6F927F928F929F92AF92BF92CF92B9
:101C2000DF92EF92FF920F931F93CF93DF93CDB785
:101C3000DEB72A970FB6F894DEBF0FBECDBF8D83F7
:101C40009E836AEF8D819E810E941E0D9B01AC01D7
:101C5000689413F855954795379527951694D1F7BD
:101C600029833A834B835C83CA01B9010E94B4156E
:101C7000A62EB72EC82ED92EAD81BE8111968D917C
:101C80009C919C0140E050E029833A834B835C8324
:101C9000CA01B9010E94B215E62EF72E082F192F9E
:101CA00020E030E040E057E3A982BA82CB82DC82B8
:101CB00069817A818B819C810E944016662E772EE5
:101CC000882E992E20E030E040E059E3E982FA8244
:101CD0000B831C8369817A818B819C810E944016D1
:101CE000262F372F482F592F69827A828B829C8228
:101CF00069817A818B819C810E949D14662E772E4A
:101D0000882E992E20E030E040E858E3A982BA827C
:101D1000CB82DC8269817A818B819C810E94401612
:101D2000A62EB72EC82ED92E20E030E040E85AE388
:101D3000E982FA820B831C8369817A818B819C8181
:101D40000E944016262F372F482F592FA982BA827A
:101D5000CB82DC8269817A818B819C810E949D1477
:101D6000E62EF72E082F192FAD81BE8115968D9185
:101D70009C919C01990F440B550B29833A834B830B
:101D80005C83CA01B9010E94B415262F372F482F52
:101D9000592FE982FA820B831C8369817A818B81B6
:101DA0009C810E944016E62EF72E082F192FAD8138
:101DB000BE8117968D919C919C01990F440B550BF8
:101DC00029833A834B835C83CA01B9010E94B4150D
:101DD000A62EB72EC82ED92E262D372D482D592D9B
:101DE00069827A828B829C8269817A818B819C81D3
:101DF0000E944016262F372F482F592FA982BA82CA
:101E0000CB82DC8269817A818B819C810E94401621
:101E1000262F372F482F592FE982FA820B831C83F4
:101E200069817A818B819C810E949E1469837A8367
:101E30008B839C8369817A818B819C810E947C1534
:101E40006F83788789879A87AD81BE8159966D9314
:101E50007D938D939C935C9720E030E040EA55E4BD
:101E600069817A818B819C810E940A1569837A83BA
:101E70008B839C8369817A818B819C812A960FB6A2
:101E8000F894DEBF0FBECDBFDF91CF911F910F91B0
:101E9000FF90EF90DF90CF90BF90AF909F908F908A
:101EA0007F906F9008952F923F924F925F926F9222
:101EB0007F928F929F92AF92BF92CF92DF92EF92DA
:101EC000FF920F931F93CF93DF93CDB7DEB7289781
:101ED0000FB6F894DEBF0FBECDBF8F839887062F55
:101EE000172FC42ED52E8F8198850E94090ED801F8
:101EF0006D937D938D939C93139767EF8F81988556
:101F00000E941E0D862E972EA82EB92EEF81F885E1
:101F1000618D728D838D948D0E94B41520E030E028
:101F200040E05FE369837A838B839C8369817A8154
:101F30008B819C810E94401620E030E04AE757E404
:101F400069837A838B839C8369817A818B819C816D
:101F50000E949D14E62EF72E082F192FAF81B88509
:101F600051968D919C919C01990F440B550B29839F
:101F70003A834B835C83CA01B9010E94B415462E93
:101F8000572E682E792E2E2D3F2D402F512FE9826E
:101F9000FA820B831C8369817A818B819C810E94E8
:101FA0004016262F372F482F592F49825A826B828D
:101FB0007C8269817A818B819C810E94401620E01D
:101FC00030E040E058E369837A838B839C836981A6
:101FD0007A818B819C810E944016462E572E682E56
:101FE000792EAF81B8851F968D919C919C01990F98
:101FF000440B550B29833A834B835C83CA01B90197
:102000000E94B4152E2D3F2D402F512F69837A83C6
:102010008B839C8369817A818B819C810E9440168D
:10202000262F372F482F592F69837A838B839C83E0
:1020300069817A818B819C810E949E14242D352D8B
:10204000462D572D69837A838B839C8369817A819E
:102050008B819C810E949E1420E030E040E85EE38A
:1020600069837A838B839C8369817A818B819C814C
:102070000E944016662E772E8D839E83AF81B88591
:102080001B968D919C919C01990F440B550B2983B4
:102090003A834B835C83CA01B9010E94B4152E2D8B
:1020A0003F2D402F512F69837A838B839C836981D5
:1020B0007A818B819C810E9440162E2D3F2D402FCE
:1020C000512F69837A838B839C8369817A818B8189
:1020D0009C810E94401620E030E040E056E3698396
:1020E0007A838B839C8369817A818B819C810E9416
:1020F0004016262E372E482E592EAF81B8851996B8
:102100008D919C919C01990F440B550B29833A8327
:102110004B835C83CA01B9010E94B4152E2D3F2D5B
:10212000402F512F69837A838B839C8369817A81C5
:102130008B819C810E944016262F372F482F592FC4
:1021400029823A824B825C8269817A818B819C816F
:102150000E949E1420E030E040E056E369837A83D9
:102160008B839C8369817A818B819C810E9440163C
:1021700020E030E040E058E369837A838B839C83DE
:1021800069817A818B819C810E94401620E030E039
:1021900040E85FE369837A838B839C8369817A81DA
:1021A0008B819C810E949E14462E572EE82EF92E7C
:1021B000D501C401689413F8B595A79597958795AF
:1021C0001694D1F789839A83AB83BC83BC01CD017C
:1021D0000E94B415262F372F482F592F60E070E04A
:1021E00080E899E40E949D14A62EB72E082F192F7F
:1021F000AF81B8851D968D919C919C01990F440BE0
:10220000550B29833A834B835C83CA01B9010E9431
:10221000B41520E030E040E857E469837A838B838B
:102220009C8369817A818B819C810E944016262D36
:10223000372D4D815E8169837A838B839C8369818D
:102240007A818B819C810E949E1420E030E040E8DE
:1022500059E369837A838B839C8369817A818B813B
:102260009C810E944016262F372F482F592FA98274
:10227000BA820B831C8369817A818B819C810E9445
:102280009D1420E030E543EC55E469837A838B8329
:102290009C8369817A818B819C810E944016A62E45
:1022A000B72E082F192FAF81B88513968D919C9169
:1022B0009C0140E050E029833A834B835C83CA0150
:1022C000B9010E94B215242D352D4E2D5F2D698345
:1022D0007A838B839C8369817A818B819C810E9424
:1022E0004016262F372F482F592FA982BA820B83E9
:1022F0001C8369817A818B819C810E940A15E62E5C
:10230000F72E082F192FAF81B88557968D919C9184
:102310009C01990F440B550B29833A834B835C83B3
:10232000CA01B9010E94B4152E2D3F2D402F512F07
:1023300069837A838B839C8369817A818B819C8179
:102340000E9440162E2D3F2D402F512F69837A83F6
:102350008B839C8369817A818B819C810E9440164A
:1023600020E030E040E050E369837A838B839C83F4
:1023700069817A818B819C810E944016862E972EDE
:10238000A82EB92EAF81B88555968D919C919C0150
:10239000990F440B550B29833A834B835C83CA0105
:1023A000B9010E94B4152E2D3F2D402F512F698366
:1023B0007A838B839C8369817A818B819C810E9443
:1023C000401620E030E040E058E369837A838B8355
:1023D0009C8369817A818B819C810E944016262F83
:1023E000372F482F592F89829A82AB82BC8269810C
:1023F0007A818B819C810E949E14862E972EA82E16
:10240000B92EAF81B88553968D919C919C01990FFF
:10241000440B550B29833A834B835C83CA01B90172
:102420000E94B415262F372F482F592F89829A8260
:10243000AB82BC8269817A818B819C810E949E14CF
:1024400020E030E040E85DE369837A838B839C83FE
:1024500069817A818B819C810E9440162E2D3F2DAF
:10246000402F512F69837A838B839C8369817A8182
:102470008B819C810E949E14D6016D937D938D93D8
:102480009C93139728960FB6F894DEBF0FBECDBF6E
:10249000DF91CF911F910F91FF90EF90DF90CF9040
:1024A000BF90AF909F908F907F906F905F904F9074
:1024B0003F902F900895CF93DF93CDB7DEB72A9743
:1024C0000FB6F894DEBF0FBECDBF4D835E8320E80C
:1024D00036EE45EC57E4DB016D917D918D919C9139
:1024E0000E940A1522E63BED42E45EE369837A83AB
:1024F0008B839C8369817A818B819C810E94AD163C
:10250000262F372F482F592F60E070E080E89FE397
:102510000E949D1420E03AE24DE257E469837A83F9
:102520008B839C8369817A818B819C810E94401678
:102530006F83788789879A87ED81FE8160837183B5
:10254000828393832A960FB6F894DEBF0FBECDBF69
:10255000DF91CF910895EF92FF920F931F93CF9346
:10256000DF93C82FD92F042F152FE22EF32ECE0183
:102570000E94530F4E2D5F2D602F712FCE010E94B0
:102580005B122DEF44EF6881CE014D960E943E060E
:1025900081E0DF91CF911F910F91FF90EF9008950F
:1025A0000F931F93CF93DF930F92CDB7DEB7082F12
:1025B000192FF8011082C8010E9425071982CE0147
:1025C00001960E9425078981F8018083BC9A0F90AB
:1025D000DF91CF911F910F9108951F93CF93DF93B8
:1025E000D82FC92F142FC09860620E943C07612F1A
:1025F0008D2F9C2F0E943C07C09ADF91CF911F9195
:102600000895EF92FF920F931F93CF93DF93F82ECD
:10261000E92EC42FD52F122FC09860620E943C076C
:102620000FEF010F112379F010E00F5F1F4F0C0F18
:102630001D1FFE01219660818F2D9E2D0E943C075B
:10264000C017D107B1F7C09ADF91CF911F910F91B9
:10265000FF90EF900895CF93DF93D82FC92FC098A4
:102660006F710E943C076FEF8D2F9C2F0E943C07DB
:10267000C09ADF91CF910895C09861EE0E943C0707
:10268000C09A0895EF92FF920F931F93CF93DF9319
:10269000082F192FC62FD72FC4980E943C1340E350
:1026A00067E0802F912F0E94ED12C09860EA802F82
:1026B000912F0E943C077E0180E2E80EF11CFE0192
:1026C00021966081802F912F0E943C07EC16FD0619
:1026D000B1F7C09AC49ADF91CF911F910F91FF90EB
:1026E000EF900895EF92FF920F931F93CF93DF9394
:1026F000CDB7DEB728970FB6F894DEBF0FBECDBFBB
:10270000E82EF92E09831A832B833C834D835E8345
:102710006F83788725E0AE014F5F5F4F6AE00E94CC
:10272000011325E0AE014F5F5F4F60E18E2D9F2DBD
:102730000E94011328960FB6F894DEBF0FBECDBFDE
:10274000DF91CF911F910F91FF90EF9008950F931C
:102750001F93CF93DF93D82FC92F4EE060E00E94E4
:10276000ED124FE361E08D2F9C2F0E94ED1240E0AF
:1027700062E08D2F9C2F0E94ED1243E063E08D2FCD
:102780009C2F0E94ED124FEF64E08D2F9C2F0E9432
:10279000ED124CE565E08D2F9C2F0E94ED1246E076
:1027A00066E08D2F9C2F0E94ED1240E767E08D2F91
:1027B0009C2F0E94ED1244E161E18D2F9C2F0E941D
:1027C000ED1244E162E18D2F9C2F0E94ED1244E155
:1027D00063E18D2F9C2F0E94ED1244E164E18D2F67
:1027E0009C2F0E94ED1244E165E18D2F9C2F0E94E9
:1027F000ED1244E166E18D2F9C2F0E94ED1240E026
:1028000067E18D2F9C2F0E94ED1240E06CE18D2F2F
:102810009C2F0E94ED1243E06DE18D2F9C2F0E94B2
:10282000ED1208E718E728E738E748E750E060E0EE
:1028300070E08D2F9C2F0E94721360E08D2F9C2FD3
:102840000E942B13982F81E09E3009F080E0DF91E9
:10285000CF911F910F9108956DE185E993E00E945A
:10286000530B882329F167E78EE693E00E94E20D7F
:10287000882359F186E691E00E943B0A811105C048
:102880008091B0038F7D8093B00381EA93E00E9432
:10289000A713811105C08091B0038F7D8093B00391
:1028A00080EA93E00E9462068AE00E94B4000895E4
:1028B00063E585E993E00E94530B8111D4CF8091A9
:1028C000B0038F7B8093B003CECF66E78EE693E0B4
:1028D0000E94E20D8111CECF8091B0038F7B809357
:1028E000B003C8CFA1E21A2EAA1BBB1BFD010DC06D
:1028F000AA1FBB1FEE1FFF1FA217B307E407F507B0
:1029000020F0A21BB30BE40BF50B661F771F881F8B
:10291000991F1A9469F760957095809590959B0121
:10292000AC01BD01CF010895EE0FFF1F0024001C74
:102930000BBE0790F691E02D09945058BB27AA27AB
:102940000E94B5140C9406160E94F81538F00E94E7
:10295000FF1520F039F49F3F19F426F40C94F51577
:102960000EF4E095E7FB0C94EF15E92F0E94171683
:1029700058F3BA17620773078407950720F079F4B4
:10298000A6F50C9439160EF4E0950B2EBA2FA02D57
:102990000B01B90190010C01CA01A0011124FF270C
:1029A000591B99F0593F50F4503E68F11A16F04007
:1029B000A22F232F342F4427585FF3CF4695379506
:1029C0002795A795F0405395C9F77EF41F16BA0BCB
:1029D000620B730B840BBAF09150A1F0FF0FBB1F79
:1029E000661F771F881FC2F70EC0BA0F621F731FC2
:1029F000841F48F4879577956795B795F7959E3F1F
:102A000008F0B0CF9395880F08F09927EE0F9795AF
:102A1000879508950E941E150C9406160E94FF15B6
:102A200058F00E94F81540F029F45F3F29F00C940B
:102A3000EF1551110C943A160C94F5150E941716C7
:102A400068F39923B1F3552391F3951B550BBB27DD
:102A5000AA2762177307840738F09F5F5F4F220F22
:102A6000331F441FAA1FA9F335D00E2E3AF0E0E819
:102A700032D091505040E695001CCAF72BD0FE2F63
:102A800029D0660F771F881FBB1F261737074807F7
:102A9000AB07B0E809F0BB0B802DBF01FF279358AF
:102AA0005F4F3AF09E3F510578F00C94EF150C946F
:102AB0003A165F3FE4F3983ED4F386957795679591
:102AC000B795F7959F5FC9F7880F911D96958795E4
:102AD00097F90895E1E0660F771F881FBB1F621703
:102AE00073078407BA0720F0621B730B840BBA0BC1
:102AF000EE1F88F7E09508950E9483156894B11140
:102B00000C943A1608950E941F1688F09F5798F06B
:102B1000B92F9927B751B0F0E1F0660F771F881FE2
:102B2000991F1AF0BA95C9F714C0B13091F00E94FC
:102B30003916B1E008950C943916672F782F88273D
:102B4000B85F39F0B93FCCF3869577956795B39523
:102B5000D9F73EF490958095709561957F4F8F4F92
:102B60009F4F0895E89409C097FB3EF49095809597
:102B7000709561957F4F8F4F9F4F9923A9F0F92F43
:102B800096E9BB279395F695879577956795B795C1
:102B9000F111F8CFFAF4BB0F11F460FF1BC06F5FA7
:102BA0007F4F8F4F9F4F16C0882311F096E911C0B9
:102BB000772321F09EE8872F762F05C0662371F0DA
:102BC00096E8862F70E060E02AF09A95660F771FEE
:102BD000881FDAF7880F9695879597F9089597F9E2
:102BE0009F6780E870E060E008959FEF80EC0895B3
:102BF00000240A94161617061806090608950024DC
:102C00000A9412161306140605060895092E039455
:102C1000000C11F4882352F0BB0F40F4BF2B11F4C9
:102C200060FF04C06F5F7F4F8F4F9F4F089557FD28
:102C30009058440F551F59F05F3F71F04795880F2A
:102C400097FB991F61F09F3F79F0879508951216C1
:102C500013061406551FF2CF4695F1DF08C016166D
:102C600017061806991FF1CF86957105610508941E
:102C70000895E894BB2766277727CB0197F9089535
:102C80000E9453160C9406160E94F81538F00E9404
:102C9000FF1520F0952311F00C94EF150C94F51509
:102CA00011240C943A160E94171670F3959FC1F3E5
:102CB000950F50E0551F629FF001729FBB27F00DEA
:102CC000B11D639FAA27F00DB11DAA1F649F66273F
:102CD000B00DA11D661F829F2227B00DA11D621F8E
:102CE000739FB00DA11D621F839FA00D611D221F48
:102CF000749F3327A00D611D231F849F600D211D2C
:102D0000822F762F6A2F11249F5750409AF0F1F0AE
:102D100088234AF0EE0FFF1FBB1F661F771F881F17
:102D200091505040A9F79E3F510580F00C94EF154B
:102D30000C943A165F3FE4F3983ED4F3869577956A
:102D40006795B795F795E7959F5FC1F7FE2B880FBD
:102D5000911D9695879597F90895FA01EE0FFF1F3B
:102D6000309621053105A1F16115710561F48038B6
:102D7000BFE39B0749F168949038810561F0803882
:102D8000BFEF9B0741F099234AF5FF3FE10531056D
:102D9000210519F1E8940894E795D901AA2329F4AB
:102DA000AB2FBE2FF85FD0F310C0FF5F70F4A69575
:102DB000E0F7F73950F019F0FF3A38F49F779F9316
:102DC0000DD00F9007FC9058089546F00C94F5151F
:102DD00060E070E080E89FE308954FE79F775F939E
:102DE0004F933F932F930E94A8172F913F914F919C
:102DF0005F910E9440160C94051729F416F00C946C
:102E0000EF150C9439160C94F5150E941F16A8F3B3
:102E10009638A0F707F80F92E8942BE33AEA48EBCC
:102E20005FE70E9456160F920F920F924DB75EB752
:102E30000F920E94F017ECE8F0E00E9437174F91D4
:102E40005F91EF91FF91E595EE1FFF1F49F0FE574F
:102E5000E0684427EE0F441FFA95E1F74195550BC2
:102E60000E946A170F9007FE0C945E170895DF9377
:102E7000CF931F930F93FF92EF92DF927B018C0110
:102E8000689406C0DA2EEF010E945316FE01E89402
:102E9000A5912591359145915591A6F3EF010E9499
:102EA000B514FE019701A801DA9469F7DF90EF905D
:102EB000FF900F911F91CF91DF9108959B01AC017D
:102EC00060E070E080E89FE30C940A150C94EF1525
:102ED0000C9424180E941F16D8F39923C9F3940F59
:102EE000511DA3F39150504094F059F0882332F0D3
:102EF000660F771F881F91505040C1F79E3F5105C4
:102F00002CF7880F911D9695879597F908955F3F47
:102F1000ACF0983E9CF0BB27869577956795B79562
:102F200008F4B1609395C1F7BB0F58F711F460FF37
:102F3000E8CF6F5F7F4F8F4F9F4FE3CF0C943A16D0
:102F400016F00C9424180C94F51568940C94EF1555
:102F50000E941F16A8F39923C1F3AEF3DF93CF931A
:102F60001F930F93FF92C92FDD2788232AF0219703
:102F7000660F771F881FDAF720E030E040E85FEB4C
:102F80009FE3883920F0803E38F021968F770E94A9
:102F90009E14E4EBF0E004C00E949E14E1EEF0E029
:102FA0000E9437178B01BE01EC01FB2E6F57710990
:102FB0007595771F880B990B0E94B41528E132E7AD
:102FC00041E35FE30E945316AF2D9801AE01FF90DD
:102FD0000F911F91CF91DF910E94B5140C940616AA
:102FE000FA01DC01AA0FBB1F9B01AC01BF5728F4FB
:102FF000222733274427507820C0B75190F4AB2FB5
:103000000024469537952795011CA395D2F30020FF
:1030100071F0220F331F441FB395DAF30ED00C94D6
:103020009D1461307105A0E88A07B94630F49B0110
:10303000AC016627772788279078309621F0208387
:1030400031834283538308959F3F31F0915020F4A0
:10305000879577956795B795880F911D9695879574
:1030600097F90895FB01DC0102C001900D924150D7
:0A3070005040D8F70895F894FFCF00
:10307A00FF1900000032000000020300000A0000ED
:02308A00000044
:00000001FF
