:100000000C9446000C9450000C9450000C9450003A
:100010000C9450000C9450000C9450000C94500020
:100020000C9450000C9450000C9450000C94500010
:100030000C9450000C9450000C9450000C94500000
:100040000C9450000C9450000C9450000C945000F0
:100050000C9450000C9450000C9450000C945000E0
:100060000C9450000C9450000C9450000C945000D0
:100070000C9450000C9450000C9450000C945000C0
:100080000C9450000C9450000C94500011241FBE8E
:10009000CFEFD0E1DEBFCDBF0E9491020C941205DC
:1000A0000C94000008950F931F93CF93DF9300D01B
:1000B00000D000D0CDB7DEB79E838D83CB01BA01CF
:1000C000A90198010E9452032051310941095109A7
:1000D000569547953795279520937000109271009B
:1000E00084E08093740081E0ED81FE818083269618
:1000F0000FB6F894DEBF0FBECDBFDF91CF911F9139
:100100000F910895E4E7F0E080818B7F808308956C
:1001100084EA809374008091740087FFFCCF089577
:1001200084E98093740008956093730084E8809359
:1001300074008091740087FFFCCF80917100887FEC
:10014000883169F080917100887F883241F0909108
:100150007100987F81E0903419F080E0089581E08B
:100160000895FB01809174004423E9F0806480933A
:100170007400809174008068809374008091740092
:1001800087FFFCCF80917100887F883571F0809166
:100190007100887F803549F0809165008860809388
:1001A000650080E008958F7BE2CF809173008083AB
:1001B00081E00895FF920F931F93CF93DF93D82F81
:1001C000C92F162FF42E022F0E948800612F660F70
:1001D0008D2F9C2F0E9494006F2D8D2F9C2F0E949D
:1001E0009400602F8D2F9C2F0E9494008FE19EE43D
:1001F0000197F1F700C0000084E9809374008FED4F
:100200009EE20197F1F700C00000DF91CF911F91AE
:100210000F91FF900895BF92CF92DF92EF92FF92DD
:100220000F931F93CF93DF93EC01F62EB42EE22EA3
:1002300068010E948800FF0C6F2DCE010E9494007F
:100240006B2DCE010E949400CE010E94880061E0D7
:100250006F0DCE010E949400E00EF12EF11CCE1421
:10026000DF0451F4DF91CF911F910F91FF90EF9038
:10027000DF90CF90BF90089541E0B601CE010E947B
:10028000B1008FEFC81AD80AEACFFC018081089527
:1002900020E2209370001092710024E020937400FB
:1002A00021E0FC01218308950F931F93CF93DF93E7
:1002B0000F92CDB7DEB71982FC018E010F5F1F4F81
:1002C00021E040E06191CF010E940B0181E0998122
:1002D000953E09F080E00F90DF91CF911F910F9133
:1002E0000895FC012BE041E36191CF010C94DA0009
:1002F000FC0128E04DE26191CF010C94DA00CF932C
:10030000DF93EC0168830E945401882371F028E098
:100310004CE2FE016191CF010E94DA00CE010E9401
:100320007101CE010E94780181E0DF91CF910895A3
:10033000AF92BF92CF92DF92EF92FF920F931F93F3
:10034000CF93DF9300D000D000D0CDB7DEB75B01F4
:100350006A017901FC018E010F5F1F4F26E042E325
:100360006191CF010E940B0189819A81F5019183EE
:1003700080838B819C81F601918380838D819E8116
:10038000F7019183808326960FB6F894DEBF0FBEE7
:10039000CDBFDF91CF911F910F91FF90EF90DF9034
:1003A000CF90BF90AF900895CF92DF92EF92FF92DF
:1003B0000F931F93CF93DF93CDB7DEB72A970FB676
:1003C000F894DEBF0FBECDBF6B017A0189019E019B
:1003D0002F5F3F4FAE014D5F5F4FBE016B5F7F4FA1
:1003E0000E9498018D819E819C01990F440B550BB1
:1003F0002F83388749875A87CA01B9010E94190497
:100400002DEC3CEC4CE15DE36F83788789879A871C
:100410006F81788589859A850E94A504D6016D93A0
:100420007D938D939C9313978B819C819C01990F55
:10043000440B550B2F83388749875A87CA01B90166
:100440000E9419042DEC3CEC4CE15DE36F8378874E
:1004500089879A876F81788589859A850E94A50406
:10046000D7016D937D938D939C93139789819A8186
:100470009C01990F440B550B2F83388749875A8766
:10048000CA01B9010E9419042DEC3CEC4CE15DE37A
:100490006F83788789879A876F81788589859A8520
:1004A0000E94A504D8016D937D938D939C9313971F
:1004B0002A960FB6F894DEBF0FBECDBFDF91CF9165
:1004C0001F910F91FF90EF90DF90CF9008959C01C6
:1004D0001816190624F590E080E040916500486008
:1004E000409365004FEF51EE64E041505040604052
:1004F000E1F700C0000040916500477F4093650030
:100500004FEF51EE64E0415050406040E1F700C0D1
:10051000000001962817390701F781E0089580E06F
:100520000895CDB7DEB763970FB6F894DEBF0FBE60
:10053000CDBF19861A861B861C861D821E821F82CD
:10054000188619821A821B821C828091640088603E
:10055000809364008E01035F1F4FC8010E94480111
:100560006DE1C8010E947F01302E212E882309F4FD
:1005700090C081E090E00E946702412C512C320132
:10058000530142011F86D12CF12C10E09E012F5FF8
:100590003F4FAE014B5F5F4FBE01675F7F4F832DC3
:1005A000922D0E94D40189858B8BCA84EB840C85A3
:1005B0007F85272F3D2D4F2D512F7B897F87C88A1F
:1005C000E98A0A8B6F85788989899A890E947403E0
:1005D0006F87788B898B9A8B6F85788989899A89BF
:1005E0000E94E103462F572FCA0197FF04C08827B6
:1005F0009927841B950B0297D4F5A50194016D8171
:100600007E818F8198850E9474036F87788B898B98
:100610009A8B6F85788989899A890E94E103462F90
:10062000572FCA0197FF04C088279927841B950B71
:100630000297ECF4A301920169817A818B819C81FC
:100640000E9474036F87788B898B9A8B6F8578896A
:1006500089899A890E94E103462F572FCA0197FF83
:1006600004C088279927841B950B029724F081E00A
:1006700090E00E9467028D809E80AF80B8844980A0
:100680005A806B807C808B898F87DC2CFE2C102F0E
:100690007DCF63E5C8010E947F0181116ACF83E0AD
:1006A00090E069CFA1E21A2EAA1BBB1BFD010DC071
:1006B000AA1FBB1FEE1FFF1FA217B307E407F50712
:1006C00020F0A21BB30BE40BF50B661F771F881FEE
:1006D000991F1A9469F760957095809590959B0184
:1006E000AC01BD01CF0108955058BB27AA270E9435
:1006F0008C030C946B040E945D0438F00E94640427
:1007000020F039F49F3F19F426F40C945A040EF4A7
:10071000E095E7FB0C945404E92F0E947C0458F305
:10072000BA17620773078407950720F079F4A6F5D6
:100730000C949E040EF4E0950B2EBA2FA02D0B0105
:10074000B90190010C01CA01A0011124FF27591B16
:1007500099F0593F50F4503E68F11A16F040A22F1C
:10076000232F342F4427585FF3CF4695379527958D
:10077000A795F0405395C9F77EF41F16BA0B620B8C
:10078000730B840BBAF09150A1F0FF0FBB1F661FD3
:10079000771F881FC2F70EC0BA0F621F731F841F16
:1007A00048F4879577956795B795F7959E3F08F03C
:1007B000B0CF9395880F08F09927EE0F97958795FE
:1007C00008950E94E8036894B1110C949F04089561
:1007D0000E94840488F09F5798F0B92F9927B75149
:1007E000B0F0E1F0660F771F881F991F1AF0BA95D5
:1007F000C9F714C0B13091F00E949E04B1E0089591
:100800000C949E04672F782F8827B85F39F0B93F82
:10081000CCF3869577956795B395D9F73EF4909587
:100820008095709561957F4F8F4F9F4F0895E89405
:1008300009C097FB3EF490958095709561957F4F28
:100840008F4F9F4F9923A9F0F92F96E9BB279395D6
:10085000F695879577956795B795F111F8CFFAF4E6
:10086000BB0F11F460FF1BC06F5F7F4F8F4F9F4F17
:1008700016C0882311F096E911C0772321F09EE875
:10088000872F762F05C0662371F096E8862F70E0DB
:1008900060E02AF09A95660F771F881FDAF7880FB5
:1008A0009695879597F9089597F99F6780E870E086
:1008B00060E008959FEF80EC089500240A941616D6
:1008C000170618060906089500240A94121613063E
:1008D000140605060895092E0394000C11F48823CC
:1008E00052F0BB0F40F4BF2B11F460FF04C06F5FE8
:1008F0007F4F8F4F9F4F089557FD9058440F551FBE
:1009000059F05F3F71F04795880F97FB991F61F091
:100910009F3F79F087950895121613061406551F08
:10092000F2CF4695F1DF08C0161617061806991F74
:10093000F1CF86957105610508940895E894BB2769
:1009400066277727CB0197F908950E94B8040C9485
:100950006B040E945D0438F00E94640420F095232B
:1009600011F00C9454040C945A0411240C949F0418
:100970000E947C0470F3959FC1F3950F50E0551FC2
:10098000629FF001729FBB27F00DB11D639FAA27E4
:10099000F00DB11DAA1F649F6627B00DA11D661F33
:1009A000829F2227B00DA11D621F739FB00DA11D54
:1009B000621F839FA00D611D221F749F3327A00D0E
:1009C000611D231F849F600D211D822F762F6A2FAA
:1009D00011249F5750409AF0F1F088234AF0EE0F0F
:1009E000FF1FBB1F661F771F881F91505040A9F73C
:1009F0009E3F510580F00C9454040C949F045F3F7B
:100A0000E4F3983ED4F3869577956795B795F79577
:100A1000E7959F5FC1F7FE2B880F911D96958795EF
:080A200097F90895F894FFCF47
:00000001FF
