:100000000C9487000C94A6000C94A6000C94A600F7
:100010000C94A6000C94A6000C94A6000C94A600C8
:100020000C94A6000C94A6000C94A6000C94A600B8
:100030000C945D0C0C94A6000C94A6000C94A600E5
:100040000C94A6000C94A6000C94A6000C94A60098
:100050000C94A6000C94A6000C94A6000C94A60088
:100060000C94A6000C94A6000C94A6000C94A60078
:100070000C94A6000C94A6000C94A6000C94A60068
:100080000C94A6000C94A6000C94A60007634236BC
:10009000B79BD8A71A39685618AEBAAB558C1D3C19
:1000A000B7CC5763BD6DEDFD753EF6177231BF00DD
:1000B0000000803F08000000BE922449123EABAA17
:1000C000AA2ABECDCCCC4C3E00000080BEABAAAA72
:1000D000AA3E00000000BF000000803F00000000BA
:1000E00000084178D3BB4387D1133D190E3CC3BDF3
:1000F0004282AD2B3E68EC8276BED98FE1A93E4CA0
:1001000080EFFFBE01C4FF7F3F000000000011240C
:100110001FBECFEFD0E1DEBFCDBF11E0A0E0B1E068
:10012000ECEAF7E300E00BBF02C007900D92A631A6
:10013000B107D9F723E0A6E1B1E001C01D92A532D5
:10014000B207E1F70E9433170C94D41B0C94000003
:100150000F931F93CF93DF93EC01CB01BA01A90159
:1001600098016A837B838C839D830E833F834887BA
:1001700059870E94011820513109410951095695AA
:100180004795379527952093700010927100E4E70A
:10019000F0E080818460808381E08883DF91CF916B
:1001A0001F910F910895FC0180810895FC018081C9
:1001B000882349F084EA809374008091740087FF5B
:1001C000FCCF81E081830895FC018181882329F09F
:1001D00084E980937400118281E00895FC0180819C
:1001E000882339F0809174008B7F80937400108293
:1001F00081E00895FC0180818823F9F081818823C2
:10020000E1F06093730084E880937400809174003F
:1002100087FFFCCF80917100887F883169F08091E1
:100220007100887F883241F090917100987F81E061
:10023000903419F080E0089581E00895FC01DB011D
:100240008081811102C080E0089581818823D9F3E3
:10025000809174004423C9F080648093740084E822
:10026000809374008091740087FFFCCF80917100AF
:10027000887F883529F080917100887F803519F753
:10028000809173008C9381E008958F7BE6CFFF927D
:100290000F931F93CF93DF93D82FC92F162FF42ED0
:1002A000022F0E94D600612F660F8D2F9C2F0E9477
:1002B000FA006F2D8D2F9C2F0E94FA00602F8D2F3A
:1002C0009C2F0E94FA008FE19EE40197F1F700C095
:1002D00000008D2F9C2F0E94E4008FED9EE201977D
:1002E000F1F700C00000DF91CF911F910F91FF90B7
:1002F0000895BF92CF92DF92EF92FF920F931F93D8
:10030000CF93DF93D82FC92FF62EB42EE22E68019B
:100310000E94D600FF0C6F2D8D2F9C2F0E94FA009B
:100320006B2D8D2F9C2F0E94FA008D2F9C2F0E94E9
:10033000E4008D2F9C2F0E94D60061E06F0D8D2F61
:100340009C2F0E94FA00E00EF12EF11CCE14DF0467
:1003500069F48D2F9C2FDF91CF911F910F91FF900A
:10036000EF90DF90CF90BF900C94E40041E0B60195
:100370008D2F9C2F0E941E018FEFC81AD80AE6CF3E
:10038000A19A0895A998A19A8FEB93E00197F1F7AC
:1003900000C00000A19890EA9A95F1F783B3E7E4D2
:1003A000F3E03197F1F700C0000082700895A9983A
:1003B000A19A82E08A95F1F700C0A19895E29A95FA
:1003C000F1F7000083B398E79A95F1F7869581706D
:1003D0000895A998A19A82E08A95F1F700C0611169
:1003E000A19880EA8A95F1F7A19808950F931F9339
:1003F000CF93DF93182F092FD9E080E0D15029F453
:10040000DF91CF911F910F910895C82FC695812F2D
:10041000902F0E94D70120E8829FC00111248C2BCD
:10042000EDCF0F931F93CF93DF93182F092FC62F74
:10043000D9E0D15029F4DF91CF911F910F91089508
:100440006C2F6170812F902F0E94E901C695F1CF2A
:10045000611109C089B91092900086E080939500DF
:1004600088E98AB90895109298008093990088E9E4
:1004700080939A008EE080939D0008955D9B03C059
:1004800090E080E008958CB9F9CF5F9BFECF8CB1EE
:1004900090E0089590919B0095FF21C0F894809181
:1004A00065008860809365002FEF80E792E021501F
:1004B00080409040E1F700C0000080916500877F98
:1004C000809365002FEF80E792E0215080409040BC
:1004D000E1F700C00000789490E080E008958093F8
:1004E0009C00D8CF80919B0087FFFCCF80919C001F
:1004F00090E008956C9A6E9AB99ABA9ABB986B98E4
:100500006A9868986998709A6D980895FC0181813D
:100510000895FC01862F6FB9779BFECF9FB1908322
:1005200008958FEF8FB9779BFECF8FB108956FB984
:100530000000779BFECF8FB108950F931F93CF9349
:10054000DF9300D000D000D0CDB7DEB78D839E837F
:100550000E94A90C8B018D819E810E949102ED81E8
:10056000FE8183878F3F99F08E3F01F18DE0ED8111
:10057000FE818683C09A80E026960FB6F894DEBF8F
:100580000FBECDBFDF91CF911F910F9108950E94B3
:10059000A90C69837A838B839C8389819A81801BD0
:1005A000910B8D329140B8F28FE0E1CF81E0E4CF42
:1005B000CF93DF93EC018F81811106C0DF91CF9142
:1005C0000895CE010E949102888599859C012F5F34
:1005D0003F4F398728878230924098F3C09A1F8214
:1005E000EDCFEF92FF920F931F93CF93DF9300D045
:1005F00000D000D0CDB7DEB7F82EE92E8B010E94D7
:10060000A90C6D837E838F2D9E2D0E9491028F3FBA
:10061000E9F00E94A90C69837A838B839C832981EA
:100620003A818D819E81281B390B2017310758F3A1
:1006300080E026960FB6F894DEBF0FBECDBFDF91E7
:10064000CF911F910F91FF90EF90089581E0F1CF2E
:10065000AF92BF92CF92DF92EF92FF921F93CF9310
:10066000DF93EC01162F69017A01C0986CE271E00A
:100670000E94F102612F6064CE010E94890288E12C
:10068000A82EB12CC701B6010A2C04C096958795F7
:10069000779567950A94D2F7CE010E94890288E087
:1006A000A81AB10888EFA8168FEFB80659F765E9C0
:1006B000112321F067E8183009F06FEFCE010E9496
:1006C000890210E0CE010E9491028B8787FF04C04F
:1006D0001F3F11F01F5FF6CFDF91CF911F91FF9069
:1006E000EF90DF90CF90BF90AF900895EF92FF9280
:1006F0000F931F93CF93DF93EC017A0120E030E05A
:10070000A9010E942803882329F08EE08E83C09AD5
:1007100080E01AC0CE010E949D028823C1F38701A8
:10072000C70140967C01CE010E949102F80181939D
:100730008F01EE15FF05B9F7CE010E949102CE019F
:100740000E949102C09A81E0DF91CF911F910F9199
:10075000FF90EF9008954F925F926F927F92AF92C9
:10076000BF92CF92DF92EF92FF920F931F93CF939E
:10077000DF93EC012A013B0159016801C801820F96
:10078000931F8130924048F58F81882371F08A81D0
:100790009B81AC81BD8184159505A605B70529F41B
:1007A00088859985A816B90690F54A825B826C8285
:1007B0007D828C85833039F089E0440C551C661CA1
:1007C000771C8A95D1F7A301920161E1CE010E94C5
:1007D0002803882399F083E08E83C09A80E0DF911C
:1007E000CF911F910F91FF90EF90DF90CF90BF902E
:1007F000AF907F906F905F904F900895CE010E94D0
:100800009D02882351F31986188681E08F8388859D
:1008100099858A159B05C0F05701EC0CFD1CEA1464
:10082000FB04D9F488859985C80ED91ED986C88657
:100830008A85882321F0C114F2E0DF0618F0CE018A
:100840000E94D80281E0CBCFCE010E949102888520
:100850009985019699878887DACFCE010E94910207
:10086000F50181935F01DBCF0F931F93CF93DF934C
:10087000CDB7DEB764970FB6F894DEBF0FBECDBF1D
:100880008C01AE014F5F5F4F69E00E9476038823C1
:1008900009F473C08981807C09F042C08F81837024
:1008A00090E0982F8827990F990F288544E0249F7E
:1008B00090011124822B932B29852295269526952C
:1008C0002370822B0196B0E0A0E02A852370220FCE
:1008D0003B8537FB332730F9232B3E813F70230FB5
:1008E0003327331F27503109AC01BD0104C0440F29
:1008F000551F661F771F2A95D2F7498B5A8B6B8B32
:100900007C8B69897A898B899C8964960FB6F89467
:10091000DEBF0FBECDBFDF91CF911F910F91089524
:10092000803441F588858695869590E0B0E0A0E01A
:10093000DC01992788272A85822B498550E0542F8E
:100940004427052E000C660B770B842B952BA62BCA
:10095000B72B0196A11DB11D9C01AD016AE0220FCC
:10096000331F441F551F6A95D1F7298B3A8B4B8B48
:100970005C8BC7CF89E0F8018683198A1A8A1B8AA3
:100980001C8ABFCFCF93DF93CDB7DEB764970FB686
:10099000F894DEBF0FBECDBFAE014F5F5F4F69E081
:1009A0000E9476038823C9F08B8586FB882780F90F
:1009B000282F30E050E040E0298B3A8B4B8B5C8B4A
:1009C00069897A898B899C8964960FB6F894DEBF11
:1009D0000FBECDBFDF91CF910895198A1A8A1B8A65
:1009E0001C8AEECF8F929F92AF92BF92CF92DF92EE
:1009F000EF92FF920F931F93CF93DF9300D000D01D
:100A000000D0CDB7DEB78D839E834A015B016801BC
:100A100079018D819E810E94C20469837A838B83D0
:100A20009C83672B682B692B09F454C0AD81BE8170
:100A30001C968C91833071F089E0880C991CAA1C5B
:100A4000BB1C8A95D1F799E0CC0CDD1CEE1CFF1C79
:100A50009A95D1F7A501940160E28D819E810E9453
:100A60002803882339F08AE0ED81FE818683C09ACD
:100A700080E01DC0A701960161E28D819E810E94E8
:100A800028038111F0CF20E030E0A90166E28D81DA
:100A90009E810E9428038111E6CF60E177E28D817B
:100AA0009E810E94F1028823B9F0C09A81E02696C7
:100AB0000FB6F894DEBF0FBECDBFDF91CF911F916F
:100AC0000F91FF90EF90DF90CF90BF90AF909F90ED
:100AD0008F9008958BE0C8CF8CE0C6CFCF92DF9285
:100AE000EF92FF920F931F93CF93DF9300D000D02C
:100AF00000D0CDB7DEB78D839E83F42EED81FE81CD
:100B000014861286178216820E94A90C8B01F1109E
:100B100004C08D819E810E947A02C09A0000C09814
:100B2000ED81FE81F38420E030E0A90160E0CF0197
:100B30000E942803F81609F476C02AEA31E040E062
:100B400050E068E08D819E810E94280382FD80C074
:100B500024E0F22E8D819E810E949102ED81FE8122
:100B60008387FA94F110F6CF8A3A09F083C082E0C5
:100B7000ED81FE818487C12CD12C7601C394823013
:100B800019F0C12CD12C76018EE1CC0CDD1CEE1CB1
:100B9000FF1C8A95D1F720E030E0A90167E38D8141
:100BA0009E810E942803A701960169E28D819E81A2
:100BB0000E942803ED81FE81838781114BC08485CB
:100BC000823001F520E030E0A9016AE3CF010E9404
:100BD0002803811151C08D819E810E949102807CE9
:100BE000803C21F483E0ED81FE8184878D819E81AC
:100BF0000E9491028D819E810E9491028D819E8131
:100C00000E949102C09A81E026960FB6F894DEBF4A
:100C10000FBECDBFDF91CF911F910F91FF90EF904D
:100C2000DF90CF9008950E94A90C69837A838B830B
:100C30009C8389819A81801B910B813D974008F4A8
:100C40006FCF81E0ED81FE818683C09A80E0DCCFAA
:100C500081E08ECF0E94A90C69837A838B839C8369
:100C600089819A81801B910B813D974008F493CF35
:100C700088E0E8CF82E0E6CF86E0E4CF1F93CF9311
:100C8000DF93EC01162F0E94D8021A87DF91CF91D3
:100C90001F910895EF92FF920F931F93790100E047
:100CA00012E030E020E00E94AB031F910F91FF9013
:100CB000EF900895EF92FF920F931F93F801EF2B9F
:100CC00039F00E94AB031F910F91FF90EF900895B0
:100CD00081E0F9CFEF92FF920F931F93CF93DF93B1
:100CE000EC017A010E9489028701C7019E5F7C01A5
:100CF000F80161918F01CE010E9489020E151F0536
:100D0000B9F76FEFCE010E9489026FEFCE010E940A
:100D10008902CE010E9491028B878F71853059F034
:100D200081E18E83C09A80E0DF91CF911F910F9176
:100D3000FF90EF90089581E0F7CFCF92DF92EF928E
:100D4000FF920F931F93CF93DF93EC016A017B0116
:100D5000890182E1C114D104E104F10499F08C8588
:100D6000833039F089E0CC0CDD1CEE1CFF1C8A9529
:100D7000D1F7A701960168E1CE010E9428038823DC
:100D800029F084E08E83C09A80E022C0A8016EEF33
:100D9000CE010E946A068823B1F368E572E0CE01B5
:100DA0000E94F102811102C085E1ECCF20E030E029
:100DB000A9016DE0CE010E942803882311F084E18F
:100DC000E1CFCE010E9491028111F9CFC09A81E05A
:100DD000DF91CF911F910F91FF90EF90DF90CF9017
:100DE00008950F931F93CF93DF93EC018B0168E578
:100DF00072E00E94F102882349F0A8016CEFCE0155
:100E0000DF91CF911F910F910C946A0683E18E833D
:100E1000C09A80E0DF91CF911F910F910895AF921A
:100E2000BF92CF92DF92EF92FF920F931F93CF93D7
:100E3000DF93EC016A017B01590182E1C114D10405
:100E4000E104F10411F120E030E0A90167E3CE01F3
:100E50000E9428039801A50167E1CE010E942803A2
:100E6000811121C08C85833039F089E0CC0CDD1CE8
:100E7000EE1CFF1C8A95D1F7A701960169E1CE010E
:100E80000E942803882389F085E08E83C09A80E041
:100E9000DF91CF911F910F91FF90EF90DF90CF9056
:100EA000BF90AF90089587E0F0CF81E0F1CFCF936E
:100EB000DF93EC0168E572E00E94F102882381F083
:100EC0006DEFCE010E94890268E572E0CE010E94BA
:100ED000F102882329F0C09A81E0DF91CF91089533
:100EE00080E18E83C09A80E0F8CF80911E01882334
:100EF000A9F14091040150910501609106017091A2
:100F0000070121E231E080911F01909120010E94B0
:100F10009D06811102C080E0089540911A01509110
:100F20001B0160911C0170911D0141155105610566
:100F3000710591F021E231E080911F019091200133
:100F40000E949D06882339F310921A0110921B010A
:100F500010921C0110921D0110921E0181E0089553
:100F6000CF92DF92EF92FF92CF936B017C01C42F5F
:100F70008091040190910501A0910601B0910701B3
:100F80008C159D05AE05BF05F9F00E94750781110E
:100F900007C080E0CF91FF90EF90DF90CF90089551
:100FA00021E231E0B701A60180911F01909120015B
:100FB0000E944A06882369F3C0920401D092050179
:100FC000E0920601F092070140911E014C2B4093E4
:100FD0001E0181E0DFCF0F931F93CF93DF938B012F
:100FE000D82FC92F0E9475078823C1F0E1E2F1E0F4
:100FF00080E092E0DF019C011D9221503040E1F73A
:101000000093040110930501D0930601C0930701DA
:1010100080911E01816080931E0181E0DF91CF915C
:101020001F910F9108958F929F92AF92BF92CF928E
:10103000DF92EF92FF920F931F93CF93DF9300D035
:1010400000D000D0CDB7DEB78C016A017B012D83C3
:101050003E83FC0181859285A385B4850196A11DFF
:10106000B11D8C159D05AE05BF05A0F480E0269648
:101070000FB6F894DEBF0FBECDBFDF91CF911F91A9
:101080000F91FF90EF90DF90CF90BF90AF909F9027
:101090008F9008954389548965897689878980313D
:1010A00099F5BB27AF2D9E2D8D2D4A015B01880E32
:1010B000991EAA1EBB1E89829A82AB82BC82809135
:1010C000040190910501A0910601B09107018816D5
:1010D0009906AA06BB0611F5F8018789803141F50A
:1010E000DD24EE24FF24F601EE0FFF1FEF5DFE4F1F
:1010F00080819181B0E0A0E0ED81FE8180839183C9
:10110000A283B38381E0B3CFD701C60127E0B695B0
:10111000A795979587952A95D1F7C7CF40E0698124
:101120007A818B819C810E94B0078111D5CF9ECF9F
:10113000E894C7F8DD24EE24FF24F601EE0FFF1F2C
:10114000EE0FFF1FEF5DFE4F80819181A281B38181
:10115000BF70D2CF4F925F926F927F928F929F9289
:10116000AF92BF92EF92FF920F931F93CF93DF93B3
:1011700000D000D0CDB7DEB78C0149835A836B8392
:101180007C837901812C912C5401412C82E0582ED2
:10119000612C712C49815A816B817C819E012F5F6A
:1011A0003F4FC8010E941308882339F1F801858553
:1011B000A301920104C0220F331F441F551F8A95BB
:1011C000D2F7DA01C901880E991EAA1EBB1E4981F9
:1011D0005A816B817C818789803111F188EF9FEF83
:1011E000AFEFBFE0481759076A077B0798F2F7018E
:1011F00080829182A282B38281E00F900F900F9043
:101200000F90DF91CF911F910F91FF90EF90BF90C2
:10121000AF909F908F907F906F905F904F900895C8
:1012200088EF9FEFA0E0B0E0DDCF6F927F928F92CA
:101230009F92AF92BF92CF92DF92EF92FF920F9365
:101240001F93CF93DF93EC016A017B01390182E0A8
:10125000C816D104E104F10480F480E0DF91CF915D
:101260001F910F91FF90EF90DF90CF90BF90AF90C4
:101270009F908F907F906F90089589859A85AB8518
:10128000BC850196A11DB11D8C159D05AE05BF0540
:1012900020F38B889C88AD88BE888F898031E1F5EA
:1012A000BB27AF2D9E2D8D2D880E991EAA1EBB1E0D
:1012B0008091040190910501A0910601B091070170
:1012C00088169906AA06BB0689F58F898031B1F583
:1012D000DD24EE24FF24F601EE0FFF1FEF5DFE4F2D
:1012E0001183008380911E01816080931E018A8991
:1012F000823080F08D819E81AF81B885880D991DE7
:10130000AA1DBB1D80931A0190931B01A0931C0181
:10131000B0931D0181E0A2CFDB01CA0127E0B695A1
:10132000A795979587952A95D1F7BECF40E0C5013F
:10133000B4010E94B0078111C8CF8FCFE894C7F8DD
:10134000DD24EE24FF24F601EE0FFF1FEE0FFF1F3A
:10135000EF5DFE4F0083118362827382C3CF2F92B1
:101360003F924F925F926F927F928F929F92AF9235
:10137000BF92CF92DF92EF92FF920F931F93CF9382
:10138000DF93CDB7DEB72F970FB6F894DEBF0FBE51
:10139000CDBF3C014E835F83688779872A873B876F
:1013A000AA85BB85CD90DD90ED90FC90C114D10451
:1013B000E104F10439F0BFEFCB1ADB0AEB0AFB0AB8
:1013C0001D8210C0FC01C080D180E280F380F1E07A
:1013D000FD830E811F812885398501301105210586
:1013E000310571F7F30181859285A385B4858C0160
:1013F0009D010F5F1F4F2F4F3F4F0C871D872E877B
:101400003F8746015701212C312C2101F3018185B1
:101410009285A385B485281639064A065B0608F02E
:1014200044C00C851D852E853F85081519052A05A4
:101430003B0550F482E0882E912CA12CB12C92E037
:10144000C92ED12CE12CF12C9E012F5F3F4FB5010D
:10145000A401C3010E941308882339F1D501C401F6
:101460000196A11DB11D49815A816B817C81452B5B
:10147000462B472BA9F5AC01BD014C195D096E093E
:101480007F090E811F812885398540175107620722
:10149000730741F50FEF1FEF2FEF3FE0B501A401F8
:1014A000C3010E941509811137C01D828D812F96BD
:1014B0000FB6F894DEBF0FBECDBFDF91CF911F9165
:1014C0000F91FF90EF90DF90CF90BF90AF909F90E3
:1014D0008F907F906F905F904F903F902F900895E6
:1014E0006C017D011FEF211A310A410A510A4C019A
:1014F0005D018CCF1401250121E0221A3108410839
:10150000510895018401B201A101C3010E9415098E
:10151000882359F252014101C814D904EA04FB049A
:1015200048F3AA85BB854D915D916D917C914115E4
:1015300051056105710561F4EA85FB85C082D182A0
:10154000E282F382FD81F1110BC001E00D83AECF89
:1015500097018601C3010E9415098111EDCFA5CF26
:101560001FEFC11AD10AE10AF10AD301CD92DD922F
:10157000ED92FC9213979ACF8F929F92AF92BF9267
:10158000EF92FF920F931F93CF93DF9300D000D081
:10159000CDB7DEB77C014A015B0182E090E0A0E0BC
:1015A000B0E0F70180839183A283B3839E012F5F14
:1015B0003F4FB501A401C7010E941308882381F1A0
:1015C00000E010E09801B501A401C7010E941509CF
:1015D000882331F189809A80AB80BC80F7018789AC
:1015E0008031C9F088EF9FEFAFEFBFE08816990612
:1015F000AA06BB06D8F281E00F900F900F900F90D3
:10160000DF91CF911F910F91FF90EF90BF90AF901E
:101610009F908F90089588EF9FEFA0E0B0E0E6CF15
:1016200080E0EACF4F925F926F927F928F929F926B
:10163000AF92BF92CF92DF92EF92FF920F931F93E0
:10164000CF93DF9300D000D000D0CDB7DEB72C0110
:10165000142F7093200160931F01442309F411C1DA
:101660004530C0F080E026960FB6F894DEBF0FBE7E
:10167000CDBFDF91CF911F910F91FF90EF90DF9041
:10168000CF90BF90AF909F908F907F906F905F9022
:101690004F90089540E060E070E0CB010E94B007F9
:1016A000882301F3812F8150990BAC0164E0440F32
:1016B000551F6A95E1F7CA018F5D9E4F41525D4FFC
:1016C000DA012C912F7771F6FC01E653FE4F408131
:1016D000518162817381443651056105710510F2B3
:1016E0008A539E4FFC01C080D180E280F380C114F8
:1016F000D104E104F10409F4B5CF40E0C701B6011B
:101700000E94B007882309F4ADCF80912C019091FD
:101710002D018115924009F0A5CF909131019923B7
:1017200009F4A0CF20912F0130913001232B09F42F
:1017300099CF80912E01882309F494CFD20152963B
:101740009C93529714968C9314971D961C9290E03C
:1017500061E070E0D2011D962C91622EAB01022E49
:1017600002C0440F551F0A94E2F78417950709F049
:101770008CC0209137013091380150E040E02115B4
:10178000310541F4209145013091460140914701D6
:1017900050914801F2012583368347835087809119
:1017A0002F019091300146015701880E991EA11C0E
:1017B000B11C838A948AA58AB68A0091320110915D
:1017C0003301118F008FA0913101B0E00E942318E6
:1017D000DC01CB01880D991DAA1DBB1D828F938F43
:1017E000A48FB58F25E0000F111F2A95E1F7015056
:1017F0001E4F012F11270695800F911FA11DB11DAE
:1018000086879787A08BB18B409134015091350129
:1018100070E060E04115510541F440914101509163
:1018200042016091430170914401C81AD90AEA0A41
:10183000FB0AC40ED51EE61EF71E04C0F694E794FC
:10184000D794C7946A94D2F7D2011996CD92DD92BB
:10185000ED92FC921C978CE0F201B5EFCB16BFE045
:10186000DB06E104F10438F1F5EFCF16FFEFDF06F8
:10187000E104F10490F480E1D20157968C9381E069
:10188000F2CEC12CD12C760138CF31E0320FF201EB
:101890003587283008F45ECFE5CE80914D019091D8
:1018A0004E01A0914F01B0915001F201828F938FB0
:1018B000A48FB58F80E2878BE2CF1F921FB61F9255
:1018C00011248F939F93AF93BF93809121039091A5
:1018D0002203A0912303B09124030196A11DB11D01
:1018E0008093210390932203A0932303B0932403B6
:1018F000BF91AF919F918F911F901FBE1F90189520
:10190000CF93DF9300D000D0CDB7DEB769837A8361
:101910008B839C8388E08EBD8EB583608EBD69818C
:101920007A818B819C8120E03AEF40E050E00E9478
:101930000118BB27A52F942F832F8BBD2ABD87B7F6
:10194000806187BF0F900F900F900F90DF91CF9124
:101950000895CF93DF9300D000D0CDB7DEB7F894D1
:101960008091210390912203A0912303B09124033D
:1019700089839A83AB83BC83789469817A818B81D4
:101980009C810F900F900F900F90DF91CF91089551
:101990000F931F93CF93DF930F92CDB7DEB71982CA
:1019A000FC018E010F5F1F4F21E040E06191CF01EC
:1019B0000E94790181E09981953E09F080E00F90C5
:1019C000DF91CF911F910F910895FC012BE041E32E
:1019D0006191CF010C944701FC0128E04DE2619137
:1019E000CF010C944701FF920F931F93CF93DF9386
:1019F000EC01F62E41110BC000EA16E821E030E0C0
:101A000040E052E16AE770E001960E94A800F88287
:101A1000CE010E94C80C882371F028E04CE2FE0140
:101A20006191CF010E944701CE010E94E50CCE01D9
:101A30000E94EC0C81E0DF91CF911F910F91FF90FC
:101A40000895AF92BF92CF92DF92EF92FF920F93E1
:101A50001F93CF93DF9300D000D000D0CDB7DEB777
:101A60005B016A017901FC018E010F5F1F4F26E0C7
:101A700042E36191CF010E94790189819A81F50148
:101A8000918380838B819C81F601918380838D81FA
:101A90009E81F7019183808326960FB6F894DEBF6E
:101AA0000FBECDBFDF91CF911F910F91FF90EF90AF
:101AB000DF90CF90BF90AF900895CF92DF92EF92DA
:101AC000FF920F931F93CF93DF93CDB7DEB72A9783
:101AD0000FB6F894DEBF0FBECDBF6B017A0189014E
:101AE0009E012F5F3F4FAE014D5F5F4FBE016B5FA9
:101AF0007F4F0E94210D8D819E819C01990F440B87
:101B0000550B2F83388749875A87CA01B9010E942C
:101B10002B192DEC3CEC4CE15DE36F8378878987D2
:101B20009A876F81788589859A850E94DB19D6010D
:101B30006D937D938D939C9313978B819C819C01D6
:101B4000990F440B550B2F83388749875A87CA0151
:101B5000B9010E942B192DEC3CEC4CE15DE36F8345
:101B6000788789879A876F81788589859A850E9489
:101B7000DB19D7016D937D938D939C931397898186
:101B80009A819C01990F440B550B2F833887498705
:101B90005A87CA01B9010E942B192DEC3CEC4CE18B
:101BA0005DE36F83788789879A876F8178858985D8
:101BB0009A850E94DB19D8016D937D938D939C9338
:101BC00013972A960FB6F894DEBF0FBECDBFDF91F4
:101BD000CF911F910F91FF90EF90DF90CF900895DC
:101BE0000C94C0010F931F93CF93DF93D82FC92F6D
:101BF0008B010E94C2016CEC8D2F9C2F0E94110260
:101C000064E48D2F9C2F0E9411028D2F9C2F0E9427
:101C1000D7018823D1F38D2F9C2F0E94C2016CEC39
:101C20008D2F9C2F0E9411026EEB8D2F9C2F0E94F6
:101C300011028D2F9C2F0E94F601F80180838D2FB9
:101C40009C2F0E94F601F80181838D2F9C2FDF913C
:101C5000CF911F910F910C94C2010F931F93CF93BB
:101C6000DF9300D000D000D0CDB7DEB78B01BE012E
:101C70006F5F7F4F0E94F20D89819A819C01990FBD
:101C8000440B550B2B833C834D835E83CA01B90102
:101C90000E942B1920E030E040E85DE36B837C83F9
:101CA0008D839E836B817C818D819E810E94DB1957
:101CB00020E030E040E05DE36B837C838D839E8396
:101CC0006B817C818D819E810E944618D8016D9325
:101CD0007D938D939C93139726960FB6F894DEBF51
:101CE0000FBECDBFDF91CF911F910F910895FC01E1
:101CF000242F462F60814B960C9447010F931F931E
:101D0000CF93DF930F92CDB7DEB7FC01462F8E0144
:101D10000F5F1F4F21E060814B960E9479018981FE
:101D20000F90DF91CF911F910F9108950F931F9303
:101D3000CF93DF9300D0CDB7DEB7FC01462F8E01E5
:101D40000F5F1F4F22E060814B960E9479018981CD
:101D50009A819827892798270F900F90DF91CF912C
:101D60001F910F9108950E94960E98278927982712
:101D700008950C94B30E0F931F93CF93DF9300D06D
:101D800000D000D00F92CDB7DEB7FC01462F8E01F8
:101D90000F5F1F4F23E060814B960E94790189817C
:101DA0009A81982789279827B0E0A0E0BA2FA92F19
:101DB000982F88272B81AC01422BCD01BA012796A1
:101DC0000FB6F894DEBF0FBECDBFDF91CF911F914C
:101DD0000F910895CF93DF93EC0168E80E94B30E52
:101DE00089836AE8CE010E94B30E9C838B836CE8E2
:101DF000CE010E94B30E9E838D836EE8CE010E94B9
:101E0000B30E8A8360E9CE010E94B30E98878F8358
:101E100062E9CE010E94B30E9A87898764E9CE01F8
:101E20000E94B30E9C878B8766E9CE010E94B30E99
:101E30009E878D8768E9CE010E94B30E988B8F87AD
:101E40006AE9CE010E94B30E9A8B898B6CE9CE01B0
:101E50000E94B30E9C8B8B8B6EE9CE010E94B30E59
:101E60009E8B8D8BDF91CF910895FF920F931F93DF
:101E7000CF93DF93EC01F62E41110BC000EA16E878
:101E800021E030E040E052E16AE770E04B960E94CA
:101E9000A800F88260EDCE010E947E0E883579F4AC
:101EA000CE010E94EA0E48E665EFCE010E94770E51
:101EB00081E0DF91CF911F910F91FF90089580E015
:101EC000F8CFCF92DF92EF92FF920F931F93CF93B1
:101ED000DF93CDB7DEB72A970FB6F894DEBF0FBEFB
:101EE000CDBF89879A876AEF89859A850E94BB0E44
:101EF0006D837E838F839887E985FA85818190E061
:101F0000B0E0A0E00D811E812F8138857727632FF7
:101F1000522F412F8A019B01081B190B2A0B3B0BE7
:101F200009831A832B833C832D813E814F81588501
:101F300067E056954795379527956A95D1F7880FAD
:101F4000991FAA1FBB1F281B390B4A0B5B0BA381D0
:101F5000B4810E942E186B017C01ABE0F594E794EC
:101F6000D794C794AA95D1F729813A814B815C8196
:101F7000CA01B9010E94F1179B01AC01BCE0559563
:101F8000479537952795BA95D1F7A581B6810E94D7
:101F90002E18DC01CB011EE0B595A7959795879586
:101FA0001A95D1F7A7019601280F391F4A1F5B1F09
:101FB000278B308F418F528FA5E0B0E00E9423180D
:101FC000DC01CB0180589F4FAF4FBF4F092F1A2F15
:101FD0002B2F332727FD3A95C901B8012A960FB652
:101FE000F894DEBF0FBECDBFDF91CF911F910F914F
:101FF000FF90EF90DF90CF9008952F923F924F92F5
:102000005F926F927F928F929F92AF92BF92CF9288
:10201000DF92EF92FF920F931F93CF93DF93CDB791
:10202000DEB728970FB6F894DEBF0FBECDBF8F8303
:1020300098878B016A018F8198850E94610FD80172
:102040006D937D938D939C93139767EF8F81988504
:102050000E94BB0E4B015C01EF81F8856789708D92
:10206000818D928D0E942B1920E030E040E05FE3EB
:1020700069837A838B839C8369817A818B819C813C
:102080000E94DB1920E030E04AE757E469837A8355
:102090008B839C8369817A818B819C810E94451806
:1020A0007B018C01AF81B88519968D919C919C0123
:1020B000990F440B550B29833A834B835C83CA01E8
:1020C000B9010E942B199701A80169837A838B8338
:1020D0009C8369817A818B819C810E94DB199701A5
:1020E000A80169837A838B839C8369817A818B8140
:1020F0009C810E94DB1920E030E040E056E36983D8
:102100007A838B839C8369817A818B819C810E94F5
:10211000DB192B013C01AF81B88517968D919C91FD
:102120009C01990F440B550B29833A834B835C83A5
:10213000CA01B9010E942B199701A80169837A830A
:102140008B839C8369817A818B819C810E94DB19BE
:102150009B01AC0149825A826B827C8269817A81BF
:102160008B819C810E94461820E030E040E056E3DD
:1021700069837A838B839C8369817A818B819C813B
:102180000E94DB1920E030E040E058E369837A8365
:102190008B839C8369817A818B819C810E94DB196E
:1021A00020E030E040E85FE369837A838B839C839F
:1021B00069817A818B819C810E9446182B013C01A8
:1021C000AF81B88512968C91282F30E050E040E026
:1021D00029833A834B835C83CA01B9010E94291980
:1021E0009201A30169837A838B839C8369817A81BD
:1021F0008B819C810E94DB19562E672E782E492EEA
:1022000020E030E0A90169837A838B839C83698114
:102210007A818B819C810E94B218882309F4D2C1F3
:10222000AF81B8851F968D919C919C01990F440BAD
:10223000550B29833A834B835C83CA01B9010E9401
:102240002B191B018D839E839701A801E982FA82D5
:102250000B831C8369817A818B819C810E94DB19AD
:102260009B01AC0129823A828D818B839E819C8364
:1022700069817A818B819C810E94DB1920E030E0AA
:1022800040E058E369837A838B839C8369817A81F8
:102290008B819C810E94DB19362E272E8D839E8395
:1022A000AF81B8851D968D919C919C01990F440B2F
:1022B000550B29833A834B835C83CA01B9010E9481
:1022C0002B199701A80169837A838B839C83698189
:1022D0007A818B819C810E94DB199B01AC0169830F
:1022E0007A838B839C8369817A818B819C810E9414
:1022F0004618232D322D4D815E8169837A838B832D
:102300009C8369817A818B819C810E94461820E0A0
:1023100030E040E85EE369837A838B839C83698144
:102320007A818B819C810E94DB191B017C01D50184
:10233000C40124E0B595A795979587952A95D1F77F
:1023400089839A83AB83BC83BC01CD010E942B1986
:102350009B01AC0160E070E080E899E40E944518C0
:102360005B018C01AF81B8851B968D919C919C017E
:10237000990F440B550B29833A834B835C83CA0125
:10238000B9010E942B1920E030E040E857E469834E
:102390007A838B839C8369817A818B819C810E9463
:1023A000DB199101A70169837A838B839C836981FF
:1023B0007A818B819C810E94461820E030E040E8C1
:1023C00059E369837A838B839C8369817A818B81CA
:1023D0009C810E94DB199B01AC01A982BA820B830C
:1023E0001C8369817A818B819C810E94451820E041
:1023F00030E543EC55E469837A838B839C83698160
:102400007A818B819C810E94DB19252D362D472DE9
:10241000542D69837A838B839C8369817A818B8134
:102420009C810E94B7187B018C01AF81B8855596BD
:102430008D919C919C01990F440B550B29833A83F4
:102440004B835C83CA01B9010E942B199701A80133
:1024500069837A838B839C8369817A818B819C8158
:102460000E94DB199701A80169837A838B839C837F
:1024700069817A818B819C810E94DB1920E030E0A8
:1024800040E050E369837A838B839C8369817A81FE
:102490008B819C810E94DB194B015C01AF81B88567
:1024A00053968D919C919C01990F440B550B298358
:1024B0003A834B835C83CA01B9010E942B199701AF
:1024C000A80169837A838B839C8369817A818B815C
:1024D0009C810E94DB1920E030E040E058E36983F2
:1024E0007A838B839C8369817A818B819C810E9412
:1024F000DB199B01AC0189829A82AB82BC82698123
:102500007A818B819C810E9446184B015C01AF81CE
:10251000B88551968D919C919C01990F440B550B58
:1025200029833A834B835C83CA01B9010E942B192A
:102530009B01AC0189829A82AB82BC8269817A81DB
:102540008B819C810E94461820E030E040E85DE3EA
:1025500069837A838B839C8369817A818B819C8157
:102560000E94DB199701A80169837A838B839C837E
:1025700069817A818B819C810E944618362F272F92
:10258000432F522FBC01D6014D935D936D937C93E5
:10259000139728960FB6F894DEBF0FBECDBFDF911C
:1025A000CF911F910F91FF90EF90DF90CF90BF9050
:1025B000AF909F908F907F906F905F904F903F90E3
:1025C0002F90089530E020E080E090E0D9CFCF93C5
:1025D000DF9300D000D0CDB7DEB720E836EE45EC73
:1025E00057E4FB0160817181828193810E94B71859
:1025F00022E63BED42E45EE369837A838B839C832E
:1026000069817A818B819C810E94481A9B01AC016F
:1026100060E070E080E89FE30E94451820E03AE225
:102620004DE257E469837A838B839C8369817A8145
:102630008B819C810E94DB1969837A838B839C83C5
:1026400069817A818B819C810F900F900F900F9000
:10265000DF91CF910895CF92DF92EF92FF920F9387
:102660001F93CF93DF93D82FC92F6B018A01790174
:1026700045E564EF0E94770E2FEF82E191E0215053
:1026800080409040E1F700C00000A801B6018D2F06
:102690009C2F0E94FD0FB8018D2F9C2F0E94E712E6
:1026A000D7016D937D938D939C93139781E0DF9178
:1026B000CF911F910F91FF90EF90DF90CF900895F1
:1026C000B89A0895B89808950F931F93CF93DF9306
:1026D000EC01162F042F0E946213612F6062CE015D
:1026E0000E9497028E83602FCE010E949702DF9195
:1026F000CF911F910F910C94601361110C94601392
:10270000B8980895662311F0BC9A0895BC9808956E
:10271000DF92EF92FF920F931F93CF93DF938C0181
:10272000C62FD42EE52ED22F0E9462136C2FC80123
:102730000E949702F8018683CD2DFE2CDD0DDC135F
:1027400009C0DF91CF911F910F91FF90EF90DF9023
:102750000C9460136FEFC8010E949702EC2FFF2DBD
:102760008193CE2FFF2EEBCF1F93CF93DF93EC01FE
:10277000162F0E946213612FCE010E9497028E8352
:102780006FEFCE010E949702C82F0E9460138C2F1A
:10279000DF91CF911F910895EF92FF920F931F93B6
:1027A000CF93DF937C01D62F8A01C22F0E94621340
:1027B0006D2F6062C7010E949702F7018683C801EE
:1027C0001C2F180F181308C0DF91CF911F910F9184
:1027D000FF90EF900C946013EC016991C7010E9487
:1027E0009702CE01EFCF0F931F93CF938C01C62F8B
:1027F000222371F00E9462136C2F6062C8010E9454
:102800009702F8018683CF911F910F910C9460136A
:10281000CF911F910F910C946413DF92EF92FF926E
:102820000F931F93CF93DF938C017B01D22EFC017A
:10283000828981111DC0C781DC2F4C1708F4D42F69
:10284000CD1B0E9462136D2DC8010E949702F801F2
:102850008683C701DE0DD81313C0C11119C0DF91E3
:10286000CF911F910F91FF90EF90DF900C94601328
:10287000C1E04111C0E0D42F413218F3D0E2E1CFE2
:10288000FC0161917F01C8010E949702C701E3CF5B
:1028900060E0C8010E949702C150DFCFCF92DF9263
:1028A000EF92FF920F931F93CF93DF938C016B01F5
:1028B000FC01828981111FC0C781DC2F4C1708F4ED
:1028C000D42FCD1B0E94621361E6C8010E949702BB
:1028D000F8018683FC2CED2CDC0DDF1112C0C11138
:1028E0001AC0DF91CF911F910F91FF90EF90DF9071
:1028F000CF900C946013D42F403208F4D0E2C0E0A3
:10290000E1CF6FEFC8010E949702EF2DFE2D81935A
:10291000FE2EEF2EE2CF6FEFC8010E949702C1504A
:10292000DECFCF93DF93EC0121E04FEF62EE0E9408
:10293000F3138E81DF91CF910895CF93DF93EC0154
:1029400021E04FEF61EE0E94F3138E81DF91CF9172
:102950000895CF93DF93EC0121E04FEF6FEF0E94DA
:10296000F3138E81DF91CF910895FC01108682814F
:102970009381A481B581893B9848A105B10540F4B4
:1029800080E896E9A8E9B0E082839383A483B583C5
:102990000895FC011182428353836483758380E22E
:1029A00087831686178685E0818B81E0828B85E0A0
:1029B00090E0A0E0B0E0838B948BA58BB68BCF0129
:1029C0000C94B514462F6D3708F04DE765E00C9474
:1029D0006413EF92FF920F931F93CF93DF93CDB7C2
:1029E000DEB728970FB6F894DEBF0FBECDBF7C01CF
:1029F00009831A832B833C834D835E836F8378879F
:102A0000FC012189AE014F5F5F4F6AE00E94CC1349
:102A1000F7012189AE014F5F5F4F60E1C7010E945E
:102A2000CC1328960FB6F894DEBF0FBECDBFDF9152
:102A3000CF911F910F91FF90EF900895BC9ABC9891
:102A4000B89A0E9460132FEF80E792E021508040F7
:102A50009040E1F700C0000081E00895CF93DF933C
:102A6000EC0163E00E94B413982F29892250330BA4
:102A700081E09217130609F080E0DF91CF9108956D
:102A8000FC01BC9845854D7F458760E00C9464133C
:102A9000FC01458541FD0BC04260458760E00E9416
:102AA00064138FE097E20197F1F700C000000895EA
:102AB0000F93211107C020EA0E940D140111BC9A46
:102AC0000F91089520EBF8CF0F93CF93DF93EC0194
:102AD00001E00E945815CE010E94A9148073D9F319
:102AE000BC9840E767E0CE010E9464138E8184FFAA
:102AF00008C0CE010E949D1480E0DF91CF910F911C
:102B0000089581E0FACF20E00C946415DF92EF92F3
:102B1000FF920F931F93CF93DF93EC01F62E172FA5
:102B2000E42ED22ECE010E94A91480FD11C001E036
:102B30002D2D4E2D6F2D712FCE010E94581581E045
:102B4000DF91CF911F910F91FF90EF90DF9008954B
:102B50008E8184FFE7CF80E0F3CF20E00C948615D0
:102B6000CF93DF93EC01211112C020EACE010E9425
:102B70000D14BC9A8FEC97E00197F1F700C00000AC
:102B8000BC988E8180958170DF91CF91089520EB64
:102B9000EDCF67E10E94B413869581700895CF93BD
:102BA000DF93EC0167E1CE010E94B41384FF03C000
:102BB000BC9881E00DC08E8184FFF4CF40E167E0D6
:102BC000CE010E946413BC98CE010E949D1480E047
:102BD000DF91CF9108950F931F93CF938C01CEEF88
:102BE000C60F623061F0C3704C2F63E00E94641323
:102BF000CE5FF801C18BCF911F910F91089540E0F6
:102C000063E00E946413C2E0F4CFCF93DF93EC0142
:102C10000E94621360E5CE010E9497028E8363E7F3
:102C2000CE010E949702DF91CF910C9460130F9315
:102C30001F93CF93DF93182FD92FC62F042F66E051
:102C40000E94B413887F4C2FC43008F043E0440F37
:102C5000400F482B66E0812F9D2FDF91CF911F9170
:102C60000F910C946413603108F06FE020E1629FD3
:102C7000B0011124403108F04FE0462B64E00C9481
:102C800064131F93CF93DF93EC01613208F060E28D
:102C9000611101C061E06F8311E14F81612FCE01AD
:102CA0000E9464131F5F1731C1F7DF91CF911F910D
:102CB0000895FC016230710521F48BE9878B80E275
:102CC00008956130710521F085E5878B80E00895D6
:102CD00081E4878B88E00895FF920F931F93CF9331
:102CE000DF93182FD92FF62E072F66E00E94B4131A
:102CF000C82FC77D6F2D702F812F9D2F0E945916D1
:102D0000C82B4C2F66E0812F9D2F0E94641366E034
:102D1000812F9D2F0E94B413982F81E09C1380E097
:102D2000DF91CF911F910F91FF9008950F931F9303
:102D3000CF93DF93182FD92FC62FBA01022F0E94ED
:102D400059164C2FC43008F043E0440F400F482B75
:102D500066E0812F9D2FDF91CF911F910F910C94F1
:102D600064131F93CF93DF93EC018FE097E20197F9
:102D7000F1F700C000004FE564E0CE010E9464134B
:102D800021E050E040E063E0CE010E9496166DE144
:102D9000CE010E94B413182FCE010E9405166DE1DA
:102DA000CE010E94B41391E0181390E09E8788230F
:102DB00051F0181303C0CE010E94051640E06DE1EA
:102DC000CE010E946413188A40E06CE1CE010E949B
:102DD00064131A8A4FE361E0CE010E94641343E05A
:102DE00062E0CE010E94641360E2CE010E944116AF
:102DF00065E0CE010E94EB156CE4CE010E94E21466
:102E000040E767E0CE010E946413CE010E94911456
:102E1000CE010E949D144CE060E0CE010E9464133C
:102E200060E0CE010E94B4138D87CE010E94481548
:102E300081E09D859E3009F080E0DF91CF911F9168
:102E40000895CF93DF93D82FC92F0E941E15882392
:102E500031F08D2F9C2FDF91CF910C94B11680E033
:102E6000DF91CF910895CDB7DEB7EC970FB6F89408
:102E7000DEBF0FBECDBF68E071E09E012F5F3F4F08
:102E80006901C9010E94CD1BF8948091640088609B
:102E9000809364007E0131E2E30EF11C40E856E9C4
:102EA00068E970E0C7010E94C914C7010E94211798
:102EB0006CE5C7010E94E21470E060E0C7010E9467
:102EC0006C1641E060E0C7010E94171608E718E79A
:102ED00028E738E748E750E060E070E0C7010E946B
:102EE000E91460E072E18AE790E00E94800C789437
:102EF000F894809165008860809365004FEF57E8F3
:102F000083E1415050408040E1F700C000008091D3
:102F10006500877F8093650078941C2D0D2D0E949D
:102F2000A90C69AF7AAF8BAF9CAF809100019091F3
:102F30000101A0910201B091030129AD3AAD4BAD61
:102F40005CAD82179307A407B507A8F540E2612F8F
:102F5000702FC7010E9483158823F1F0F8948091A7
:102F600065008860809365003FEF40E752E0315094
:102F700040405040E1F700C0000080916500877F2D
:102F8000809365008FEF90E722E0815090402040D1
:102F9000E1F700C0000078940E94A90CDC01CB018D
:102FA0000196A11DB11D8093000190930101A09392
:102FB0000201B09303018091160190911701A09135
:102FC0001801B09119010196A11DB11D8093160140
:102FD00090931701A0931801B09319010E94A90CB6
:102FE0009ECFDB018F939F930E942318BF91AF91D7
:102FF000A29F800D911DA39F900DB29F900D112453
:103000000895A1E21A2EAA1BBB1BFD010DC0AA1F29
:10301000BB1FEE1FFF1FA217B307E407F50720F041
:10302000A21BB30BE40BF50B661F771F881F991FBC
:103030001A9469F760957095809590959B01AC0105
:10304000BD01CF0108950E943618A59F900DB49F31
:10305000900DA49F800D911D11240895B7FF0C942D
:1030600023180E942318821B930B0895A29FB0017E
:10307000B39FC001A39F700D811D1124911DB29FAC
:10308000700D811D1124911D08955058BB27AA274A
:103090000E945D180C94A1190E94931938F00E94A7
:1030A0009A1920F039F49F3F19F426F40C949019E2
:1030B0000EF4E095E7FB0C948A19E92F0E94B219EF
:1030C00058F3BA17620773078407950720F079F45D
:1030D000A6F50C94D4190EF4E0950B2EBA2FA02D62
:1030E0000B01B90190010C01CA01A0011124FF27B5
:1030F000591B99F0593F50F4503E68F11A16F040B0
:10310000A22F232F342F4427585FF3CF46953795AE
:103110002795A795F0405395C9F77EF41F16BA0B73
:10312000620B730B840BBAF09150A1F0FF0FBB1F21
:10313000661F771F881FC2F70EC0BA0F621F731F6A
:10314000841F48F4879577956795B795F7959E3FC7
:1031500008F0B0CF9395880F08F09927EE0F979558
:10316000879508950E94661908F481E008950E94E9
:10317000CB180C94A1190E949A1958F00E94931927
:1031800040F029F45F3F29F00C948A1951110C94F6
:10319000D5190C9490190E94B21968F39923B1F3D0
:1031A000552391F3951B550BBB27AA27621773076D
:1031B000840738F09F5F5F4F220F331F441FAA1F01
:1031C000A9F335D00E2E3AF0E0E832D091505040BD
:1031D000E695001CCAF72BD0FE2F29D0660F771F6B
:1031E000881FBB1F261737074807AB07B0E809F051
:1031F000BB0B802DBF01FF2793585F4F3AF09E3FD6
:10320000510578F00C948A190C94D5195F3FE4F3BA
:10321000983ED4F3869577956795B795F7959F5F18
:10322000C9F7880F911D9695879597F90895E1E064
:10323000660F771F881FBB1F621773078407BA07C3
:1032400020F0621B730B840BBA0BEE1F88F7E0951E
:103250000895E89409C097FB3EF490958095709589
:1032600061957F4F8F4F9F4F9923A9F0F92F96E9D2
:10327000BB279395F695879577956795B795F11147
:10328000F8CFFAF4BB0F11F460FF1BC06F5F7F4FE4
:103290008F4F9F4F16C0882311F096E911C07723F6
:1032A00021F09EE8872F762F05C0662371F096E8FF
:1032B000862F70E060E02AF09A95660F771F881FCE
:1032C000DAF7880F9695879597F90895990F000872
:1032D000550FAA0BE0E8FEEF16161706E807F907E8
:1032E000C0F012161306E407F50798F0621B730B83
:1032F000840B950B39F40A2661F0232B242B252B04
:1033000021F408950A2609F4A140A6958FEF811DA6
:10331000811D089597F99F6780E870E060E0089547
:103320009FEF80EC089500240A94161617061806DD
:103330000906089500240A941216130614060506B9
:103340000895092E0394000C11F4882352F0BB0F4A
:1033500040F4BF2B11F460FF04C06F5F7F4F8F4FAD
:103360009F4F089557FD9058440F551F59F05F3FE8
:1033700071F04795880F97FB991F61F09F3F79F097
:1033800087950895121613061406551FF2CF469519
:10339000F1DF08C0161617061806991FF1CF86959B
:1033A0007105610508940895E894BB27662777277F
:1033B000CB0197F908950E94EE190C94A1190E946F
:1033C000931938F00E949A1920F0952311F00C946B
:1033D0008A190C94901911240C94D5190E94B219D1
:1033E00070F3959FC1F3950F50E0551F629FF00158
:1033F000729FBB27F00DB11D639FAA27F00DB11D71
:10340000AA1F649F6627B00DA11D661F829F2227F9
:10341000B00DA11D621F739FB00DA11D621F839F80
:10342000A00D611D221F749F3327A00D611D231F56
:10343000849F600D211D822F762F6A2F11249F57A4
:1034400050409AF0F1F088234AF0EE0FFF1FBB1FA7
:10345000661F771F881F91505040A9F79E3F510566
:1034600080F00C948A190C94D5195F3FE4F3983ED0
:10347000D4F3869577956795B795F795E7959F5F10
:10348000C1F7FE2B880F911D9695879597F90895A2
:10349000FA01EE0FFF1F309621053105A1F16115EC
:1034A000710561F48038BFE39B0749F16894903857
:1034B000810561F08038BFEF9B0741F099234AF501
:1034C000FF3FE1053105210519F1E8940894E795DE
:1034D000D901AA2329F4AB2FBE2FF85FD0F310C077
:1034E000FF5F70F4A695E0F7F73950F019F0FF3A56
:1034F00038F49F779F930DD00F9007FC9058089554
:1035000046F00C94901960E070E080E89FE3089525
:103510004FE79F775F934F933F932F930E94431BF7
:103520002F913F914F915F910E94DB190C94A01A4B
:1035300029F416F00C948A190C94D4190C9490194F
:103540000E94BA19A8F39638A0F707F80F92E894EA
:103550002BE33AEA48EB5FE70E94F1190F920F92D2
:103560000F924DB75EB70F920E948B1BECE8F0E014
:103570000E94D21A4F915F91EF91FF91E595EE1F56
:10358000FF1F49F0FE57E0684427EE0F441FFA95ED
:10359000E1F74195550B0E94051B0F9007FE0C9417
:1035A000F91A0895DF93CF931F930F93FF92EF9231
:1035B000DF927B018C01689406C0DA2EEF010E9435
:1035C000EE19FE01E894A59125913591459155910B
:1035D000A6F3EF010E945D18FE019701A801DA949D
:1035E00069F7DF90EF90FF900F911F91CF91DF91DE
:1035F00008959B01AC0160E070E080E89FE30C94CB
:10360000B7180C948A190C94BF1B0E94BA19D8F3EE
:103610009923C9F3940F511DA3F39150504094F096
:1036200059F0882332F0660F771F881F9150504061
:10363000C1F79E3F51052CF7880F911D96958795F0
:1036400097F908955F3FACF0983E9CF0BB278695B4
:1036500077956795B79508F4B1609395C1F7BB0F5F
:1036600058F711F460FFE8CF6F5F7F4F8F4F9F4F88
:10367000E3CF0C94D51916F00C94BF1B0C94901941
:1036800068940C948A190E94BA19A8F39923C1F37B
:10369000AEF3DF93CF931F930F93FF92C92FDD27D4
:1036A00088232AF02197660F771F881FDAF720E01A
:1036B00030E040E85FEB9FE3883920F0803E38F04F
:1036C00021968F770E944618E4EBF0E004C00E9438
:1036D0004618E1EEF0E00E94D21A8B01BE01EC0127
:1036E000FB2E6F5771097595771F880B990B0E94F8
:1036F0002B1928E132E741E35FE30E94EE19AF2D79
:103700009801AE01FF900F911F91CF91DF910E9420
:103710005D180C94A119FA01DC01AA0FBB1F9B01D3
:10372000AC01BF5728F4222733274427507820C004
:10373000B75190F4AB2F0024469537952795011C7F
:10374000A395D2F3002071F0220F331F441FB395CD
:10375000DAF30ED00C94451861307105A0E88A07A1
:10376000B94630F49B01AC0166277727882790780B
:10377000309621F0208331834283538308959F3F05
:1037800031F0915020F4879577956795B795880F1C
:10379000911D9695879597F90895FB01DC0101909D
:0C37A0000D920020E1F70895F894FFCF8F
:1037AC0001000000FFFFFFFF48656C6C6F20576F36
:0637BC00726C64210000A4
:00000001FF
