:100000000C9487000C94A6000C94A6000C94A600F7
:100010000C94A6000C94A6000C94A6000C94A600C8
:100020000C94A6000C94A6000C94A6000C94A600B8
:100030000C945C0C0C94A6000C94A6000C94A600E6
:100040000C94A6000C94A6000C94A6000C94A60098
:100050000C94A6000C94A6000C94A6000C94A60088
:100060000C94A6000C94A6000C94A6000C94A60078
:100070000C94A6000C94A6000C94A6000C94A60068
:100080000C94A6000C94A6000C94A60007634236BC
:10009000B79BD8A71A39685618AEBAAB558C1D3C19
:1000A000B7CC5763BD6DEDFD753EF6177231BF00DD
:1000B0000000803F08000000BE922449123EABAA17
:1000C000AA2ABECDCCCC4C3E00000080BEABAAAA72
:1000D000AA3E00000000BF000000803F00000000BA
:1000E00000084178D3BB4387D1133D190E3CC3BDF3
:1000F0004282AD2B3E68EC8276BED98FE1A93E4CA0
:1001000080EFFFBE01C4FF7F3F000000000011240C
:100110001FBECFEFD0E1DEBFCDBF11E0A0E0B1E068
:10012000E4E4F3E300E00BBF02C007900D92A231BC
:10013000B107D9F723E0A2E1B1E001C01D92A134DB
:10014000B207E1F70E9449150C94A0190C94000025
:100150000F931F93CF93DF93EC01CB01BA01A90159
:1001600098016A837B838C839D830E833F834887BA
:1001700059870E94CD1520513109410951095695E1
:100180004795379527952093700010927100E4E70A
:10019000F0E080818460808381E08883DF91CF916B
:1001A0001F910F910895FC0180810895FC018081C9
:1001B000882349F084EA809374008091740087FF5B
:1001C000FCCF81E081830895FC018181882329F09F
:1001D00084E980937400118281E00895FC0180819C
:1001E000882339F0809174008B7F80937400108293
:1001F00081E00895FC0180818823F9F081818823C2
:10020000E1F06093730084E880937400809174003F
:1002100087FFFCCF80917100887F883169F08091E1
:100220007100887F883241F090917100987F81E061
:10023000903419F080E0089581E00895FC01DB011D
:100240008081811102C080E0089581818823D9F3E3
:10025000809174004423C9F080648093740084E822
:10026000809374008091740087FFFCCF80917100AF
:10027000887F883529F080917100887F803519F753
:10028000809173008C9381E008958F7BE6CFFF927D
:100290000F931F93CF93DF93D82FC92F162FF42ED0
:1002A000022F0E94D600612F660F8D2F9C2F0E9477
:1002B000FA006F2D8D2F9C2F0E94FA00602F8D2F3A
:1002C0009C2F0E94FA008FE19EE40197F1F700C095
:1002D00000008D2F9C2F0E94E4008FED9EE201977D
:1002E000F1F700C00000DF91CF911F910F91FF90B7
:1002F0000895BF92CF92DF92EF92FF920F931F93D8
:10030000CF93DF93D82FC92FF62EB42EE22E68019B
:100310000E94D600FF0C6F2D8D2F9C2F0E94FA009B
:100320006B2D8D2F9C2F0E94FA008D2F9C2F0E94E9
:10033000E4008D2F9C2F0E94D60061E06F0D8D2F61
:100340009C2F0E94FA00E00EF12EF11CCE14DF0467
:1003500069F48D2F9C2FDF91CF911F910F91FF900A
:10036000EF90DF90CF90BF900C94E40041E0B60195
:100370008D2F9C2F0E941E018FEFC81AD80AE6CF3E
:10038000A19A0895A998A19A8FEB93E00197F1F7AC
:1003900000C00000A19890EA9A95F1F783B3E7E4D2
:1003A000F3E03197F1F700C0000082700895A9983A
:1003B000A19A82E08A95F1F700C0A19895E29A95FA
:1003C000F1F7000083B398E79A95F1F7869581706D
:1003D0000895A998A19A82E08A95F1F700C0611169
:1003E000A19880EA8A95F1F7A19808950F931F9339
:1003F000CF93DF93182F092FD9E080E0D15029F453
:10040000DF91CF911F910F910895C82FC695812F2D
:10041000902F0E94D70120E8829FC00111248C2BCD
:10042000EDCF0F931F93CF93DF93182F092FC62F74
:10043000D9E0D15029F4DF91CF911F910F91089508
:100440006C2F6170812F902F0E94E901C695F1CF2A
:10045000611109C089B91092900086E080939500DF
:1004600088E98AB90895109298008093990088E9E4
:1004700080939A008EE080939D0008955D9B03C059
:1004800090E080E008958CB9F9CF5F9BFECF8CB1EE
:1004900090E0089590919B0095FF21C0F894809181
:1004A00065008860809365002FEF80E792E021501F
:1004B00080409040E1F700C0000080916500877F98
:1004C000809365002FEF80E792E0215080409040BC
:1004D000E1F700C00000789490E080E008958093F8
:1004E0009C00D8CF80919B0087FFFCCF80919C001F
:1004F00090E00895FC0197B3976097BBBB9883E5A4
:100500008DB91EB881E081830895FC018181089531
:10051000FC01862F6FB9779BFECF9FB19083089522
:100520008FEF8FB9779BFECF8FB108956FB9000021
:10053000779BFECF8FB108950F931F93CF93DF93D7
:1005400000D000D000D0CDB7DEB78D839E830E944F
:10055000A80C8B018D819E810E949002ED81FE810D
:1005600083878F3F99F08E3F01F18DE0ED81FE8111
:100570008683C09A80E026960FB6F894DEBF0FBE41
:10058000CDBFDF91CF911F910F9108950E94A80CCC
:1005900069837A838B839C8389819A81801B910BE9
:1005A0008D329140B8F28FE0E1CF81E0E4CFCF937C
:1005B000DF93EC018F81811106C0DF91CF91089507
:1005C000CE010E949002888599859C012F5F3F4F44
:1005D000398728878230924098F3C09A1F82EDCFE6
:1005E000EF92FF920F931F93CF93DF9300D000D031
:1005F00000D0CDB7DEB7F82EE92E8B010E94A80CF3
:100600006D837E838F2D9E2D0E9490028F3FE9F097
:100610000E94A80C69837A838B839C8329813A8109
:100620008D819E81281B390B2017310758F380E0FC
:1006300026960FB6F894DEBF0FBECDBFDF91CF91E7
:100640001F910F91FF90EF90089581E0F1CFAF924D
:10065000BF92CF92DF92EF92FF921F93CF93DF93DF
:10066000EC01162F69017A01C0986CE271E00E94DA
:10067000F002612F6064CE010E94880288E1A82EFA
:10068000B12CC701B6010A2C04C0969587957795C1
:1006900067950A94D2F7CE010E94880288E0A81AD2
:1006A000B10888EFA8168FEFB80659F765E911234E
:1006B00021F067E8183009F06FEFCE010E94880240
:1006C00010E0CE010E9490028B8787FF04C01F3F7D
:1006D00011F01F5FF6CFDF91CF911F91FF90EF9048
:1006E000DF90CF90BF90AF900895EF92FF920F935D
:1006F0001F93CF93DF93EC017A0120E030E0A90152
:100700000E942703882329F08EE08E83C09A80E020
:100710001AC0CE010E949C028823C1F38701C70141
:1007200040967C01CE010E949002F80181938F01D6
:10073000EE15FF05B9F7CE010E949002CE010E948E
:100740009002C09A81E0DF91CF911F910F91FF90AD
:10075000EF9008954F925F926F927F92AF92BF9207
:10076000CF92DF92EF92FF920F931F93CF93DF937D
:10077000EC012A013B0159016801C801820F931F56
:100780008130924048F58F81882371F08A819B8166
:10079000AC81BD8184159505A605B70529F488852A
:1007A0009985A816B90690F54A825B826C827D8293
:1007B0008C85833039F089E0440C551C661C771C0D
:1007C0008A95D1F7A301920161E1CE010E9427032E
:1007D000882399F083E08E83C09A80E0DF91CF91E7
:1007E0001F910F91FF90EF90DF90CF90BF90AF904F
:1007F0007F906F905F904F900895CE010E949C0271
:10080000882351F31986188681E08F83888599851E
:100810008A159B05C0F05701EC0CFD1CEA14FB0483
:10082000D9F488859985C80ED91ED986C8868A8547
:10083000882321F0C114F2E0DF0618F0CE010E94F7
:10084000D70281E0CBCFCE010E94900288859985A6
:10085000019699878887DACFCE010E949002F50130
:1008600081935F01DBCF0F931F93CF93DF93CDB7BE
:10087000DEB764970FB6F894DEBF0FBECDBF8C0114
:10088000AE014F5F5F4F69E00E947503882309F452
:1008900073C08981807C09F042C08F81837090E0B1
:1008A000982F8827990F990F288544E0249F90015D
:1008B0001124822B932B298522952695269523702A
:1008C000822B0196B0E0A0E02A852370220F3B85A1
:1008D00037FB332730F9232B3E813F70230F33271B
:1008E000331F27503109AC01BD0104C0440F551F0F
:1008F000661F771F2A95D2F7498B5A8B6B8B7C8B9F
:1009000069897A898B899C8964960FB6F894DEBFD1
:100910000FBECDBFDF91CF911F910F91089580340D
:1009200041F588858695869590E0B0E0A0E0DC01F1
:10093000992788272A85822B498550E0542F442700
:10094000052E000C660B770B842B952BA62BB72B53
:100950000196A11DB11D9C01AD016AE0220F331F5C
:10096000441F551F6A95D1F7298B3A8B4B8B5C8BB3
:10097000C7CF89E0F8018683198A1A8A1B8A1C8AE4
:10098000BFCFCF93DF93CDB7DEB764970FB6F894A0
:10099000DEBF0FBECDBFAE014F5F5F4F69E00E946B
:1009A00075038823C9F08B8586FB882780F9282F5B
:1009B00030E050E040E0298B3A8B4B8B5C8B6989AF
:1009C0007A898B899C8964960FB6F894DEBF0FBE36
:1009D000CDBFDF91CF910895198A1A8A1B8A1C8A8C
:1009E000EECF8F929F92AF92BF92CF92DF92EF9213
:1009F000FF920F931F93CF93DF9300D000D000D0CE
:100A0000CDB7DEB78D839E834A015B016801790112
:100A10008D819E810E94C10469837A838B839C832C
:100A2000672B682B692B09F454C0AD81BE811C96DD
:100A30008C91833071F089E0880C991CAA1CBB1C36
:100A40008A95D1F799E0CC0CDD1CEE1CFF1C9A9521
:100A5000D1F7A501940160E28D819E810E94270358
:100A6000882339F08AE0ED81FE818683C09A80E098
:100A70001DC0A701960161E28D819E810E9427031E
:100A80008111F0CF20E030E0A90166E28D819E81E6
:100A90000E9427038111E6CF60E177E28D819E817C
:100AA0000E94F0028823B9F0C09A81E026960FB622
:100AB000F894DEBF0FBECDBFDF91CF911F910F9194
:100AC000FF90EF90DF90CF90BF90AF909F908F906E
:100AD00008958BE0C8CF8CE0C6CFCF92DF92EF9223
:100AE000FF920F931F93CF93DF9300D000D000D0DD
:100AF000CDB7DEB78D839E83F42EED81FE81148603
:100B00001286178216820E94A80C8B01F11004C075
:100B10008D819E810E947A02C09A0000C098ED816A
:100B2000FE81F38420E030E0A90160E0CF010E9463
:100B30002703F81609F476C02AEA31E040E050E0D5
:100B400068E08D819E810E94270382FD80C024E0A1
:100B5000F22E8D819E810E949002ED81FE8183871D
:100B6000FA94F110F6CF8A3A09F083C082E0ED8161
:100B7000FE818487C12CD12C7601C394823019F078
:100B8000C12CD12C76018EE1CC0CDD1CEE1CFF1C9F
:100B90008A95D1F720E030E0A90167E38D819E813D
:100BA0000E942703A701960169E28D819E810E9420
:100BB0002703ED81FE81838781114BC084858230BC
:100BC00001F520E030E0A9016AE3CF010E9427038C
:100BD000811151C08D819E810E949002807C803C59
:100BE00021F483E0ED81FE8184878D819E810E94C6
:100BF00090028D819E810E9490028D819E810E9433
:100C00009002C09A81E026960FB6F894DEBF0FBE20
:100C1000CDBFDF91CF911F910F91FF90EF90DF90AB
:100C2000CF9008950E94A80C69837A838B839C835C
:100C300089819A81801B910B813D974008F46FCF89
:100C400081E0ED81FE818683C09A80E0DCCF81E087
:100C50008ECF0E94A80C69837A838B839C838981C1
:100C60009A81801B910B813D974008F493CF88E0D7
:100C7000E8CF82E0E6CF86E0E4CF1F93CF93DF9307
:100C8000EC01162F0E94D7021A87DF91CF911F9196
:100C90000895EF92FF920F931F93790100E012E005
:100CA00030E020E00E94AA031F910F91FF90EF9087
:100CB0000895EF92FF920F931F93F801EF2B39F0F5
:100CC0000E94AA031F910F91FF90EF90089581E079
:100CD000F9CFEF92FF920F931F93CF93DF93EC0125
:100CE0007A010E9488028701C7019E5F7C01F8019A
:100CF00061918F01CE010E9488020E151F05B9F780
:100D00006FEFCE010E9488026FEFCE010E94880231
:100D1000CE010E9490028B878F71853059F081E15E
:100D20008E83C09A80E0DF91CF911F910F91FF9049
:100D3000EF90089581E0F7CFCF92DF92EF92FF928C
:100D40000F931F93CF93DF93EC016A017B0189011D
:100D500082E1C114D104E104F10499F08C8583305F
:100D600039F089E0CC0CDD1CEE1CFF1C8A95D1F714
:100D7000A701960168E1CE010E942703882329F08C
:100D800084E08E83C09A80E022C0A8016EEFCE017D
:100D90000E9469068823B1F368E572E0CE010E94E3
:100DA000F002811102C085E1ECCF20E030E0A90122
:100DB0006DE0CE010E942703882311F084E1E1CF8A
:100DC000CE010E9490028111F9CFC09A81E0DF919B
:100DD000CF911F910F91FF90EF90DF90CF900895EA
:100DE0000F931F93CF93DF93EC018B0168E572E0C3
:100DF0000E94F002882349F0A8016CEFCE01DF9138
:100E0000CF911F910F910C94690683E18E83C09A54
:100E100080E0DF91CF911F910F910895AF92BF9223
:100E2000CF92DF92EF92FF920F931F93CF93DF93B6
:100E3000EC016A017B01590182E1C114D104E10492
:100E4000F10411F120E030E0A90167E3CE010E9436
:100E500027039801A50167E1CE010E9427038111B4
:100E600021C08C85833039F089E0CC0CDD1CEE1C70
:100E7000FF1C8A95D1F7A701960169E1CE010E9476
:100E80002703882389F085E08E83C09A80E0DF9174
:100E9000CF911F910F91FF90EF90DF90CF90BF9077
:100EA000AF90089587E0F0CF81E0F1CFCF93DF934B
:100EB000EC0168E572E00E94F002882381F06DEF9A
:100EC000CE010E94880268E572E0CE010E94F00225
:100ED000882329F0C09A81E0DF91CF91089580E1C5
:100EE0008E83C09A80E0F8CF80913A018823A9F1DF
:100EF0004091040150910501609106017091070134
:100F00002DE331E080913B0190913C010E949C06D1
:100F1000811102C080E0089540913601509137015F
:100F200060913801709139014115510561057105D4
:100F300091F02DE331E080913B0190913C010E94C2
:100F40009C06882339F310923601109237011092D3
:100F500038011092390110923A0181E00895CF9240
:100F6000DF92EF92FF92CF936B017C01C42F8091AF
:100F7000040190910501A0910601B09107018C1523
:100F80009D05AE05BF05F9F00E947407811107C0E9
:100F900080E0CF91FF90EF90DF90CF9008952DE308
:100FA00031E0B701A60180913B0190913C010E9484
:100FB0004906882369F3C0920401D0920501E092AA
:100FC0000601F092070140913A014C2B40933A01FF
:100FD00081E0DFCF0F931F93CF93DF938B01D82F47
:100FE000C92F0E9474078823C1F0EDE3F1E080E08F
:100FF00092E0DF019C011D9221503040E1F7009307
:10100000040110930501D0930601C093070180915C
:101010003A01816080933A0181E0DF91CF911F9185
:101020000F9108958F929F92AF92BF92CF92DF92CD
:10103000EF92FF920F931F93CF93DF9300D000D0D6
:1010400000D0CDB7DEB78C016A017B012D833E83D2
:10105000FC0181859285A385B4850196A11DB11DF2
:101060008C159D05AE05BF05A0F480E026960FB651
:10107000F894DEBF0FBECDBFDF91CF911F910F91CE
:10108000FF90EF90DF90CF90BF90AF909F908F90A8
:10109000089543895489658976898789803199F5CE
:1010A000BB27AF2D9E2D8D2D4A015B01880E991E09
:1010B000AA1EBB1E89829A82AB82BC8280910401E7
:1010C00090910501A0910601B0910701881699063B
:1010D000AA06BB0611F5F8018789803141F5DD24A8
:1010E000EE24FF24F601EE0FFF1FE35CFE4F80812C
:1010F0009181B0E0A0E0ED81FE8180839183A283A5
:10110000B38381E0B3CFD701C60127E0B695A79599
:10111000979587952A95D1F7C7CF40E069817A8165
:101120008B819C810E94AF078111D5CF9ECFE8941F
:10113000C7F8DD24EE24FF24F601EE0FFF1FEE0FAB
:10114000FF1FE35CFE4F80819181A281B381BF705C
:10115000D2CF4F925F926F927F928F929F92AF9277
:10116000BF92EF92FF920F931F93CF93DF9300D024
:1011700000D0CDB7DEB78C0149835A836B837C8363
:101180007901812C912C5401412C82E0582E612C44
:10119000712C49815A816B817C819E012F5F3F4F69
:1011A000C8010E941208882339F1F8018585A3013E
:1011B000920104C0220F331F441F551F8A95D2F796
:1011C000DA01C901880E991EAA1EBB1E49815A81E7
:1011D0006B817C818789803111F188EF9FEFAFEFC0
:1011E000BFE0481759076A077B0798F2F70180822A
:1011F0009182A282B38281E00F900F900F900F90A6
:10120000DF91CF911F910F91FF90EF90BF90AF9022
:101210009F908F907F906F905F904F90089588EF90
:101220009FEFA0E0B0E0DDCF6F927F928F929F9210
:10123000AF92BF92CF92DF92EF92FF920F931F93E4
:10124000CF93DF93EC016A017B01390182E0C8167C
:10125000D104E104F10480F480E0DF91CF911F918B
:101260000F91FF90EF90DF90CF90BF90AF909F9045
:101270008F907F906F90089589859A85AB85BC8506
:101280000196A11DB11D8C159D05AE05BF0520F36E
:101290008B889C88AD88BE888F898031E1F5BB271B
:1012A000AF2D9E2D8D2D880E991EAA1EBB1E8091DE
:1012B000040190910501A0910601B09107018816E3
:1012C0009906AA06BB0689F58F898031B1F5DD2420
:1012D000EE24FF24F601EE0FFF1FE35CFE4F1183A7
:1012E000008380913A01816080933A018A8982303B
:1012F00080F08D819E81AF81B885880D991DAA1DD2
:10130000BB1D8093360190933701A0933801B093B1
:10131000390181E0A2CFDB01CA0127E0B695A7958C
:10132000979587952A95D1F7BECF40E0C501B401C6
:101330000E94AF078111C8CF8FCFE894C7F8DD2492
:10134000EE24FF24F601EE0FFF1FEE0FFF1FE35CFC
:10135000FE4F0083118362827382C3CF2F923F922C
:101360004F925F926F927F928F929F92AF92BF92B5
:10137000CF92DF92EF92FF920F931F93CF93DF9361
:10138000CDB7DEB72F970FB6F894DEBF0FBECDBF37
:101390003C014E835F83688779872A873B87AA85CC
:1013A000BB85CD90DD90ED90FC90C114D104E1049B
:1013B000F10439F0BFEFCB1ADB0AEB0AFB0A1D82FE
:1013C00010C0FC01C080D180E280F380F1E0FD8399
:1013D0000E811F81288539850130110521053105D0
:1013E00071F7F30181859285A385B4858C019D01F8
:1013F0000F5F1F4F2F4F3F4F0C871D872E873F8753
:1014000046015701212C312C2101F3018185928560
:10141000A385B485281639064A065B0608F044C041
:101420000C851D852E853F85081519052A053B0568
:1014300050F482E0882E912CA12CB12C92E0C92E80
:10144000D12CE12CF12C9E012F5F3F4FB501A4015F
:10145000C3010E941208882339F1D501C401019605
:10146000A11DB11D49815A816B817C81452B462B81
:10147000472BA9F5AC01BD014C195D096E097F0927
:101480000E811F8128853985401751076207730730
:1014900041F50FEF1FEF2FEF3FE0B501A401C301AE
:1014A0000E941409811137C01D828D812F960FB6BD
:1014B000F894DEBF0FBECDBFDF91CF911F910F918A
:1014C000FF90EF90DF90CF90BF90AF909F908F9064
:1014D0007F906F905F904F903F902F9008956C0198
:1014E0007D011FEF211A310A410A510A4C015D01A9
:1014F0008CCF1401250121E0221A3108410851083E
:1015000095018401B201A101C3010E94140988233D
:1015100059F252014101C814D904EA04FB0448F30A
:10152000AA85BB854D915D916D917C9141155105C9
:101530006105710561F4EA85FB85C082D182E28292
:10154000F382FD81F1110BC001E00D83AECF970155
:101550008601C3010E9414098111EDCFA5CF1FEFB1
:10156000C11AD10AE10AF10AD301CD92DD92ED92BE
:10157000FC9213979ACF8F929F92AF92BF92EF9265
:10158000FF920F931F93CF93DF9300D000D0CDB77E
:10159000DEB77C014A015B0182E090E0A0E0B0E0B0
:1015A000F70180839183A283B3839E012F5F3F4F16
:1015B000B501A401C7010E941208882381F100E04F
:1015C00010E09801B501A401C7010E941409882305
:1015D00031F189809A80AB80BC80F70187898031A6
:1015E000C9F088EF9FEFAFEFBFE088169906AA0613
:1015F000BB06D8F281E00F900F900F900F90DF9113
:10160000CF911F910F91FF90EF90BF90AF909F905F
:101610008F90089588EF9FEFA0E0B0E0E6CF80E0E4
:10162000EACF4F925F926F927F928F929F92AF928A
:10163000BF92CF92DF92EF92FF920F931F93CF93BF
:10164000DF9300D000D000D0CDB7DEB72C01142F2F
:1016500070933C0160933B01442309F411C1453070
:10166000C0F080E026960FB6F894DEBF0FBECDBF67
:10167000DF91CF911F910F91FF90EF90DF90CF906E
:10168000BF90AF909F908F907F906F905F904F90A2
:10169000089540E060E070E0CB010E94AF0788232E
:1016A00001F3812F8150990BAC0164E0440F551F69
:1016B0006A95E1F7CA01835C9E4F45505D4FDA01A0
:1016C0002C912F7771F6FC01E653FE4F408151813A
:1016D00062817381443651056105710510F28A53A8
:1016E0009E4FFC01C080D180E280F380C114D10400
:1016F000E104F10409F4B5CF40E0C701B6010E944E
:10170000AF07882309F4ADCF80914801909149013A
:101710008115924009F0A5CF90914D01992309F4CC
:10172000A0CF20914B0130914C01232B09F499CF8C
:1017300080914A01882309F494CFD20152969C9358
:10174000529714968C9314971D961C9290E061E02A
:1017500070E0D2011D962C91622EAB01022E02C0C8
:10176000440F551F0A94E2F78417950709F08CC0BF
:10177000209153013091540150E040E02115310592
:1017800041F42091610130916201409163015091D7
:101790006401F201258336834783508780914B0192
:1017A00090914C0146015701880E991EA11CB11C55
:1017B000838A948AA58AB68A00914E0110914F01BE
:1017C000118F008FA0914D01B0E00E94EF15DC0158
:1017D000CB01880D991DAA1DBB1D828F938FA48FED
:1017E000B58F25E0000F111F2A95E1F701501E4F1C
:1017F000012F11270695800F911FA11DB11D86870E
:101800009787A08BB18B409150015091510170E0AE
:1018100060E04115510541F440915D0150915E0138
:1018200060915F0170916001C81AD90AEA0AFB0A47
:10183000C40ED51EE61EF71E04C0F694E794D79496
:10184000C7946A94D2F7D2011996CD92DD92ED92A7
:10185000FC921C978CE0F201B5EFCB16BFE0DB06E3
:10186000E104F10438F1F5EFCF16FFEFDF06E104F4
:10187000F10490F480E1D20157968C9381E0F2CE8E
:10188000C12CD12C760138CF31E0320FF2013587EF
:10189000283008F45ECFE5CE8091690190916A010D
:1018A000A0916B01B0916C01F201828F938FA48F94
:1018B000B58F80E2878BE2CF1F921FB61F92112453
:1018C0008F939F93AF93BF9380913D0390913E037D
:1018D000A0913F03B09140030196A11DB11D8093DB
:1018E0003D0390933E03A0933F03B0934003BF9109
:1018F000AF919F918F911F901FBE1F901895CF930E
:10190000DF9300D000D0CDB7DEB769837A838B83B5
:101910009C8388E08EBD8EB583608EBD69817A819F
:101920008B819C8120E03AEF40E050E00E94CD1591
:10193000BB27A52F942F832F8BBD2ABD87B780612E
:1019400087BF0F900F900F900F90DF91CF91089568
:10195000CF93DF9300D000D0CDB7DEB7F89480915D
:101960003D0390913E03A0913F03B09140038983D2
:101970009A83AB83BC83789469817A818B819C81C3
:101980000F900F900F900F90DF91CF9108950F93CC
:101990001F93CF93DF930F92CDB7DEB71982FC016F
:1019A0008E010F5F1F4F21E040E06191CF010E9447
:1019B000790181E09981953E09F080E00F90DF91F7
:1019C000CF911F910F910895FC012BE041E36191AC
:1019D000CF010C944701FC0128E04DE26191CF0159
:1019E0000C944701FF920F931F93CF93DF93EC0169
:1019F000F62E41110BC000EA16E821E030E040E08D
:101A000052E16AE770E001960E94A800F882CE01D8
:101A10000E94C70C882371F028E04CE2FE0161911E
:101A2000CF010E944701CE010E94E40CCE010E942A
:101A3000EB0C81E0DF91CF911F910F91FF90089502
:101A4000AF92BF92CF92DF92EF92FF920F931F93CC
:101A5000CF93DF9300D000D000D0CDB7DEB75B01CD
:101A60006A017901FC018E010F5F1F4F26E042E3FE
:101A70006191CF010E94790189819A81F501918359
:101A800080838B819C81F601918380838D819E81EF
:101A9000F7019183808326960FB6F894DEBF0FBEC0
:101AA000CDBFDF91CF911F910F91FF90EF90DF900D
:101AB000CF90BF90AF900895CF92DF92EF92FF92B8
:101AC0000F931F93CF93DF93CDB7DEB72A970FB64F
:101AD000F894DEBF0FBECDBF6B017A0189019E0174
:101AE0002F5F3F4FAE014D5F5F4FBE016B5F7F4F7A
:101AF0000E94200D8D819E819C01990F440B550BF6
:101B00002F83388749875A87CA01B9010E94F7167F
:101B10002DEC3CEC4CE15DE36F83788789879A87F5
:101B20006F81788589859A850E94A717D6016D9364
:101B30007D938D939C9313978B819C819C01990F2E
:101B4000440B550B2F83388749875A87CA01B9013F
:101B50000E94F7162DEC3CEC4CE15DE36F83788737
:101B600089879A876F81788589859A850E94A717CA
:101B7000D7016D937D938D939C93139789819A815F
:101B80009C01990F440B550B2F83388749875A873F
:101B9000CA01B9010E94F7162DEC3CEC4CE15DE363
:101BA0006F83788789879A876F81788589859A85F9
:101BB0000E94A717D8016D937D938D939C931397E3
:101BC0002A960FB6F894DEBF0FBECDBFDF91CF913E
:101BD0001F910F91FF90EF90DF90CF9008950C949C
:101BE000C0010F931F93CF93DF93D82FC92F8B0181
:101BF0000E94C2016CEC8D2F9C2F0E94110264E4A4
:101C00008D2F9C2F0E9411028D2F9C2F0E94D70197
:101C10008823D1F38D2F9C2F0E94C2016CEC8D2F55
:101C20009C2F0E9411026EEB8D2F9C2F0E9411029F
:101C30008D2F9C2F0E94F601F80180838D2F9C2F01
:101C40000E94F601F80181838D2F9C2FDF91CF91A7
:101C50001F910F910C94C2010F931F93CF93DF93A9
:101C600000D000D000D0CDB7DEB78B01BE016F5FD2
:101C70007F4F0E94F10D89819A819C01990F440B3D
:101C8000550B2B833C834D835E83CA01B9010E94AF
:101C9000F71620E030E040E85DE36B837C838D83C2
:101CA0009E836B817C818D819E810E94A71720E09D
:101CB00030E040E05DE36B837C838D839E836B81AA
:101CC0007C818D819E810E941216D8016D937D9337
:101CD0008D939C93139726960FB6F894DEBF0FBE94
:101CE000CDBFDF91CF911F910F910895FC01242F5B
:101CF000462F60814B960C9447010F931F93CF930F
:101D0000DF930F92CDB7DEB7FC01462F8E010F5F38
:101D10001F4F21E060814B960E94790189810F90CD
:101D2000DF91CF911F910F9108950F931F93CF9340
:101D3000DF9300D0CDB7DEB7FC01462F8E010F5FD9
:101D40001F4F22E060814B960E94790189819A8120
:101D50009827892798270F900F90DF91CF911F9197
:101D60000F9108950E94950E982789279827089526
:101D70000C94B20E0F931F93CF93DF9300D000D03B
:101D800000D00F92CDB7DEB7FC01462F8E010F5F5A
:101D90001F4F23E060814B960E94790189819A81CF
:101DA000982789279827B0E0A0E0BA2FA92F982F6D
:101DB00088272B81AC01422BCD01BA0127960FB6A3
:101DC000F894DEBF0FBECDBFDF91CF911F910F9171
:101DD0000895CF93DF93EC0168E80E94B20E8983E7
:101DE0006AE8CE010E94B20E9C838B836CE8CE0120
:101DF0000E94B20E9E838D836EE8CE010E94B20EC9
:101E00008A8360E9CE010E94B20E98878F8362E9CF
:101E1000CE010E94B20E9A87898764E9CE010E94A2
:101E2000B20E9C878B8766E9CE010E94B20E9E8718
:101E30008D8768E9CE010E94B20E988B8F876AE980
:101E4000CE010E94B20E9A8B898B6CE9CE010E9462
:101E5000B20E9C8B8B8B6EE9CE010E94B20E9E8BD4
:101E60008D8BDF91CF910895FF920F931F93CF93A6
:101E7000DF93EC01F62E41110BC000EA16E821E0D9
:101E800030E040E052E16AE770E04B960E94A80023
:101E9000F88260EDCE010E947D0E883579F4CE0186
:101EA0000E94E90E48E665EFCE010E94760E81E0C1
:101EB000DF91CF911F910F91FF90089580E0F8CFAF
:101EC000CF92DF92EF92FF920F931F93CF93DF9306
:101ED000CDB7DEB72A970FB6F894DEBF0FBECDBFE1
:101EE00089879A876AEF89859A850E94BA0E6D83E1
:101EF0007E838F839887E985FA85818190E0B0E0C1
:101F0000A0E00D811E812F8138857727632F522F06
:101F1000412F8A019B01081B190B2A0B3B0B0983DC
:101F20001A832B833C832D813E814F81588567E046
:101F300056954795379527956A95D1F7880F991F3C
:101F4000AA1FBB1F281B390B4A0B5B0BA381B48153
:101F50000E94FA156B017C01ABE0F594E794D794ED
:101F6000C794AA95D1F729813A814B815C81CA0136
:101F7000B9010E94BD159B01AC01BCE05595479588
:101F800037952795BA95D1F7A581B6810E94FA15A4
:101F9000DC01CB011EE0B595A795979587951A951D
:101FA000D1F7A7019601280F391F4A1F5B1F278B06
:101FB000308F418F528FA5E0B0E00E94EF15DC0119
:101FC000CB0180589F4FAF4FBF4F092F1A2F2B2F98
:101FD000332727FD3A95C901B8012A960FB6F89420
:101FE000DEBF0FBECDBFDF91CF911F910F91FF904C
:101FF000EF90DF90CF9008952F923F924F925F9293
:102000006F927F928F929F92AF92BF92CF92DF9208
:10201000EF92FF920F931F93CF93DF93CDB7DEB76D
:1020200028970FB6F894DEBF0FBECDBF8F83988779
:102030008B016A018F8198850E94600FD8016D9392
:102040007D938D939C93139767EF8F8198850E9462
:10205000BA0E4B015C01EF81F8856789708D818D27
:10206000928D0E94F71620E030E040E05FE3698344
:102070007A838B839C8369817A818B819C810E9486
:10208000A71720E030E04AE757E469837A838B831F
:102090009C8369817A818B819C810E9411167B01CE
:1020A0008C01AF81B88519968D919C919C01990FF7
:1020B000440B550B29833A834B835C83CA01B901D6
:1020C0000E94F7169701A80169837A838B839C830A
:1020D00069817A818B819C810E94A7179701A80151
:1020E00069837A838B839C8369817A818B819C81CC
:1020F0000E94A71720E030E040E056E369837A832E
:102100008B839C8369817A818B819C810E94A71734
:102110002B013C01AF81B88517968D919C919C0154
:10212000990F440B550B29833A834B835C83CA0177
:10213000B9010E94F7169701A80169837A838B83FE
:102140009C8369817A818B819C810E94A7179B0166
:10215000AC0149825A826B827C8269817A818B814F
:102160009C810E94121620E030E040E056E3698333
:102170007A838B839C8369817A818B819C810E9485
:10218000A71720E030E040E058E369837A838B832F
:102190009C8369817A818B819C810E94A71720E0B2
:1021A00030E040E85FE369837A838B839C836981B5
:1021B0007A818B819C810E9412162B013C01AF8198
:1021C000B88512968C91282F30E050E040E02983AA
:1021D0003A834B835C83CA01B9010E94F5169201D0
:1021E000A30169837A838B839C8369817A818B8144
:1021F0009C810E94A717562E672E782E492E20E02C
:1022000030E0A90169837A838B839C8369817A8119
:102210008B819C810E947E16882309F4D2C1AF81F4
:10222000B8851F968D919C919C01990F440B550B7D
:1022300029833A834B835C83CA01B9010E94F71654
:102240001B018D839E839701A801E982FA820B838B
:102250001C8369817A818B819C810E94A7179B01D5
:10226000AC0129823A828D818B839E819C83698116
:102270007A818B819C810E94A71720E030E040E0AA
:1022800058E369837A838B839C8369817A818B810C
:102290009C810E94A717362E272E8D839E83AF81A7
:1022A000B8851D968D919C919C01990F440B550BFF
:1022B00029833A834B835C83CA01B9010E94F716D4
:1022C0009701A80169837A838B839C8369817A81D2
:1022D0008B819C810E94A7179B01AC0169837A8343
:1022E0008B839C8369817A818B819C810E941216E9
:1022F000232D322D4D815E8169837A838B839C836C
:1023000069817A818B819C810E94121620E030E0E5
:1023100040E85EE369837A838B839C8369817A8159
:102320008B819C810E94A7171B017C01D501C401F0
:1023300024E0B595A795979587952A95D1F7898338
:102340009A83AB83BC83BC01CD010E94F7169B012D
:10235000AC0160E070E080E899E40E9411165B0136
:102360008C01AF81B8851B968D919C919C01990F32
:10237000440B550B29833A834B835C83CA01B90113
:102380000E94F71620E030E040E857E469837A8342
:102390008B839C8369817A818B819C810E94A717A2
:1023A0009101A70169837A838B839C8369817A81F8
:1023B0008B819C810E94121620E030E040E859E3B6
:1023C00069837A838B839C8369817A818B819C81E9
:1023D0000E94A7179B01AC01A982BA820B831C83C0
:1023E00069817A818B819C810E94111620E030E501
:1023F00043EC55E469837A838B839C8369817A817A
:102400008B819C810E94A717252D362D472D542D99
:1024100069837A838B839C8369817A818B819C8198
:102420000E9483167B018C01AF81B88555968D91F2
:102430009C919C01990F440B550B29833A834B8344
:102440005C83CA01B9010E94F7169701A80169834C
:102450007A838B839C8369817A818B819C810E94A2
:10246000A7179701A80169837A838B839C8369816D
:102470007A818B819C810E94A71720E030E040E0A8
:1024800050E369837A838B839C8369817A818B8112
:102490009C810E94A7174B015C01AF81B8855396C0
:1024A0008D919C919C01990F440B550B29833A8384
:1024B0004B835C83CA01B9010E94F7169701A801FA
:1024C00069837A838B839C8369817A818B819C81E8
:1024D0000E94A71720E030E040E058E369837A8348
:1024E0008B839C8369817A818B819C810E94A71751
:1024F0009B01AC0189829A82AB82BC8269817A811C
:102500008B819C810E9412164B015C01AF81B885C2
:1025100051968D919C919C01990F440B550B2983E9
:102520003A834B835C83CA01B9010E94F7169B0171
:10253000AC0189829A82AB82BC8269817A818B816B
:102540009C810E94121620E030E040E85DE3698340
:102550007A838B839C8369817A818B819C810E94A1
:10256000A7179701A80169837A838B839C8369816C
:102570007A818B819C810E941216362F272F432F40
:10258000522FBC01D6014D935D936D937C931397AD
:1025900028960FB6F894DEBF0FBECDBFDF91CF9166
:1025A0001F910F91FF90EF90DF90CF90BF90AF9071
:1025B0009F908F907F906F905F904F903F902F9063
:1025C000089530E020E080E090E0D9CFCF93DF9312
:1025D00000D000D0CDB7DEB720E836EE45EC57E4AA
:1025E000FB0160817181828193810E94831622E6C2
:1025F0003BED42E45EE369837A838B839C8369814C
:102600007A818B819C810E9414189B01AC0160E04F
:1026100070E080E89FE30E94111620E03AE24DE26C
:1026200057E469837A838B839C8369817A818B8168
:102630009C810E94A71769837A838B839C8369811D
:102640007A818B819C810F900F900F900F90DF917A
:10265000CF910895CF92DF92EF92FF920F931F9345
:10266000CF93DF93D82FC92F6B018A01790145E5FC
:1026700064EF0E94760E2FEF82E191E021508040BE
:102680009040E1F700C00000A801B6018D2F9C2FFB
:102690000E94FC0FB8018D2F9C2F0E94E612D701DB
:1026A0006D937D938D939C93139781E0DF91CF91F0
:1026B0001F910F91FF90EF90DF90CF9008951F939F
:1026C000CF93DF93D82FC92F162F0E94B915612FF2
:1026D0008D2F9C2F0E949602182F6FEF8D2F9C2F0D
:1026E0000E949602C82F0E94BB15111101C0CFEFA6
:1026F0008C2FDF91CF911F910895CF92DF92EF92AF
:10270000FF920F931F93CF93DF93182F092FC62F9C
:102710006A01D22F0E94B9156C2F812F902F0E9431
:102720009602F82ECC2DED2CDC0DDC130CC00E9493
:10273000BB158F2DDF91CF911F910F91FF90EF90DF
:10274000DF90CF9008956FEF812F902F0E94960217
:10275000EC2FFE2D8193CE2FEF2EE7CF0F931F93FB
:10276000CF93DF93182FD92F042FC62FC0622223B7
:1027700099F00E94B9156C2F812F9D2F0E9496020F
:10278000C82F0E94BB15C11101C0CFEF8C2FDF9164
:10279000CF911F910F9108950E94B9156C2F812F31
:1027A0009D2F0E949602C82F602F812F9D2F0E947F
:1027B0009602E7CFDF92EF92FF920F931F93CF9392
:1027C000DF93082FF92ED62FD42E152FC22F0E945B
:1027D000B9156D2F6062802F9F2D0E949602E82E02
:1027E0003D2D812F1C2F1D0D13130BC00E94BB15F7
:1027F0008E2DDF91CF911F910F91FF90EF90DF9081
:102800000895C32FD82F6991802F9F2D0E94960283
:102810003C2F8D2FE9CFFF920F931F93CF93DF9320
:10282000EC010E948502811103C0CE010E947A0250
:10283000B89ABC9A0E94BB15C4982FEF80E792E02B
:10284000215080409040E1F700C000008FE78A836C
:102850008E010E5F1F4F20E0A80160E0CE010E94B4
:10286000DA131A8220E0A80161E0CE010E94DA1397
:1028700080EF8A8320E0A80164E0CE010E94DA1391
:102880001A8220E0A80162E0CE010E94DA138CE5F2
:102890008A8320E0A80165E0CE010E94DA131A8243
:1028A00020E0A80166E0CE010E94DA1380E7F82E4E
:1028B000FA8220E0A80167E0CE010E94DA138FE3DC
:1028C0008A8320E0A8016CE1CE010E94DA1381E046
:1028D0008B8384E08A8320E0A8016DE1CE010E9411
:1028E000DA13FA8220E04FEF62EECE010E94AE13BF
:1028F00020E04FEF61EECE010E94AE1325E04DE0E7
:1029000051E06AE0CE010E94DA1325E048E051E090
:1029100060E1CE010E94DA1320E0A80162E0CE015E
:102920000E94DA138A8181608A8320E0A80162E034
:10293000CE01DF91CF911F910F91FF900C94DA138C
:1029400021E04FEF61EE0C94AE13BF92CF92DF9275
:10295000EF92FF920F931F93CF93DF938C01D62EAC
:10296000C72EC42FF22ED1E0442321F0D0E0403214
:1029700008F0C0E2F8018381811102C0D0E2DC1BC3
:102980000E94B9156F2DC8010E949602B82EC15041
:1029900078F4D150C0F40E94BB158B2DDF91CF91FC
:1029A0001F910F91FF90EF90DF90CF90BF9008950F
:1029B000ED2CFC2CF70161917F01C8010E94960269
:1029C000DE2CCF2CE4CF60E0C8010E949602E1CF5C
:1029D00021E04FEF6FEF0C94AE1321110DC020EAF0
:1029E0000E94A514C49A8FE19EE40197F1F700C0FC
:1029F0000000C49881E0089520EBF2CF20E00C9411
:102A0000ED1460E00E945F13982F81E09F3F09F46E
:102A100080E00895CF93DF93D82FC92F21E047E7B7
:102A200060E00E94AE1360E08D2F9C2F0E945F1328
:102A3000982F81E09F3F09F080E0DF91CF910895CA
:102A400020E047E760E00C94AE13F89490E0981310
:102A500002C0789408952091650028602093650055
:102A60002FEF30E742E0215030404040E1F700C016
:102A7000000020916500277F209365002FEF30E74D
:102A800042E0215030404040E1F700C000009F5F2D
:102A9000DECFCDB7DEB728970FB6F894DEBF0FBEF6
:102AA000CDBFF8948091640088608093640060E0FA
:102AB00072E18AE790E00E947F0C1A821B821C82DE
:102AC0008E010F5F1F4FC8010E940B1440E250E0BF
:102AD00064E770E082E191E00E94991983E00E942E
:102AE000251578940E94A80C6D837E838F83988728
:102AF0008091000190910101A0910201B091030128
:102B00002D813E814F81588582179307A407B50711
:102B1000D0F440E262E171E0C8010E94FE14882313
:102B200019F081E00E9425150E94A80CDC01CB0160
:102B30000196A11DB11D8093000190930101A09306
:102B40000201B09303018091320190913301A09171
:102B50003401B09135010196A11DB11D8093320160
:102B600090933301A0933401B09335010E94A80CD7
:102B7000B9CFC0980895C09A0895DB018F939F93B1
:102B80000E94EF15BF91AF91A29F800D911DA39F51
:102B9000900DB29F900D11240895A1E21A2EAA1B48
:102BA000BB1BFD010DC0AA1FBB1FEE1FFF1FA217FD
:102BB000B307E407F50720F0A21BB30BE40BF50BFA
:102BC000661F771F881F991F1A9469F76095709583
:102BD000809590959B01AC01BD01CF0108950E94A5
:102BE0000216A59F900DB49F900DA49F800D911D7E
:102BF00011240895B7FF0C94EF150E94EF15821B66
:102C0000930B0895A29FB001B39FC001A39F700DC5
:102C1000811D1124911DB29F700D811D1124911DE4
:102C200008955058BB27AA270E9429160C946D17A7
:102C30000E945F1738F00E94661720F039F49F3F1A
:102C400019F426F40C945C170EF4E095E7FB0C9451
:102C50005617E92F0E947E1758F3BA1762077307B9
:102C60008407950720F079F4A6F50C94A0170EF4CC
:102C7000E0950B2EBA2FA02D0B01B90190010C018C
:102C8000CA01A0011124FF27591B99F0593F50F4A4
:102C9000503E68F11A16F040A22F232F342F4427FC
:102CA000585FF3CF469537952795A795F0405395F4
:102CB000C9F77EF41F16BA0B620B730B840BBAF0C4
:102CC0009150A1F0FF0FBB1F661F771F881FC2F72F
:102CD0000EC0BA0F621F731F841F48F48795779543
:102CE0006795B795F7959E3F08F0B0CF9395880FFD
:102CF00008F09927EE0F9795879508950E9432174F
:102D000008F481E008950E9497160C946D170E94B4
:102D1000661758F00E945F1740F029F45F3F29F0D2
:102D20000C94561751110C94A1170C945C170E9427
:102D30007E1768F39923B1F3552391F3951B550B37
:102D4000BB27AA2762177307840738F09F5F5F4F7E
:102D5000220F331F441FAA1FA9F335D00E2E3AF0BD
:102D6000E0E832D091505040E695001CCAF72BD0D5
:102D7000FE2F29D0660F771F881FBB1F2617370726
:102D80004807AB07B0E809F0BB0B802DBF01FF2758
:102D900093585F4F3AF09E3F510578F00C945617C8
:102DA0000C94A1175F3FE4F3983ED4F38695779592
:102DB0006795B795F7959F5FC9F7880F911D969511
:102DC000879597F90895E1E0660F771F881FBB1F6D
:102DD000621773078407BA0720F0621B730B840B1A
:102DE000BA0BEE1F88F7E0950895E89409C097FBA9
:102DF0003EF490958095709561957F4F8F4F9F4FD2
:102E00009923A9F0F92F96E9BB279395F695879515
:102E100077956795B795F111F8CFFAF4BB0F11F4D8
:102E200060FF1BC06F5F7F4F8F4F9F4F16C088237F
:102E300011F096E911C0772321F09EE8872F762FB5
:102E400005C0662371F096E8862F70E060E02AF0F6
:102E50009A95660F771F881FDAF7880F96958795E2
:102E600097F90895990F0008550FAA0BE0E8FEEFB7
:102E700016161706E807F907C0F012161306E4073E
:102E8000F50798F0621B730B840B950B39F40A2637
:102E900061F0232B242B252B21F408950A2609F415
:102EA000A140A6958FEF811D811D089597F99F6719
:102EB00080E870E060E008959FEF80EC08950024C2
:102EC0000A941616170618060906089500240A948F
:102ED00012161306140605060895092E0394000C15
:102EE00011F4882352F0BB0F40F4BF2B11F460FFA4
:102EF00004C06F5F7F4F8F4F9F4F089557FD9058CD
:102F0000440F551F59F05F3F71F04795880F97FBAD
:102F1000991F61F09F3F79F0879508951216130667
:102F20001406551FF2CF4695F1DF08C01616170696
:102F30001806991FF1CF86957105610508940895CB
:102F4000E894BB2766277727CB0197F908950E945D
:102F5000BA170C946D170E945F1738F00E9466171D
:102F600020F0952311F00C9456170C945C17112443
:102F70000C94A1170E947E1770F3959FC1F3950FD3
:102F800050E0551F629FF001729FBB27F00DB11DED
:102F9000639FAA27F00DB11DAA1F649F6627B00D7D
:102FA000A11D661F829F2227B00DA11D621F739F66
:102FB000B00DA11D621F839FA00D611D221F749F74
:102FC0003327A00D611D231F849F600D211D822FBB
:102FD000762F6A2F11249F5750409AF0F1F08823E2
:102FE0004AF0EE0FFF1FBB1F661F771F881F91500F
:102FF0005040A9F79E3F510580F00C9456170C9451
:10300000A1175F3FE4F3983ED4F3869577956795D3
:10301000B795F795E7959F5FC1F7FE2B880F911D38
:103020009695879597F90895FA01EE0FFF1F309650
:1030300021053105A1F16115710561F48038BFE307
:103040009B0749F168949038810561F08038BFEFA3
:103050009B0741F099234AF5FF3FE1053105210522
:1030600019F1E8940894E795D901AA2329F4AB2F24
:10307000BE2FF85FD0F310C0FF5F70F4A695E0F7A5
:10308000F73950F019F0FF3A38F49F779F930DD03D
:103090000F9007FC9058089546F00C945C1760E080
:1030A00070E080E89FE308954FE79F775F934F9329
:1030B0003F932F930E940F192F913F914F915F9152
:1030C0000E94A7170C946C1829F416F00C9456174C
:1030D0000C94A0170C945C170E948617A8F39638DE
:1030E000A0F707F80F92E8942BE33AEA48EB5FE782
:1030F0000E94BD170F920F920F924DB75EB70F92BD
:103100000E945719ECE8F0E00E949E184F915F91E1
:10311000EF91FF91E595EE1FFF1F49F0FE57E06824
:103120004427EE0F441FFA95E1F74195550B0E9495
:10313000D1180F9007FE0C94C5180895DF93CF9314
:103140001F930F93FF92EF92DF927B018C016894A3
:1031500006C0DA2EEF010E94BA17FE01E894A5918D
:103160002591359145915591A6F3EF010E942916BD
:10317000FE019701A801DA9469F7DF90EF90FF90C4
:103180000F911F91CF91DF9108959B01AC0160E0F9
:1031900070E080E89FE30C9483160C9456170C940F
:1031A0008B190E948617D8F39923C9F3940F511DE8
:1031B000A3F39150504094F059F0882332F0660FF9
:1031C000771F881F91505040C1F79E3F51052CF743
:1031D000880F911D9695879597F908955F3FACF0FC
:1031E000983E9CF0BB27869577956795B79508F430
:1031F000B1609395C1F7BB0F58F711F460FFE8CFAA
:103200006F5F7F4F8F4F9F4FE3CF0C94A11716F046
:103210000C948B190C945C1768940C9456170E94AC
:103220008617A8F39923C1F3AEF3DF93CF931F93CF
:103230000F93FF92C92FDD2788232AF02197660F6D
:10324000771F881FDAF720E030E040E85FEB9FE36C
:10325000883920F0803E38F021968F770E94121630
:10326000E4EBF0E004C00E941216E1EEF0E00E94F0
:103270009E188B01BE01EC01FB2E6F5771097595ED
:10328000771F880B990B0E94F71628E132E741E37C
:103290005FE30E94BA17AF2D9801AE01FF900F9126
:1032A0001F91CF91DF910E9429160C946D17FA019E
:1032B000DC01AA0FBB1F9B01AC01BF5728F42227DA
:1032C00033274427507820C0B75190F4AB2F002407
:1032D000469537952795011CA395D2F3002071F0F0
:1032E000220F331F441FB395DAF30ED00C9411163E
:1032F00061307105A0E88A07B94630F49B01AC0142
:103300006627772788279078309621F020833183AD
:103310004283538308959F3F31F0915020F4879565
:1033200077956795B795880F911D9695879597F92D
:103330000895DC0101C06D9341505040E0F70895BD
:04334000F894FFCF2F
:1033440001000000FFFFFFFF7878787878787878BC
:02335400787887
:00000001FF
