:100000000C9487000C94A6000C94A6000C94A600F7
:100010000C94A6000C94A6000C94A6000C94A600C8
:100020000C94A6000C94A6000C94A6000C94A600B8
:100030000C94A6000C94A6000C94A6000C94A600A8
:100040000C94A6000C94A6000C94A6000C94A60098
:100050000C94A6000C94A6000C94A6000C94A60088
:100060000C94A6000C94A6000C94A6000C94A60078
:100070000C94A6000C94A6000C94A6000C94A60068
:100080000C94A6000C94A6000C94A60007634236BC
:10009000B79BD8A71A39685618AEBAAB558C1D3C19
:1000A000B7CC5763BD6DEDFD753EF6177231BF00DD
:1000B0000000803F08000000BE922449123EABAA17
:1000C000AA2ABECDCCCC4C3E00000080BEABAAAA72
:1000D000AA3E00000000BF000000803F00000000BA
:1000E00000084178D3BB4387D1133D190E3CC3BDF3
:1000F0004282AD2B3E68EC8276BED98FE1A93E4CA0
:1001000080EFFFBE01C4FF7F3F000000000011240C
:100110001FBECFEFD0E1DEBFCDBF11E0A0E0B1E068
:10012000E6EBFCE100E00BBF02C007900D92AC30A3
:10013000B107D9F721E0ACE0B1E001C01D92A533D1
:10014000B207E1F70E94040A0C94590E0C940000C7
:10015000A1980895C0980895C09A089589B91092F9
:10016000900086E08093950088E98AB908955D9BA8
:1001700003C090E080E008958CB9F9CF982F8AEF02
:100180005D9903C08150E1F708959CB981E008951D
:100190005F9BFECF8CB108950F931F93CF93DF9396
:1001A000EC01062F10E00E94C800FE01E10FF11DD6
:1001B0001F5F80838013F7CFC10FD11D1982DF919C
:1001C000CF911F910F910895A19A0895A9980E9427
:1001D000E4008FEB93E00197F1F700C000000E946C
:1001E000A80090EA9A95F1F783B3E7E4F3E031973A
:1001F000F1F700C0000082700895A9980E94E40001
:1002000082E08A95F1F700C00E94A80095E29A95D5
:10021000F1F7000083B398E79A95F1F7869581701E
:100220000895CF93C82FA9980E94E40082E08A9590
:10023000F1F700C0C1110E94A80080EA8A95F1F789
:10024000CF910C94A800CF93DF93D9E080E0D150F8
:1002500019F4DF91CF910895C82FC6950E94FD0033
:1002600020E8829FC00111248C2BF1CFCF93DF9324
:10027000C82FD9E0D15019F4DF91CF9108958C2F78
:1002800081700E941101C695F5CF0C94E400CF93C4
:10029000DF93EB010E94E6008CEC0E94360184E4BF
:1002A0000E9436010E94FD008823E1F30E94E600CF
:1002B0008CEC0E9436018EEB0E9436010E942301D5
:1002C00088830E9423018983DF91CF910C94E600FB
:1002D0000F931F93CF93DF9300D000D000D0CDB702
:1002E000DEB78B01BE016F5F7F4F0E94470189819E
:1002F0009A819C01990F440B550B2B833C834D83B2
:100300005E83CA01B9010E94B70B20E030E040E8EB
:100310005DE36B837C838D839E836B817C818D8188
:100320009E810E94670C20E030E040E05DE36B833B
:100330007C838D839E836B817C818D819E810E94D5
:10034000D20AD8016D937D938D939C931397269633
:100350000FB6F894DEBF0FBECDBFDF91CF911F91D6
:100360000F910895CF93DF9300D000D0CDB7DEB7C3
:100370000E948D0A2051310941095109569547952E
:1003800037952795209370001092710084E0809338
:1003900074000F900F900F900F90DF91CF91089500
:1003A000E4E7F0E080818B7F8083089584EA809386
:1003B00074008091740087FFFCCF089584E98093D6
:1003C000740008956093730084E8809374008091B2
:1003D000740087FFFCCF80917100887F883169F0BD
:1003E00080917100887F883241F090917100987FF0
:1003F00081E0903419F080E0089581E00895FB01D8
:10040000809174004423D9F08064809374008091BB
:1004100074008068809374008091740087FFFCCF23
:1004200080917100887F883529F080917100887FE4
:10043000803539F480917300808381E008958F7B4B
:10044000E4CF80E00895FF920F931F93CF93DF9343
:10045000D82FC92F162FF42E022F0E94D601612FFC
:10046000660F8D2F9C2F0E94E2016F2D8D2F9C2FE8
:100470000E94E201602F8D2F9C2F0E94E2018FE1EC
:100480009EE40197F1F700C0000084E980937400B6
:100490008FED9EE20197F1F700C00000DF91CF9150
:1004A0001F910F91FF900895AF92BF92CF92DF926C
:1004B000EF92FF920F931F93CF93DF93D82FD92EF4
:1004C000C62FB42EC22E78010E94D601CC0F6C2FFD
:1004D0008D2F9D2D0E94E2016B2D8D2F9D2D0E9451
:1004E000E2010E94D60161E06C0F8D2F9D2D0E94CC
:1004F000E2015801AC0CB11CEA14FB0459F4DF9181
:10050000CF911F910F91FF90EF90DF90CF90BF9010
:10051000AF90089541E0B7018D2F9D2D0E94FF01FE
:100520008FEFE81AF80AE8CF0F931F93CF93DF936A
:100530000F92CDB7DEB7FC0119828E010F5F1F4FFE
:1005400021E040E061810E94540281E09981953E62
:1005500009F080E00F90DF91CF911F910F910895E6
:10056000FC012BE041E361810C942302FC0128E0B3
:100570004DE261810C9423021F93CF93DF93EC0132
:10058000162F0E949402882371F0198328E04CE210
:10059000612FCE010E942302CE010E94B002CE0143
:1005A0000E94B60281E0DF91CF911F910895AF9232
:1005B000BF92CF92DF92EF92FF920F931F93CF9350
:1005C000DF9300D000D000D0CDB7DEB7FC015B01D7
:1005D0006A0179018E010F5F1F4F26E042E36181BE
:1005E0000E94540289819A81F501918380838B81D5
:1005F0009C81F601918380838D819E81F701918397
:10060000808326960FB6F894DEBF0FBECDBFDF9174
:10061000CF911F910F91FF90EF90DF90CF90BF90FF
:10062000AF900895CF92DF92EF92FF920F931F93B6
:10063000CF93DF93CDB7DEB72A970FB6F894DEBF1E
:100640000FBECDBF6B017A0189019E012F5F3F4F25
:10065000AE014D5F5F4FBE016B5F7F4F0E94D702BF
:100660008D819E819C01990F440B550B2F833887F8
:1006700049875A87CA01B9010E94B70B2DEC3CEC9F
:100680004CE15DE36F83788789879A876F817885EE
:1006900089859A850E94670CD6016D937D938D9311
:1006A0009C9313978B819C819C01990F440B550B54
:1006B0002F83388749875A87CA01B9010E94B70B2F
:1006C0002DEC3CEC4CE15DE36F83788789879A875A
:1006D0006F81788589859A850E94670CD7016D9313
:1006E0007D938D939C93139789819A819C01990F97
:1006F000440B550B2F83388749875A87CA01B901A4
:100700000E94B70B2DEC3CEC4CE15DE36F837887E6
:1007100089879A876F81788589859A850E94670C79
:10072000D8016D937D938D939C9313972A960FB662
:10073000F894DEBF0FBECDBFDF91CF911F910F9117
:10074000FF90EF90DF90CF900895FC01242F462F6B
:1007500061810C9423020F931F93CF93DF930F9229
:10076000CDB7DEB7FC01462F8E010F5F1F4F21E092
:1007700061810E94540289810F90DF91CF911F9176
:100780000F9108950F931F93CF93DF9300D0CDB7B0
:10079000DEB7FC01462F8E010F5F1F4F22E0618103
:1007A0000E94540289819A819827892798270F905F
:1007B0000F90DF91CF911F910F9108950E94C20376
:1007C00098278927982708950C94DE030F931F9389
:1007D000CF93DF9300D000D000D00F92CDB7DEB71B
:1007E000FC01462F8E010F5F1F4F23E061810E94A5
:1007F000540289819A81982789279827B0E0A0E040
:10080000BA2FA92F982F88272B81AC01422BCD011D
:10081000BA0127960FB6F894DEBF0FBECDBFDF91A9
:10082000CF911F910F910895CF93DF93EC0168E86A
:100830000E94DE038A836AE8CE010E94DE039D8364
:100840008C836CE8CE010E94DE039F838E836EE86A
:10085000CE010E94DE038B8360E9CE010E94DE039D
:100860009987888762E9CE010E94DE039B878A8789
:1008700064E9CE010E94DE039D878C8766E9CE0184
:100880000E94DE039F878E8768E9CE010E94DE0307
:10089000998B888B6AE9CE010E94DE039B8B8A8B41
:1008A0006CE9CE010E94DE039D8B8C8B6EE9CE013C
:1008B0000E94DE039F8B8E8BDF91CF910895CF93A3
:1008C000DF93EC01698360ED0E94AB03883561F42E
:1008D000CE010E94140448E665EFCE010E94A503F4
:1008E00081E0DF91CF91089580E0FBCFCF92DF923E
:1008F000EF92FF920F931F93CF93DF93CDB7DEB7A5
:100900002A970FB6F894DEBF0FBECDBF89879A87AE
:100910006AEF89859A850E94E6036D837E838F83C3
:100920009887E985FA85828190E0B0E0A0E00D81AA
:100930001E812F8138857727632F522F412F8A01FF
:100940009B01081B190B2A0B3B0B09831A832B8372
:100950003C832D813E814F81588567E056954795B0
:10096000379527956A95D1F7880F991FAA1FBB1F46
:10097000281B390B4A0B5B0BA481B5810E94BA0A74
:100980006B017C01ABE0F594E794D794C794AA95EA
:10099000D1F729813A814B815C81CA01B9010E945A
:1009A0007D0A9B01AC01BCE055954795379527958D
:1009B000BA95D1F7A681B7810E94BA0ADC01CB01B2
:1009C0001EE0B595A795979587951A95D1F7A7013C
:1009D0009601280F391F4A1F5B1F208F318F428FCE
:1009E000538FA5E0B0E00E94AF0ADC01CB01805834
:1009F0009F4FAF4FBF4F092F1A2F2B2F332727FDA4
:100A00003A95C901B8012A960FB6F894DEBF0FBE19
:100A1000CDBFDF91CF911F910F91FF90EF90DF90AD
:100A2000CF9008952F923F924F925F926F927F9254
:100A30008F929F92AF92BF92CF92DF92EF92FF92EE
:100A40000F931F93CF93DF93CDB7DEB728970FB6E1
:100A5000F894DEBF0FBECDBF8F8398878B016A01EC
:100A60008F8198850E947604D8016D937D938D9334
:100A70009C93139767EF8F8198850E94E6034B0143
:100A80005C01EF81F885608D718D828D938D0E9460
:100A9000B70B20E030E040E05FE369837A838B832B
:100AA0009C8369817A818B819C810E94670C20E004
:100AB00030E04AE757E469837A838B839C836981BA
:100AC0007A818B819C810E94D10A7B018C01AF814C
:100AD000B8851A968D919C919C01990F440B550BEA
:100AE00029833A834B835C83CA01B9010E94B70B07
:100AF0009701A80169837A838B839C8369817A81BA
:100B00008B819C810E94670C9701A80169837A837D
:100B10008B839C8369817A818B819C810E94670C85
:100B200020E030E040E056E369837A838B839C8346
:100B300069817A818B819C810E94670C2B013C0129
:100B4000AF81B88518968D919C919C01990F440BAB
:100B5000550B29833A834B835C83CA01B9010E94F8
:100B6000B70B9701A80169837A838B839C83698182
:100B70007A818B819C810E94670C9B01AC01498228
:100B80005A826B827C8269817A818B819C810E94EE
:100B9000D20A20E030E040E056E369837A838B8319
:100BA0009C8369817A818B819C810E94670C20E003
:100BB00030E040E058E369837A838B839C836981CA
:100BC0007A818B819C810E94670C20E030E040E8B4
:100BD0005FE369837A838B839C8369817A818B81CC
:100BE0009C810E94D20A2B013C01AF81B8851396EB
:100BF0008C91282F30E050E040E029833A834B83EA
:100C00005C83CA01B9010E94B50B9201A3016983FB
:100C10007A838B839C8369817A818B819C810E94FA
:100C2000670C562E672E782E492E20E030E0A90161
:100C300069837A838B839C8369817A818B819C8190
:100C40000E943E0B882309F4D2C1AF81B88550962B
:100C50008D919C919C01990F440B550B29833A83EC
:100C60004B835C83CA01B9010E94B70B1B018D83C2
:100C70009E839701A801E982FA820B831C83698114
:100C80007A818B819C810E94670C9B01AC01298237
:100C90003A828D818B839E819C8369817A818B814D
:100CA0009C810E94670C20E030E040E058E36983BB
:100CB0007A838B839C8369817A818B819C810E945A
:100CC000670C362E272E8D839E83AF81B8851E96A6
:100CD0008D919C919C01990F440B550B29833A836C
:100CE0004B835C83CA01B9010E94B70B9701A8012D
:100CF00069837A838B839C8369817A818B819C81D0
:100D00000E94670C9B01AC0169837A838B839C836F
:100D100069817A818B819C810E94D20A232D322D98
:100D20004D815E8169837A838B839C8369817A811B
:100D30008B819C810E94D20A20E030E040E85EE393
:100D400069837A838B839C8369817A818B819C817F
:100D50000E94670C1B017C01D501C40124E0B595FC
:100D6000A795979587952A95D1F789839A83AB8321
:100D7000BC83BC01CD010E94B70B9B01AC0160E0BC
:100D800070E080E899E40E94D10A5B018C01AF8198
:100D9000B8851C968D919C919C01990F440B550B25
:100DA00029833A834B835C83CA01B9010E94B70B44
:100DB00020E030E040E857E469837A838B839C83AA
:100DC00069817A818B819C810E94670C9101A701C6
:100DD00069837A838B839C8369817A818B819C81EF
:100DE0000E94D20A20E030E040E859E369837A8328
:100DF0008B839C8369817A818B819C810E94670CA3
:100E00009B01AC01A982BA820B831C8369817A8120
:100E10008B819C810E94D10A20E030E543EC55E4AF
:100E200069837A838B839C8369817A818B819C819E
:100E30000E94670C252D362D472D542D69837A830A
:100E40008B839C8369817A818B819C810E94430B77
:100E50007B018C01AF81B88556968D919C919C0148
:100E6000990F440B550B29833A834B835C83CA014A
:100E7000B9010E94B70B9701A80169837A838B831C
:100E80009C8369817A818B819C810E94670C970188
:100E9000A80169837A838B839C8369817A818B81A2
:100EA0009C810E94670C20E030E040E050E36983C1
:100EB0007A838B839C8369817A818B819C810E9458
:100EC000670C4B015C01AF81B88554968D919C9164
:100ED0009C01990F440B550B29833A834B835C8308
:100EE000CA01B9010E94B70B9701A80169837A83EF
:100EF0008B839C8369817A818B819C810E94670CA2
:100F000020E030E040E058E369837A838B839C8360
:100F100069817A818B819C810E94670C9B01AC0165
:100F200089829A82AB82BC8269817A818B819C8121
:100F30000E94D20A4B015C01AF81B88552968D9117
:100F40009C919C01990F440B550B29833A834B8349
:100F50005C83CA01B9010E94B70B9B01AC01898275
:100F60009A82AB82BC8269817A818B819C810E944A
:100F7000D20A20E030E040E85DE369837A838B8326
:100F80009C8369817A818B819C810E94670C970187
:100F9000A80169837A838B839C8369817A818B81A1
:100FA0009C810E94D20A362F272F432F522FBC013B
:100FB000D6014D935D936D937C93139728960FB64E
:100FC000F894DEBF0FBECDBFDF91CF911F910F917F
:100FD000FF90EF90DF90CF90BF90AF909F908F9059
:100FE0007F906F905F904F903F902F90089530E0EA
:100FF00020E080E090E0D9CFCF93DF9300D000D005
:10100000CDB7DEB720E836EE45EC57E4FB01608152
:101010007181828193810E94430B22E63BED42E481
:101020005EE369837A838B839C8369817A818B8178
:101030009C810E94D40C9B01AC0160E070E080E8D0
:101040009FE30E94D10A20E03AE24DE257E469832F
:101050007A838B839C8369817A818B819C810E94B6
:10106000670C69837A838B839C8369817A818B8106
:101070009C810F900F900F900F90DF91CF9108956A
:10108000CF92DF92EF92FF920F931F93CF93DF9354
:10109000D82FC92F6B018A01790145E564EF0E94C1
:1010A000A5032FEF82E191E0215080409040E1F7CD
:1010B00000C00000A801B6018D2F9C2F0E941205D0
:1010C000B8018D2F9C2F0E94FC07D7016D937D9353
:1010D0008D939C93139781E0DF91CF911F910F9196
:1010E000FF90EF90DF90CF90089587B3876087BB24
:1010F000BB988FE78DB91EB808958FB9779BFECF47
:101100009FB190930C0108958FEF8FB9779BFECF1D
:101110008FB108958FB9779BFECF8FB10895CF938C
:10112000DF93D82FC62F0E94AA008D2F80620E94C5
:101130008A088C2F0E948A08DF91CF910C94AC0012
:10114000CF93C62F0E94AA008C2F8F710E948A080D
:101150008FEF0E948A08C82F0E94AC008C2FCF917D
:1011600008950F931F93CF93DF93062F142FD52F3E
:10117000C22F0E94AA00802F0E948A08082F912F58
:101180008D2F1C2F190F191308C00E94AC00802F3F
:10119000DF91CF911F910F910895C92FD82F899179
:1011A0000E948A089C2F8D2FEECFCF93DF93C62FFE
:1011B000D42F0E94AA008C2F80620E948A08C82F18
:1011C0008D2F0E948A080E94AC008C2FDF91CF9156
:1011D000089560620C94B1080F931F93CF93DF932F
:1011E000EB010E94AA0080E30E948A088E010B5F37
:1011F0001F4F89910E948A080C171D07D1F7DF91B4
:10120000CF911F910F910C94AC00CF93DF93D82F07
:10121000C92F6AE080E00E948F086FE381E00E949E
:101220008F0860E082E00E948F0863E083E00E9404
:101230008F086FEF84E00E948F0865E085E00E94D0
:101240008F0866E086E00E948F0860E787E00E94D2
:101250008F0864E181E10E948F0864E182E10E94CD
:101260008F0864E183E10E948F0864E184E10E94B9
:101270008F0864E185E10E948F0864E186E10E94A5
:101280008F0860E087E10E948F0860E08CE10E9497
:101290008F0863E08DE10E948F0866E071E08D2F7A
:1012A0009C2F0E94EC0881E0DF91CF9108959C0172
:1012B00097B3916197BBC9010C940509FF920F93F5
:1012C0001F93CF93DF93F62E072F142F0E94AA00AF
:1012D00081EE0E948A080E94AC0060E387E00E94D1
:1012E0008F080E94AA0080EA0E948A08CF2DD02F82
:1012F000CE01810F911D8C01C017D107A1F40E946E
:10130000AC00C49A9FEF23EF81E0915020408040D1
:10131000E1F700C00000C49881E0DF91CF911F91F8
:101320000F91FF90089589910E948A08E5CFCF928E
:10133000DF92EF92FF920F931F93CF93DF9300D032
:1013400000D000D0CDB7DEB76C01F62E84E1E82ED8
:1013500025E131E049E151E06DE071E0C6010E9414
:1013600040082091150130911601409117015091CC
:1013700018016091110170911201809113019091F7
:1013800014010E94D20A8B018E839D83AB01BC01A4
:101390004093110150931201609313017093140153
:1013A000EA94E110D5CF8F2D90E0B0E0A0E08983E2
:1013B0009A83AB83BC83BC01CD010E94B70B9B0118
:1013C000AC0109831A839E819B83AD81AC836981C3
:1013D0007A818B819C810E94430B609311017093F1
:1013E0001201809313019093140126960FB6F8947E
:1013F000DEBF0FBECDBFDF91CF911F910F91FF9048
:10140000EF90DF90CF900895CDB7DEB7A0970FB6DD
:10141000F894DEBF0FBECDBF84E30E94AE0088EF1C
:10142000809370001092710084E0809374000E9499
:1014300075080E94E4007E018DE1E80EF11C6DE16B
:10144000C7010E94BC0267E78E010F5F1F4FC801F2
:101450000E945F045E018FE1A80EB11CC5010E94CD
:10146000570964E1C8010E94970967017801850165
:1014700069E271E0CE0180960E9468012DE131E0C1
:1014800041E251E065E271E0C6010E94120325E1EC
:1014900031E049E151E06DE071E0C7010E94400890
:1014A0008091310190913201A0913301B0913401CA
:1014B0000196A11DB11D8093310190933201A0933B
:1014C0003301B093340180912D0190912E01A091B0
:1014D0002F01B09130010196A11DB11D80932D0106
:1014E00090932E01A0932F01B093300146E060E06D
:1014F00071E0C8010E945E09BBCFDB018F939F930F
:101500000E94AF0ABF91AF91A29F800D911DA39F32
:10151000900DB29F900D11240895A1E21A2EAA1BDE
:10152000BB1BFD010DC0AA1FBB1FEE1FFF1FA21793
:10153000B307E407F50720F0A21BB30BE40BF50B90
:10154000661F771F881F991F1A9469F76095709519
:10155000809590959B01AC01BD01CF0108950E943B
:10156000C20AA59F900DB49F900DA49F800D911D60
:1015700011240895B7FF0C94AF0A0E94AF0A821B92
:10158000930B0895A29FB001B39FC001A39F700D5C
:10159000811D1124911DB29F700D811D1124911D7B
:1015A00008955058BB27AA270E94E90A0C942D0CD5
:1015B0000E941F0C38F00E94260C20F039F49F3F47
:1015C00019F426F40C941C0C0EF4E095E7FB0C9433
:1015D000160CE92F0E943E0C58F3BA1762077307E6
:1015E0008407950720F079F4A6F50C94600C0EF4AE
:1015F000E0950B2EBA2FA02D0B01B90190010C0123
:10160000CA01A0011124FF27591B99F0593F50F43A
:10161000503E68F11A16F040A22F232F342F442792
:10162000585FF3CF469537952795A795F04053958A
:10163000C9F77EF41F16BA0B620B730B840BBAF05A
:101640009150A1F0FF0FBB1F661F771F881FC2F7C5
:101650000EC0BA0F621F731F841F48F487957795D9
:101660006795B795F7959E3F08F0B0CF9395880F93
:1016700008F09927EE0F9795879508950E94F20B31
:1016800008F481E008950E94570B0C942D0C0E94E1
:10169000260C58F00E941F0C40F029F45F3F29F0FF
:1016A0000C94160C51110C94610C0C941C0C0E949F
:1016B0003E0C68F39923B1F3552391F3951B550B19
:1016C000BB27AA2762177307840738F09F5F5F4F15
:1016D000220F331F441FAA1FA9F335D00E2E3AF054
:1016E000E0E832D091505040E695001CCAF72BD06C
:1016F000FE2F29D0660F771F881FBB1F26173707BD
:101700004807AB07B0E809F0BB0B802DBF01FF27EE
:1017100093585F4F3AF09E3F510578F00C94160CA9
:101720000C94610C5F3FE4F3983ED4F38695779573
:101730006795B795F7959F5FC9F7880F911D9695A7
:10174000879597F90895E1E0660F771F881FBB1F03
:10175000621773078407BA0720F0621B730B840BB0
:10176000BA0BEE1F88F7E0950895E89409C097FB3F
:101770003EF490958095709561957F4F8F4F9F4F68
:101780009923A9F0F92F96E9BB279395F6958795AC
:1017900077956795B795F111F8CFFAF4BB0F11F46F
:1017A00060FF1BC06F5F7F4F8F4F9F4F16C0882316
:1017B00011F096E911C0772321F09EE8872F762F4C
:1017C00005C0662371F096E8862F70E060E02AF08D
:1017D0009A95660F771F881FDAF7880F9695879579
:1017E00097F90895990F0008550FAA0BE0E8FEEF4E
:1017F00016161706E807F907C0F012161306E407D5
:10180000F50798F0621B730B840B950B39F40A26CD
:1018100061F0232B242B252B21F408950A2609F4AB
:10182000A140A6958FEF811D811D089597F99F67AF
:1018300080E870E060E008959FEF80EC0895002458
:101840000A941616170618060906089500240A9425
:1018500012161306140605060895092E0394000CAB
:1018600011F4882352F0BB0F40F4BF2B11F460FF3A
:1018700004C06F5F7F4F8F4F9F4F089557FD905863
:10188000440F551F59F05F3F71F04795880F97FB44
:10189000991F61F09F3F79F08795089512161306FE
:1018A0001406551FF2CF4695F1DF08C0161617062D
:1018B0001806991FF1CF8695710561050894089562
:1018C000E894BB2766277727CB0197F908950E94F4
:1018D0007A0C0C942D0C0E941F0C38F00E94260CE0
:1018E00020F0952311F00C94160C0C941C0C112470
:1018F0000C94610C0E943E0C70F3959FC1F3950F00
:1019000050E0551F629FF001729FBB27F00DB11D83
:10191000639FAA27F00DB11DAA1F649F6627B00D13
:10192000A11D661F829F2227B00DA11D621F739FFC
:10193000B00DA11D621F839FA00D611D221F749F0A
:101940003327A00D611D231F849F600D211D822F51
:10195000762F6A2F11249F5750409AF0F1F0882378
:101960004AF0EE0FFF1FBB1F661F771F881F9150A5
:101970005040A9F79E3F510580F00C94160C0C9432
:10198000610C5F3FE4F3983ED4F3869577956795B5
:10199000B795F795E7959F5FC1F7FE2B880F911DCF
:1019A0009695879597F90895FA01EE0FFF1F3096E7
:1019B00021053105A1F16115710561F48038BFE39E
:1019C0009B0749F168949038810561F08038BFEF3A
:1019D0009B0741F099234AF5FF3FE10531052105B9
:1019E00019F1E8940894E795D901AA2329F4AB2FBB
:1019F000BE2FF85FD0F310C0FF5F70F4A695E0F73C
:101A0000F73950F019F0FF3A38F49F779F930DD0D3
:101A10000F9007FC9058089546F00C941C0C60E061
:101A200070E080E89FE308954FE79F775F934F93BF
:101A30003F932F930E94CF0D2F913F914F915F9134
:101A40000E94670C0C942C0D29F416F00C94160CC3
:101A50000C94600C0C941C0C0E94460CA8F3963855
:101A6000A0F707F80F92E8942BE33AEA48EB5FE718
:101A70000E947D0C0F920F920F924DB75EB70F929E
:101A80000E94170EECE8F0E00E945E0D4F915F910E
:101A9000EF91FF91E595EE1FFF1F49F0FE57E068BB
:101AA0004427EE0F441FFA95E1F74195550B0E942C
:101AB000910D0F9007FE0C94850D0895DF93CF9341
:101AC0001F930F93FF92EF92DF927B018C0168943A
:101AD00006C0DA2EEF010E947A0CFE01E894A5916F
:101AE0002591359145915591A6F3EF010E94E90AA0
:101AF000FE019701A801DA9469F7DF90EF90FF905B
:101B00000F911F91CF91DF9108959B01AC0160E08F
:101B100070E080E89FE30C94430B0C94160C0C943B
:101B20004B0E0E94460CD8F39923C9F3940F511D14
:101B3000A3F39150504094F059F0882332F0660F8F
:101B4000771F881F91505040C1F79E3F51052CF7D9
:101B5000880F911D9695879597F908955F3FACF092
:101B6000983E9CF0BB27869577956795B79508F4C6
:101B7000B1609395C1F7BB0F58F711F460FFE8CF40
:101B80006F5F7F4F8F4F9F4FE3CF0C94610C16F028
:101B90000C944B0E0C941C0C68940C94160C0E9424
:101BA000460CA8F39923C1F3AEF3DF93CF931F93B1
:101BB0000F93FF92C92FDD2788232AF02197660F04
:101BC000771F881FDAF720E030E040E85FEB9FE303
:101BD000883920F0803E38F021968F770E94D20A13
:101BE000E4EBF0E004C00E94D20AE1EEF0E00E94D3
:101BF0005E0D8B01BE01EC01FB2E6F5771097595CF
:101C0000771F880B990B0E94B70B28E132E741E35D
:101C10005FE30E947A0CAF2D9801AE01FF900F9107
:101C20001F91CF91DF910E94E90A0C942D0CFA01CB
:101C3000DC01AA0FBB1F9B01AC01BF5728F4222770
:101C400033274427507820C0B75190F4AB2F00249D
:101C5000469537952795011CA395D2F3002071F086
:101C6000220F331F441FB395DAF30ED00C94D10A20
:101C700061307105A0E88A07B94630F49B01AC01D8
:101C80006627772788279078309621F02083318344
:101C90004283538308959F3F31F0915020F48795FC
:101CA00077956795B795880F911D9695879597F9C4
:061CB0000895F894FFCF37
:0C1CB6000001020304056173646667000E
:00000001FF
