:100000000C9488000C94B2000C94B2000C94B200D2
:100010000C94B2000C94B2000C94B2000C94B20098
:100020000C94B2000C94B2000C94B2000C94B20088
:100030000C945D070C94B2000C94B2000C94B200C6
:100040000C94B2000C94B2000C94B2000C94B20068
:100050000C94B2000C94B2000C94B2000C94B20058
:100060000C94B2000C94B2000C94B2000C94B20048
:100070000C94B2000C94B2000C94CD020C94B2001B
:100080000C94B2000C94B2000C94B2000763423698
:10009000B79BD8A71A39685618AEBAAB558C1D3C19
:1000A000B7CC5763BD6DEDFD753EF6177231BF00DD
:1000B0000000803F08000000BE922449123EABAA17
:1000C000AA2ABECDCCCC4C3E00000080BEABAAAA72
:1000D000AA3E00000000BF000000803F00000000BA
:1000E00000084178D3BB4387D1133D190E3CC3BDF3
:1000F0004282AD2B3E68EC8276BED98FE1A93E4CA0
:1001000080EFFFBE01C4FF7F3F0000000000C2047B
:1001100011241FBECFEFD0E1DEBFCDBF11E0A0E0C4
:10012000B1E0E4E7FCE200E00BBF02C007900D92F3
:10013000A431B107D9F723E0A4E1B1E001C01D92D9
:10014000AD3BB207E1F710E0C8E8D0E004C021976A
:10015000FE010E949A12C738D107C9F70E94FA021D
:100160000C9438160C940000CF92DF92EF92FF921D
:100170000F931F93CF93DF9300D000D00F92CDB792
:10018000DEB7C82E84E189830DE411E025E631E075
:1001900041E651E06DE571E08CE691E00E94CE1001
:1001A0002091B0033091B1034091B2035091B30359
:1001B000D80158966D917D918D919C915B970E948D
:1001C000A412D62EE72EF82E9D83462F572F682F88
:1001D000792F4093B0035093B1036093B2037093AF
:1001E000B303B981B150B983B111D0CF8C2D90E058
:1001F000A0E0B0E089839A83AB83BC83BC01CD01CE
:100200000E94BA13262F372F482F592FD982EA82FE
:10021000FB829D819C8369817A818B819C810E9474
:1002200010136093B0037093B1038093B203909363
:10023000B3030F900F900F900F900F90DF91CF911D
:100240001F910F91FF90EF90DF90CF90089584322F
:1002500019F1909100019F3F09F448C0911144C0E9
:100260008C32B1F58091AB03873491F48091AC036B
:100270008E3411F0803561F48091AD03873441F400
:100280008091AE03873421F48091AF038134D1F0A3
:100290008FEF809300010895109200011092AA033D
:1002A0001092A8031092A7031092A6031092A9031C
:1002B000E5E1F1E081E291E011921386E817F90798
:1002C000D9F7089581E0809300018093AA030895EF
:1002D000EBEAF3E091819083928191839381928301
:1002E0009481938384830895913009F008958C322A
:1002F00071F09091A9039330D1F0983019F19130B9
:1003000061F0993098F382E08093AA03EFCF809157
:10031000A9038F5F8093A9030895E091A8039E0F1E
:100320009093A803F0E0EC5EFE4F81830895E09186
:10033000A70391E09E0F9093A703F0E0EC5EFE4FC1
:1003400085870895E091A60391E09E0F9093A60300
:10035000F0E0EC5EFE4F818F08950F931F93CF93D3
:10036000DF93CDB7DEB72C970FB6F894DEBF0FBE84
:10037000CDBF0DE411E020E030E048EC52E4D801BC
:100380006D917D918D919C910E94461469837A8331
:100390008B839C8369817A818B819C810E948213EB
:1003A000862F972F909335018093340120E030E021
:1003B00048EC52E4F80164817581868197810E943E
:1003C000461469837A838B839C8369817A818B81CC
:1003D0009C810E948213862F972F909337018093E0
:1003E000360120E030E048EC52E4D80118966D91D7
:1003F0007D918D919C911B970E94461469837A830D
:100400008B839C8369817A818B819C810E9482137A
:10041000862F972F909339018093380120E030E0A8
:1004200048EC52E4F80164857585868597850E94BD
:10043000461469837A838B839C8369817A818B815B
:100440009C810E948213862F972F90933B0180936B
:100450003A0120E030E048EC52E4D80150966D912A
:100460007D918D919C9153970E94461469837A8364
:100470008B839C8369817A818B819C810E9482130A
:10048000862F972F90933D0180933C01F80164895A
:100490007589868997890E9482136D837E838F83F5
:1004A000988760933E0170933F0180934001909341
:1004B000410120E030E048EC52E4D80158966D91BB
:1004C0007D918D919C915B970E94461469837A83FC
:1004D0008B839C8369817A818B819C810E948213AA
:1004E000862F972F90934301809342010E94A30788
:1004F00069877A878B879C8760934801709349014D
:1005000080934A0190934B0180910201B0E88B9F48
:10051000C001112420910101E0E42E9F90011124DB
:10052000822B2091B403F0E22F9F90011124822BA3
:1005300091E02091AA03211101C090E09295907F53
:10054000892B9091B803990F990F990F892B90914E
:10055000B603990F990F982B8091B703880F892BB9
:100560009091B503892B80934C01E3E3F1E08189FD
:100570009289A389B4890196A11DB11D818B928BAB
:10058000A38BB48B2C960FB6F894DEBF0FBECDBFF5
:10059000DF91CF911F910F9108951F920F920FB687
:1005A0000F9211240BB60F922F933F934F935F93AB
:1005B0006F937F938F939F93AF93BF93EF93FF932B
:1005C00080919C000E94270181E08093B503FF91F8
:1005D000EF91BF91AF919F918F917F916F915F91BB
:1005E0004F913F912F910F900BBE0F900FBE0F9028
:1005F0001F901895CDB7DEB76E970FB6F894DEBF93
:100600000FBECDBFF8940F2EF2EACF2EF1E0DF2E11
:10061000F02D0F2EF2EAEF2EF3E0FF2EF02DF60173
:100620001192EE15FF05E1F7D39A8AB388638ABB6E
:10063000A09A61E083E390E00E94E706CE01019674
:100640002AE0DC011D922A95E9F700E81AE126E08C
:1006500030E040E052E16AE770E00E94E4040E946A
:10066000411260E072E18AE790E00E948007809189
:100670000201882321F080910101811119C080E1DC
:100680008BBB7894F894E5E6F0E080818860808305
:10069000BFEF27E833E1B15020403040E1F700C020
:1006A00000008081877F8083789418E001E087C014
:1006B00088E08BBBE6CF0E94AD0163E371E08FE978
:1006C00091E00E9461110E94A30760930F01709353
:1006D000100180931101909312011092B8031092AF
:1006E000B7031092B6031092B5031092B4030E94A0
:1006F000A3076B8F7C8F8D8F9E8F80910B019091C4
:100700000C01A0910D01B0910E012B8D3C8D4D8DF2
:100710005E8D281B390B4A0B5B0BDA01C901833054
:100720009340A105B10508F07DC00E94A3076B8F1F
:100730007C8F8D8F9E8F8091070190910801A091F1
:100740000901B0910A012B8D3C8D4D8D5E8D281BCA
:10075000390B4A0B5B0B233331054105510508F07A
:1007600074C00E94A3076B8F7C8F8D8F9E8F8091AA
:10077000030190910401A0910501B09106012B8D18
:100780003C8D4D8D5E8D281B390B4A0B5B0B2A313E
:1007900031054105510508F06FC00E94A3076B8F1A
:1007A0007C8F8D8F9E8FDC01CB0184569109A1092E
:1007B000B10985369105A105B10508F074C0809195
:1007C0000201882309F4D3C080910101882309F430
:1007D000CEC01BBB0E94A3076B8F7C8F8D8F9E8F1B
:1007E00080910F0190911001A0911101B09112011F
:1007F0002B8D3C8D4D8D5E8D281B390B4A0B5B0B71
:100800002B3031054105510508F471CF8091AA03C1
:10081000823009F050CF64E171E08FE991E00E94ED
:10082000611151CF69E571E08EE991E00E94BB0A48
:100830000E94A30760930B0170930C0180930D013C
:1008400090930E010093B70370CF25E631E041E6A7
:1008500051E06DE571E08CE691E00E94CE100E94BF
:10086000A307609307017093080180930901909397
:100870000A010093B60375CF25E531E041E551E06B
:100880006DE471E083E991E00E94D2090E94A30720
:100890006093030170930401809305019093060116
:1008A0000093B8037ACF8AE1E3E3F1E0DE01119629
:1008B00001900D928A95E1F74091A0015091A1011C
:1008C000411532E05307A0F4FE013196DA01AE552E
:1008D000BE4F9E01255E3F4F81918D93E217F30736
:1008E000D9F7465E5F4F5093A1014093A00167CFB7
:1008F0004091A2035091A3036091A4037091A503BA
:1009000022EA31E089E691E00E94CD0891E09093DF
:10091000B403F6011192EE15FF05E1F71092A10163
:100920001092A0014091A2035091A3036091A403EF
:100930007091A5034F5F5F4F6F4F7F4F4093A203AE
:100940005093A3036093A4037093A50381110CC07B
:1009500080E28BBB4FEF50E782E041505040804037
:10096000E1F700C000002BCF80E18BBBF3CF80E12B
:100970008BBB80E090E06E960FB6F894DEBF0FBEA2
:10098000CDBF0895CF93DF938FE991E00E94F310DC
:100990008EE991E00E94760A83E991E00E94420983
:1009A0008CE691E00E94100BC9E6D1E01882198212
:1009B0001A82CE010E943E0719821A8281E080933A
:1009C0001401DF91CF9108950F931F93E82FF92F12
:1009D000428353836483758306831783208731871B
:1009E00080E28093700010927100A4E7B0E08C91D7
:1009F00084608C9381E080831F910F910895FC01A6
:100A000080810895A82FB92F84EA80937400E4E7C9
:100A1000F0E080818823ECF781E011968C930895B3
:100A200024E920937400FC01118281E00895DC0127
:100A3000E4E7F0E090819B7F90831C9281E0089531
:100A40006093730084E880937400E4E7F0E08081B1
:100A50008823ECF780917100887F883169F080915C
:100A60007100887F883251F090917100987F81E009
:100A7000903429F080E0089581E0089581E00895A0
:100A8000A62FB72F4423C9F0E4E7F0E0808180640B
:100A9000808384E880937400E4E7F0E08081882319
:100AA000ECF780917100887F883569F08091710042
:100AB000887F803541F080E00895E4E7F0E08081B0
:100AC0008F7B8083E6CF809173008C9381E00895C3
:100AD00080E4689FB0011124646860937400E4E7C7
:100AE000F0E080818823ECF78091730008955F9295
:100AF0006F927F928F929F92AF92BF92CF92DF922E
:100B0000EF92FF920F931F93CF93DF93A82EB92EEE
:100B1000C62FD42FC22EC5010E9402056C2F660F6E
:100B2000C5010E9420056D2FC5010E94200584E9A2
:100B300080937400F5011182C5010E9402056C2F9B
:100B4000660F6160C5010E9420058C2D8150990BB4
:100B50006C01181619060CF064C010E0712C812C81
:100B6000912CE12CF12C00E0512C612CC0E0D0E064
:100B700061E0C5010E94680590E0CC0FDD1FCC0F3D
:100B8000DD1FCC0FDD1F02C0880F991FCA95E2F749
:100B9000292F220F220B782A892A922AE22AF22A66
:100BA000022B522A622A1F5FC12FD0E0CC15DD052F
:100BB000FCF260E0C5010E94680594E9909374001E
:100BC000F501118290E0CC0CDD1CCC0CDD1CCC0CB2
:100BD000DD1C02C0880F991FCA94E2F7E92FEE0FBF
:100BE000EE0B272D282B382D392B4E2F49295E2F20
:100BF0005E296E2F6F297E2F702B8E2F85299E2FB9
:100C00009629DF91CF911F910F91FF90EF90DF9088
:100C1000CF90BF90AF909F908F907F906F905F909C
:100C20000895712C812C912CE12CF12C00E0512C99
:100C3000612CBFCFBF92CF92DF92EF92FF920F93C2
:100C40001F93CF93DF93F82EE92ED62EB42EC22E0B
:100C5000C02FD12F0E940205DD0C6D2D8F2D9E2DF2
:100C60000E9420056B2D8F2D9E2D0E9420058F2D1B
:100C70009E2D0E94020561E06D0D8F2D9E2D0E941C
:100C80002005CC2069F08E010C0D111D41E0BE0144
:100C90008F2D9E2D0E94400521960C171D07B1F740
:100CA000DF91CF911F910F91FF90EF90DF90CF9048
:100CB000BF900895FF920F931F93CF93DF93C82F98
:100CC000D92F162FF42E022FCE010E940205612F7C
:100CD000660FCE010E9420056F2DCE010E942005D7
:100CE000602FCE010E94200584E980937400198250
:100CF000DF91CF911F910F91FF9008958F9A0895E2
:100D000097988F9A8FEB93E00197F1F700C000005E
:100D10008F9890EA9A95F1F780B3E7E4F3E0319782
:100D2000F1F700C000008078089597988F9A82E0CC
:100D30008A95F1F700C08F9895E29A95F1F7000037
:100D400080B398E79A95F1F7881F8827881F089540
:100D500097988F9A82E08A95F1F700C061118F9879
:100D600080EA8A95F1F78F9808950F931F93CF9398
:100D7000DF93082F192FD8E0C0E0C695802F912F60
:100D80000E94950620E8829FC0011124C82BD150F3
:100D9000D111F3CF8C2FDF91CF911F910F91089537
:100DA0000F931F93CF93DF93082F192FC62FD8E0EF
:100DB0006C2F6170802F912F0E94A806C695D1508C
:100DC000D111F6CFDF91CF911F910F91089561114D
:100DD00009C089B91092900086E08093950088E957
:100DE0008AB90895909398008093990088E9809338
:100DF0009A008EE080939D0008955D9903C08CB9A0
:100E00005D9BFDCF80E090E008955F9BFECF8CB1AD
:100E100090E0089590919B0095FD08C0ACE9B0E08A
:100E2000EBE9F0E08C93908195FFFCCFF894E5E638
:100E3000F0E08081886080832FEF80E792E021508E
:100E400080409040E1F700C000008081877F808370
:100E50002FEF80E792E0215080409040E1F700C002
:100E60000000789480E090E00895EBE9F0E0808164
:100E70008823ECF780919C0090E00895FC0197B3E3
:100E8000976197BB98B39F6098BB81E58DB91EB8F9
:100E900081E080830895FC01808108956FB9779B7C
:100EA000FECF08958FEF8FB9779BFECF8FB1089556
:100EB0006FB9779BFECF8FB108951F921FB61F9217
:100EC00011248F939F93AF93BF938091B903909117
:100ED000BA03A091BB03B091BC030196A11DB11D43
:100EE0008093B9039093BA03A093BB03B093BC0360
:100EF000BF91AF919F918F911F901FBE1F9018952A
:100F0000CF93DF9300D000D0CDB7DEB769837A836B
:100F10008B839C8320E43FE140E050E00E94781204
:100F20008EB58A608EBDBB27A52F942F832F8BBDD6
:100F30002ABD87B7806187BF0F900F900F900F90E9
:100F4000DF91CF910895CF93DF9300D000D0CDB73C
:100F5000DEB7F8948091B9039091BA03A091BB03D6
:100F6000B091BC0389839A83AB83BC8378946981F5
:100F70007A818B819C810F900F900F900F90DF9161
:100F8000CF910895BF92CF92DF92EF92FF920F938D
:100F90001F93CF93DF93082F192FB62EC22ED32E77
:100FA000E42EF52EF801818181110FC09FEE960F7E
:100FB000923050F098EE960F9230B8F190EE960F76
:100FC000923018F4B82E01C0B82EA9986B2D606429
:100FD000C8010E9458076F2D772788279927C801D5
:100FE0000E945807B70188279927C8010E9458070F
:100FF00099278F2D7E2D6D2DC8010E9458076C2DCD
:10100000C8010E945807F8E0BF1689F065E9C801D9
:101010000E945807D0E0C8010E945207C82F8F3F96
:1010200059F4D150D111F7CF0CC0B82ECECF67E80C
:10103000C8010E945807EECF811103C08AE3B81699
:1010400079F0C8010E945207A99A8C2FDF91CF91A5
:101050001F910F91FF90EF90DF90CF90BF90089578
:10106000C8010E94520786FB882780F9F801818316
:10107000C8010E945207C8010E945207C8010E947D
:101080005207DFCFEF92FF920F931F93CF93DF931F
:10109000C82FD92F1AE06FEFCE010E9458071150C8
:1010A0001111F9CFA9980F2EF1E2EF2EF12CF02DAE
:1010B00020E030E0A90160E0CE010E94C207182FB5
:1010C00081E0E81AF108E114F10409F45BC0113081
:1010D00079F7A99A6FEFCE010E9458076FEFCE0102
:1010E0000E945807EE24EA94F12C2AEA31E040E00D
:1010F00050E068E0CE010E94C20791E0E91AF108D1
:10110000E114F104C9F1813081F712E0EE24EA9490
:10111000F12C20E030E0A90167E3CE010E94C20774
:1011200020E030E040E050E469E2CE010E94C207D6
:10113000082F81E0E81AF108E114F10461F10111CE
:10114000E8CF19821230F9F4EE24EA94F12C20E071
:1011500030E0A9016AE3CE010E94C20791E0E91ADA
:10116000F108E114F10411F08111F1CF898181308E
:1011700031F083E08A8307C081E08A83C7CF82E0B1
:101180008A8301C001E0802FDF91CF911F910F91E1
:10119000FF90EF90089502E0F6CFDF92EF92FF927A
:1011A0000F931F93CF93DF93082F192F942F852F21
:1011B000462F572FE22EF32E292F382F68E1802F4C
:1011C000912F0E94C207D82E882349F08D2DDF91E0
:1011D000CF911F910F91FF90EF90DF900895A99804
:1011E0006EEF802F912F0E945807E701C7019E5F85
:1011F0007C016991802F912F0E945807CE15DF0541
:10120000C1F76FEF802F912F0E9458076FEF802F4B
:10121000912F0E945807802F912F0E945207982FDC
:101220009F71953039F0A99AD82ED0CFA99ADD2494
:10123000D394CCCFC0E0D0E0802F912F0E945207F2
:10124000811107C09E012F5F3F4F219679F3E9017D
:10125000F3CFA99A6FEF802F912F0E945807A9987A
:10126000802F912F0E94520781110AC0CE01019652
:10127000219611F0EC01F4CFA99ADD24D394A6CFE6
:10128000A99AA4CFFC0131968AE0DF011D928A95CC
:10129000E9F708950F931F93CF93DF930F92CDB784
:1012A000DEB71982E82FF92F8E010F5F1F4F21E063
:1012B00040E06191CF010E941A0681E09981953E3C
:1012C00009F080E00F90DF91CF911F910F91089569
:1012D000E82FF92F2BE041E36191CF010E945A06DC
:1012E0000895E82FF92F28E04DE26191CF010E9487
:1012F0005A060895CF93DF93C82FD92F6883CE0164
:101300000E944A09811103C0DF91CF910895CE0157
:1013100028E04CE2FC016191CF010E945A06CE0107
:101320000E946809CE010E94710981E0EDCFAF9261
:10133000BF92CF92DF92EF92FF920F931F93CF93C2
:10134000DF93082F192FA62EB72EC42ED52EE22EEE
:10135000F32EE80122E042E36991CE010E94770575
:10136000F5012083318322E044E3F8016081CE015E
:101370000E947705F6012083318322E046E3F801DD
:101380006081CE010E947705F70120833183DF91D0
:10139000CF911F910F91FF90EF90DF90CF90BF9072
:1013A000AF900895AF92BF92CF92DF92EF92FF92EB
:1013B0000F931F93CF93DF93CDB7DEB72A970FB666
:1013C000F894DEBF0FBECDBF082F192FA62EB72E63
:1013D000C42ED52EE22EF32E9E012B5F3F4FAE0181
:1013E0004D5F5F4FBE016F5F7F4F0E9497098981FC
:1013F0009A819C01990F440B550B2F83388749879D
:101400005A87CA01B9010E94BA132DEC3CEC4CE199
:101410005DE36F83788789879A876F81788589856F
:101420009A850E944614D5016D937D938D939C936C
:1014300013978B819C819C01990F440B550B2F8333
:10144000388749875A87CA01B9010E94BA132DEC1F
:101450003CEC4CE15DE36F83788789879A876F81E5
:10146000788589859A850E944614D6016D937D936F
:101470008D939C9313978D819E819C01990F440BB2
:10148000550B2F83388749875A87CA01B9010E94B3
:10149000BA132DEC3CEC4CE15DE36F8378878987D0
:1014A0009A876F81788589859A850E944614D7012D
:1014B0006D937D938D939C931397E02FF12F28E0EC
:1014C0004DE26191CF010E945A062A960FB6F89418
:1014D000DEBF0FBECDBFDF91CF911F910F91FF9067
:1014E000EF90DF90CF90BF90AF9008950E947E065E
:1014F0000895CF93DF93D82FC92F0E9480066CECFC
:101500008D2F9C2F0E94D00664E48D2F9C2F0E946B
:10151000D006DF91CF9108950F931F93CF93DF9360
:10152000082F192FC62FD72F802F912F0E94950695
:101530008823D1F3802F912F0E9480066CEC802F9E
:10154000912F0E94D0066EEB802F912F0E94D00623
:10155000802F912F0E94B5068883802F912F0E94A3
:10156000B5068983802F912F0E948006DF91CF914D
:101570001F910F910895EF92FF920F931F93CF93B6
:10158000DF9300D000D000D0CDB7DEB7082F192FE1
:10159000E62EF72EBE016F5F7F4F0E948C0A9A8164
:1015A00089819C01990F440B550B2B833C834D8300
:1015B0005E83CA01B9010E94BA1320E030E040E81E
:1015C0005DE36B837C838D839E836B817C818D81C6
:1015D0009E810E94461420E030E040E05DE36B8392
:1015E0007C838D839E836B817C818D819E810E9413
:1015F000A412D7016D937D938D939C931397802FA5
:10160000912F0E94790A0F900F900F900F900F90DA
:101610000F90DF91CF911F910F91FF90EF90089560
:10162000E82FF92F14821382108E178A7D968AE094
:10163000DF011D928A95E9F70895E82FF92F242FED
:10164000462F6081CF014D960E945A0608950F9350
:101650001F93CF93DF930F92CDB7DEB7E82FF92F0B
:10166000462F8E010F5F1F4F21E06081CF014D9605
:101670000E941A0689810F90DF91CF911F910F91DF
:1016800008950F931F93CF93DF9300D000D000D025
:101690000F92CDB7DEB7E82FF92F462F8E010F5FDF
:1016A0001F4F23E06081CF014D960E941A06898169
:1016B00090E0A0E0B0E0BA2FA92F982F88272A81C8
:1016C000822BBA2FA92F982F88272B81AC01BD011F
:1016D000422B4C835D836E837F83CB01BA012796B7
:1016E0000FB6F894DEBF0FBECDBFDF91CF911F9133
:1016F0000F9108958F929F92AF92BF92CF92DF92F7
:10170000EF92FF92E82FF92F462F22E06081CF0160
:101710004D960E947705932E922F892DFF90EF9082
:10172000DF90CF90BF90AF909F908F9008950F93D0
:101730001F93CF93DF93C82FD92F8E01035E1F4FC6
:1017400022E048E867E7C8010E94770529833A83C9
:1017500022E04AE867E7C8010E9477052D833E83AF
:1017600022E04CE867E7C8010E9477052F8338879D
:1017700022E04EE867E7C8010E9477052B833C838F
:1017800022E040E967E7C8010E94770529873A8788
:1017900022E042E967E7C8010E9477052B873C8772
:1017A00022E044E967E7C8010E9477052D873E875C
:1017B00022E046E967E7C8010E9477052F87388B4A
:1017C00022E048E967E7C8010E947705298B3A8B38
:1017D00022E04AE967E7C8010E9477052B8B3C8B22
:1017E00022E04CE967E7C8010E9477052D8B3E8B0C
:1017F00022E04EE967E7C8010E9477052F8B388FFA
:10180000DF91CF911F910F910895CF93DF93C82F50
:10181000D92F688360EDCE010E94270B883521F017
:1018200080E0DF91CF910895CE010E94970B48E6AA
:1018300065EFCE010E941D0B4DEF64EFCE010E94BB
:101840001D0B2FEF82E191E0215080409040E1F7A5
:1018500000C0000081E0E5CF6F927F928F929F924F
:10186000AF92BF92CF92DF92EF92FF920F931F93AE
:10187000CF93DF93CDB7DEB72A970FB6F894DEBFCC
:101880000FBECDBF8D839E836AEF8D819E810E94A6
:10189000410B9B01AC01689413F85595479537951A
:1018A00027951694D1F729833A834B835C83CA0129
:1018B000B9010E94BA13A62EB72EC82ED92EAD811B
:1018C000BE8111968D919C919C0140E050E029834E
:1018D0003A834B835C83CA01B9010E94B813E62E98
:1018E000F72E082F192F20E030E040E057E3A982BF
:1018F000BA82CB82DC8269817A818B819C810E9451
:101900004614662E772E882E992E20E030E040E097
:1019100059E3E982FA820B831C8369817A818B8186
:101920009C810E944614262F372F482F592F6982F9
:101930007A828B829C8269817A818B819C810E94D0
:10194000A312662E772E882E992E20E030E040E8F4
:1019500058E3A982BA82CB82DC8269817A818B8149
:101960009C810E944614A62EB72EC82ED92E20E0A8
:1019700030E040E85AE3E982FA820B831C836981F4
:101980007A818B819C810E944614262F372F482F05
:10199000592FA982BA82CB82DC8269817A818B81BC
:1019A0009C810E94A312E62EF72E082F192FAD81DD
:1019B000BE8115968D919C919C01990F440B550BFE
:1019C00029833A834B835C83CA01B9010E94BA130D
:1019D000262F372F482F592FE982FA820B831C8339
:1019E00069817A818B819C810E944614E62EF72EB4
:1019F000082F192FAD81BE8117968D919C919C0166
:101A0000990F440B550B29833A834B835C83CA019E
:101A1000B9010E94BA13A62EB72EC82ED92E262D94
:101A2000372D482D592D69827A828B829C8269815B
:101A30007A818B819C810E944614262F372F482F54
:101A4000592FA982BA82CB82DC8269817A818B810B
:101A50009C810E944614262F372F482F592FE98248
:101A6000FA820B831C8369817A818B819C810E941D
:101A7000A41269837A838B839C8369817A818B81A9
:101A80009C810E9482136F83788789879A87AD81B2
:101A9000BE8159966D937D938D939C935C9720E0C6
:101AA00030E040EA55E469817A818B819C810E9413
:101AB000101369837A838B839C8369817A818B81FC
:101AC0009C812A960FB6F894DEBF0FBECDBFDF9182
:101AD000CF911F910F91FF90EF90DF90CF90BF902B
:101AE000AF909F908F907F906F9008952F923F922C
:101AF0004F925F926F927F928F929F92AF92BF921E
:101B0000CF92DF92EF92FF920F931F93CF93DF93C9
:101B1000CDB7DEB728970FB6F894DEBF0FBECDBFA6
:101B20008F839887062F172FC42ED52E8F819885E7
:101B30000E942C0CD8016D937D938D939C931397E9
:101B400067EF8F8198850E94410B862E972EA82ED5
:101B5000B92EEF81F885618D728D838D948D0E94F1
:101B6000BA1320E030E040E05FE369837A838B833F
:101B70009C8369817A818B819C810E94461420E03C
:101B800030E04AE757E469837A838B839C836981D9
:101B90007A818B819C810E94A312E62EF72E082F5A
:101BA000192FAF81B88551968D919C919C01990F09
:101BB000440B550B29833A834B835C83CA01B901DB
:101BC0000E94BA13462E572E682E792E2E2D3F2DA9
:101BD000402F512FE982FA820B831C8369817A811D
:101BE0008B819C810E944614262F372F482F592F16
:101BF00049825A826B827C8269817A818B819C8145
:101C00000E94461420E030E040E058E369837A8384
:101C10008B839C8369817A818B819C810E9446148D
:101C2000462E572E682E792EAF81B8851F968D913E
:101C30009C919C01990F440B550B29833A834B834C
:101C40005C83CA01B9010E94BA132E2D3F2D402F8B
:101C5000512F69837A838B839C8369817A818B81FD
:101C60009C810E944614262F372F482F592F6983B5
:101C70007A838B839C8369817A818B819C810E948A
:101C8000A412242D352D462D572D69837A838B83FD
:101C90009C8369817A818B819C810E94A41220E0BF
:101CA00030E040E85EE369837A838B839C836981BB
:101CB0007A818B819C810E944614662E772E8D83BB
:101CC0009E83AF81B8851B968D919C919C01990F45
:101CD000440B550B29833A834B835C83CA01B901BA
:101CE0000E94BA132E2D3F2D402F512F69837A83E6
:101CF0008B839C8369817A818B819C810E944614AD
:101D00002E2D3F2D402F512F69837A838B839C8307
:101D100069817A818B819C810E94461420E030E0A9
:101D200040E056E369837A838B839C8369817A815F
:101D30008B819C810E944614262E372E482E592EC8
:101D4000AF81B88519968D919C919C01990F440B98
:101D5000550B29833A834B835C83CA01B9010E94E6
:101D6000BA132E2D3F2D402F512F69837A838B83F9
:101D70009C8369817A818B819C810E944614262FE5
:101D8000372F482F592F29823A824B825C826981F2
:101D90007A818B819C810E94A41220E030E040E097
:101DA00056E369837A838B839C8369817A818B81F3
:101DB0009C810E94461420E030E040E058E36983B3
:101DC0007A838B839C8369817A818B819C810E9439
:101DD000461420E030E040E85FE369837A838B8338
:101DE0009C8369817A818B819C810E94A412462EFA
:101DF000572EE82EF92ED501C401689413F8B59535
:101E0000A795979587951694D1F789839A83AB8385
:101E1000BC83BC01CD010E94BA13262F372F482F57
:101E2000592F60E070E080E899E40E94A312A62E8A
:101E3000B72E082F192FAF81B8851D968D919C91D3
:101E40009C01990F440B550B29833A834B835C8388
:101E5000CA01B9010E94BA1320E030E040E857E41B
:101E600069837A838B839C8369817A818B819C814E
:101E70000E944614262D372D4D815E8169837A8319
:101E80008B839C8369817A818B819C810E94A412BF
:101E900020E030E040E859E369837A838B839C83B8
:101EA00069817A818B819C810E944614262F372F6D
:101EB000482F592FA982BA820B831C8369817A81AA
:101EC0008B819C810E94A31220E030E543EC55E415
:101ED00069837A838B839C8369817A818B819C81DE
:101EE0000E944614A62EB72E082F192FAF81B88551
:101EF00013968D919C919C0140E050E029833A8398
:101F00004B835C83CA01B9010E94B813242D352D7F
:101F10004E2D5F2D69837A838B839C8369817A81BF
:101F20008B819C810E944614262F372F482F592FD2
:101F3000A982BA820B831C8369817A818B819C81FF
:101F40000E941013E62EF72E082F192FAF81B885A7
:101F500057968D919C919C01990F440B550B2983A9
:101F60003A834B835C83CA01B9010E94BA132E2DB8
:101F70003F2D402F512F69837A838B839C83698106
:101F80007A818B819C810E9446142E2D3F2D402FFB
:101F9000512F69837A838B839C8369817A818B81BA
:101FA0009C810E94461420E030E040E050E36983C9
:101FB0007A838B839C8369817A818B819C810E9447
:101FC0004614862E972EA82EB92EAF81B885559629
:101FD0008D919C919C01990F440B550B29833A8359
:101FE0004B835C83CA01B9010E94BA132E2D3F2D89
:101FF000402F512F69837A838B839C8369817A81F7
:102000008B819C810E94461420E030E040E058E340
:1020100069837A838B839C8369817A818B819C819C
:102020000E944614262F372F482F592F89829A82D3
:10203000AB82BC8269817A818B819C810E94A412CF
:10204000862E972EA82EB92EAF81B88553968D91E6
:102050009C919C01990F440B550B29833A834B8328
:102060005C83CA01B9010E94BA13262F372F482F6B
:10207000592F89829A82AB82BC8269817A818B8155
:102080009C810E94A41220E030E040E85DE3698377
:102090007A838B839C8369817A818B819C810E9466
:1020A00046142E2D3F2D402F512F69837A838B8329
:1020B0009C8369817A818B819C810E94A412D601C4
:1020C0006D937D938D939C93139728960FB6F894F8
:1020D000DEBF0FBECDBFDF91CF911F910F91FF905B
:1020E000EF90DF90CF90BF90AF909F908F907F90B8
:1020F0006F905F904F903F902F900895CF93DF9314
:10210000CDB7DEB72A970FB6F894DEBF0FBECDBFAE
:102110004D835E8320E836EE45EC57E4DB016D919C
:102120007D918D919C910E94101322E63BED42E43B
:102130005EE369837A838B839C8369817A818B8157
:102140009C810E94B314262F372F482F592F60E00F
:1021500070E080E89FE30E94A31220E03AE24DE2A3
:1021600057E469837A838B839C8369817A818B812D
:102170009C810E9446146F83788789879A87ED81B6
:10218000FE8160837183828393832A960FB6F894CD
:10219000DEBF0FBECDBFDF91CF910895EF92FF92CA
:1021A0000F931F93CF93DF93C82FD92F042F152F91
:1021B000E22EF32ECE010E94760D4E2D5F2D602F64
:1021C000712FCE010E947E102DEF44EF6881CE0169
:1021D0004D960E945A0681E0DF91CF911F910F9199
:1021E000FF90EF9008950F931F93CF93DF930F927B
:1021F000CDB7DEB7082F192FC8010E943E07CE01C8
:1022000001960E943E078981F80180830F90DF913B
:10221000CF911F910F9108951F93CF93DF93D82FE4
:10222000C92F142FC09860620E945807612F8D2F0C
:102230009C2F0E945807C09ADF91CF911F9108955B
:10224000EF92FF920F931F93CF93DF93F82EE92E17
:10225000C42FD52F122FC09860620E9458070FEF2D
:10226000010F112379F010E00F5F1F4F0C0F1D1F9E
:10227000FE01219660818F2D9E2D0E945807C01768
:10228000D107B1F7C09ADF91CF911F910F91FF90C5
:10229000EF900895CF93DF93D82FC92FC0986F7117
:1022A0000E9458076FEF8D2F9C2F0E945807C09AED
:1022B000DF91CF910895C09861EE0E945807C09AAF
:1022C0000895EF92FF920F931F93CF93DF93082F00
:1022D000192FC62FD72FC4980E945B1140E367E0E7
:1022E000802F912F0E940C11C09860EA802F912FAF
:1022F0000E9458077E0180E2E80EF11CFE01219643
:102300006081802F912F0E945807EC16FD06B1F7CF
:10231000C09AC49ADF91CF911F910F91FF90EF90D7
:102320000895EF92FF920F931F93CF93DF93CDB752
:10233000DEB728970FB6F894DEBF0FBECDBFE82EEC
:10234000F92E09831A832B833C834D835E836F832D
:10235000788725E0AE014F5F5F4F6AE00E94201151
:1023600025E0AE014F5F5F4F60E18E2D9F2D0E94F3
:10237000201128960FB6F894DEBF0FBECDBFDF91B7
:10238000CF911F910F91FF90EF9008950F931F939E
:10239000CF93DF93D82FC92F4EE060E00E940C113D
:1023A0004FE361E08D2F9C2F0E940C1140E062E012
:1023B0008D2F9C2F0E940C1143E063E08D2F9C2FEA
:1023C0000E940C114FEF64E08D2F9C2F0E940C1186
:1023D0004CE565E08D2F9C2F0E940C1142E066E0D9
:1023E0008D2F9C2F0E940C1140E767E08D2F9C2FB2
:1023F0000E940C1144E161E18D2F9C2F0E940C1171
:1024000044E162E18D2F9C2F0E940C1144E163E1B5
:102410008D2F9C2F0E940C1144E164E18D2F9C2F85
:102420000E940C1144E165E18D2F9C2F0E940C113C
:1024300044E166E18D2F9C2F0E940C1140E067E182
:102440008D2F9C2F0E940C1140E06CE18D2F9C2F52
:102450000E940C1143E06DE18D2F9C2F0E940C1106
:1024600008E718E728E738E748E750E060E070E061
:102470008D2F9C2F0E949111DF91CF911F910F9171
:1024800008956DE183E991E00E947A098823E1F0E3
:1024900067E78CE691E00E94050C8823F9F089E655
:1024A00091E00E94420891E0811190E09093010137
:1024B0008EE991E00E947E068FE991E00E94C611AC
:1024C0008AE00E94B400089563E583E991E00E94E8
:1024D0007A098111DDCF10920201DACF66E78CE62E
:1024E00091E00E94050C8111DACF10920201D7CF42
:1024F000A1E21A2EAA1BBB1BFD010DC0AA1FBB1F08
:10250000EE1FFF1FA217B307E407F50720F0A21B79
:10251000B30BE40BF50B661F771F881F991F1A94E6
:1025200069F760957095809590959B01AC01BD0110
:10253000CF010895EE0FFF1F0024001C0BBE079073
:10254000F691E02D09945058BB27AA270E94BB1290
:102550000C940C140E94FE1338F00E94051420F015
:1025600039F49F3F19F426F40C94FB130EF4E09514
:10257000E7FB0C94F513E92F0E941D1458F3BA17CA
:10258000620773078407950720F079F4A6F50C9489
:102590003F140EF4E0950B2EBA2FA02D0B01B901BC
:1025A00090010C01CA01A0011124FF27591B99F0C9
:1025B000593F50F4503E68F11A16F040A22F232FD5
:1025C000342F4427585FF3CF469537952795A79525
:1025D000F0405395C9F77EF41F16BA0B620B730BCC
:1025E000840BBAF09150A1F0FF0FBB1F661F771F3D
:1025F000881FC2F70EC0BA0F621F731F841F48F4F2
:10260000879577956795B795F7959E3F08F0B0CF7A
:102610009395880F08F09927EE0F97958795089561
:102620000E9424130C940C140E94051458F00E946C
:10263000FE1340F029F45F3F29F00C94F51351117B
:102640000C9440140C94FB130E941D1468F39923FE
:10265000B1F3552391F3951B550BBB27AA2762179E
:102660007307840738F09F5F5F4F220F331F441FAB
:10267000AA1FA9F335D00E2E3AF0E0E832D09150DF
:102680005040E695001CCAF72BD0FE2F29D0660FCC
:10269000771F881FBB1F261737074807AB07B0E80F
:1026A00009F0BB0B802DBF01FF2793585F4F3AF015
:1026B0009E3F510578F00C94F5130C9440145F3F45
:1026C000E4F3983ED4F3869577956795B795F7959B
:1026D0009F5FC9F7880F911D9695879597F9089583
:1026E000E1E0660F771F881FBB1F6217730784071F
:1026F000BA0720F0621B730B840BBA0BEE1F88F72E
:10270000E09508950E9489136894B1110C944014C7
:1027100008950E94251488F09F5798F0B92F9927A3
:10272000B751B0F0E1F0660F771F881F991F1AF0BC
:10273000BA95C9F714C0B13091F00E943F14B1E0CE
:1027400008950C943F14672F782F8827B85F39F0CD
:10275000B93FCCF3869577956795B395D9F73EF455
:1027600090958095709561957F4F8F4F9F4F0895FD
:10277000E89409C097FB3EF490958095709561951B
:102780007F4F8F4F9F4F9923A9F0F92F96E9BB27D1
:102790009395F695879577956795B795F111F8CF4D
:1027A000FAF4BB0F11F460FF1BC06F5F7F4F8F4FB8
:1027B0009F4F16C0882311F096E911C0772321F0AE
:1027C0009EE8872F762F05C0662371F096E8862F46
:1027D00070E060E02AF09A95660F771F881FDAF79D
:1027E000880F9695879597F9089597F99F6780E8E0
:1027F00070E060E008959FEF80EC089500240A9453
:102800001616170618060906089500240A941216CB
:102810001306140605060895092E0394000C11F4FE
:10282000882352F0BB0F40F4BF2B11F460FF04C0AB
:102830006F5F7F4F8F4F9F4F089557FD9058440F04
:10284000551F59F05F3F71F04795880F97FB991F0F
:1028500061F09F3F79F087950895121613061406CC
:10286000551FF2CF4695F1DF08C016161706180659
:10287000991FF1CF86957105610508940895E89434
:10288000BB2766277727CB0197F908950E94591433
:102890000C940C140E94FE1338F00E94051420F0D2
:1028A000952311F00C94F5130C94FB1311240C9444
:1028B00040140E941D1470F3959FC1F3950F50E0D2
:1028C000551F629FF001729FBB27F00DB11D639FE2
:1028D000AA27F00DB11DAA1F649F6627B00DA11D88
:1028E000661F829F2227B00DA11D621F739FB00D2E
:1028F000A11D621F839FA00D611D221F749F33279E
:10290000A00D611D231F849F600D211D822F762F36
:102910006A2F11249F5750409AF0F1F088234AF013
:10292000EE0FFF1FBB1F661F771F881F915050407F
:10293000A9F79E3F510580F00C94F5130C944014B8
:102940005F3FE4F3983ED4F3869577956795B79506
:10295000F795E7959F5FC1F7FE2B880F911D969520
:10296000879597F90895FA01EE0FFF1F309621051C
:102970003105A1F16115710561F48038BFE39B0752
:1029800049F168949038810561F08038BFEF9B076A
:1029900041F099234AF5FF3FE1053105210519F181
:1029A000E8940894E795D901AA2329F4AB2FBE2F08
:1029B000F85FD0F310C0FF5F70F4A695E0F7F73929
:1029C00050F019F0FF3A38F49F779F930DD00F9095
:1029D00007FC9058089546F00C94FB1360E070E0FB
:1029E00080E89FE308954FE79F775F934F933F936E
:1029F0002F930E94AE152F913F914F915F910E94AE
:102A000046140C940B1529F416F00C94F5130C9441
:102A10003F140C94FB130E942514A8F39638A0F7DA
:102A200007F80F92E8942BE33AEA48EB5FE70E943D
:102A30005C140F920F920F924DB75EB70F920E94E7
:102A4000F615ECE8F0E00E943D154F915F91EF9193
:102A5000FF91E595EE1FFF1F49F0FE57E068442700
:102A6000EE0F441FFA95E1F74195550B0E94701542
:102A70000F9007FE0C9464150895DF93CF931F9376
:102A80000F93FF92EF92DF927B018C01689406C056
:102A9000DA2EEF010E945914FE01E894A5912591C8
:102AA000359145915591A6F3EF010E94BB12FE01AD
:102AB0009701A801DA9469F7DF90EF90FF900F91EA
:102AC0001F91CF91DF9108959B01AC0160E070E010
:102AD00080E89FE30C9410130C94F5130C942A16C1
:102AE0000E942514D8F39923C9F3940F511DA3F321
:102AF0009150504094F059F0882332F0660F771FC0
:102B0000881F91505040C1F79E3F51052CF7880F08
:102B1000911D9695879597F908955F3FACF0983E83
:102B20009CF0BB27869577956795B79508F4B160BB
:102B30009395C1F7BB0F58F711F460FFE8CF6F5FB3
:102B40007F4F8F4F9F4FE3CF0C94401416F00C949F
:102B50002A160C94FB1368940C94F5130E94251408
:102B6000A8F39923C1F3AEF3DF93CF931F930F9391
:102B7000FF92C92FDD2788232AF02197660F771F40
:102B8000881FDAF720E030E040E85FEB9FE3883908
:102B900020F0803E38F021968F770E94A412E4EB5B
:102BA000F0E004C00E94A412E1EEF0E00E943D15A6
:102BB0008B01BE01EC01FB2E6F5771097595771FD4
:102BC000880B990B0E94BA1328E132E741E35FE3D7
:102BD0000E945914AF2D9801AE01FF900F911F91E3
:102BE000CF91DF910E94BB120C940C14FA01DC010E
:102BF000AA0FBB1F9B01AC01BF5728F42227332724
:102C00004427507820C0B75190F4AB2F002446954C
:102C100037952795011CA395D2F3002071F0220F60
:102C2000331F441FB395DAF30ED00C94A312613016
:102C30007105A0E88A07B94630F49B01AC0166270C
:102C4000772788279078309621F02083318342833C
:102C5000538308959F3F31F0915020F487957795E5
:102C60006795B795880F911D9695879597F9089563
:042C7000F894FFCF06
:102C7400FF01011900000032000000020300000AF5
:042C8400000000004C
:00000001FF
